{
  "_format": "hh-sol-artifact-1",
  "contractName": "Lottery",
  "sourceName": "contracts/lottery/Lottery.sol",
  "abi": [
    {
      "inputs": [
        {
          "internalType": "address",
          "name": "_vrfCoordinator",
          "type": "address"
        },
        {
          "internalType": "address",
          "name": "_link",
          "type": "address"
        },
        {
          "internalType": "bytes32",
          "name": "_keyHash",
          "type": "bytes32"
        },
        {
          "internalType": "address",
          "name": "_stakingContractAddress",
          "type": "address"
        },
        {
          "internalType": "uint256",
          "name": "_ticketsLeftToDraw",
          "type": "uint256"
        }
      ],
      "stateMutability": "nonpayable",
      "type": "constructor"
    },
    {
      "anonymous": false,
      "inputs": [
        {
          "indexed": true,
          "internalType": "address",
          "name": "previousOwner",
          "type": "address"
        },
        {
          "indexed": true,
          "internalType": "address",
          "name": "newOwner",
          "type": "address"
        }
      ],
      "name": "OwnershipTransferred",
      "type": "event"
    },
    {
      "anonymous": false,
      "inputs": [
        {
          "indexed": false,
          "internalType": "uint256",
          "name": "validDraws",
          "type": "uint256"
        },
        {
          "indexed": false,
          "internalType": "uint256",
          "name": "invalidDraws",
          "type": "uint256"
        }
      ],
      "name": "TicketsDrawn",
      "type": "event"
    },
    {
      "inputs": [],
      "name": "owner",
      "outputs": [
        {
          "internalType": "address",
          "name": "",
          "type": "address"
        }
      ],
      "stateMutability": "view",
      "type": "function"
    },
    {
      "inputs": [
        {
          "internalType": "uint256",
          "name": "ticketsToDraw",
          "type": "uint256"
        }
      ],
      "name": "pickWinners",
      "outputs": [],
      "stateMutability": "nonpayable",
      "type": "function"
    },
    {
      "inputs": [
        {
          "internalType": "bytes32",
          "name": "requestId",
          "type": "bytes32"
        },
        {
          "internalType": "uint256",
          "name": "randomness",
          "type": "uint256"
        }
      ],
      "name": "rawFulfillRandomness",
      "outputs": [],
      "stateMutability": "nonpayable",
      "type": "function"
    },
    {
      "inputs": [],
      "name": "renounceOwnership",
      "outputs": [],
      "stateMutability": "nonpayable",
      "type": "function"
    },
    {
      "inputs": [],
      "name": "requestId",
      "outputs": [
        {
          "internalType": "bytes32",
          "name": "",
          "type": "bytes32"
        }
      ],
      "stateMutability": "view",
      "type": "function"
    },
    {
      "inputs": [],
      "name": "stakingContractAddress",
      "outputs": [
        {
          "internalType": "address",
          "name": "",
          "type": "address"
        }
      ],
      "stateMutability": "view",
      "type": "function"
    },
    {
      "inputs": [
        {
          "internalType": "uint256",
          "name": "seed",
          "type": "uint256"
        }
      ],
      "name": "startLottery",
      "outputs": [],
      "stateMutability": "nonpayable",
      "type": "function"
    },
    {
      "inputs": [],
      "name": "status",
      "outputs": [
        {
          "internalType": "enum LotteryConfig.LotteryState",
          "name": "",
          "type": "uint8"
        }
      ],
      "stateMutability": "view",
      "type": "function"
    },
    {
      "inputs": [],
      "name": "ticketsLeftToDraw",
      "outputs": [
        {
          "internalType": "uint256",
          "name": "",
          "type": "uint256"
        }
      ],
      "stateMutability": "view",
      "type": "function"
    },
    {
      "inputs": [
        {
          "internalType": "address",
          "name": "newOwner",
          "type": "address"
        }
      ],
      "name": "transferOwnership",
      "outputs": [],
      "stateMutability": "nonpayable",
      "type": "function"
    },
    {
      "inputs": [
        {
          "internalType": "address",
          "name": "",
          "type": "address"
        }
      ],
      "name": "winnerDrawnMap",
      "outputs": [
        {
          "internalType": "bool",
          "name": "",
          "type": "bool"
        }
      ],
      "stateMutability": "view",
      "type": "function"
    },
    {
      "inputs": [
        {
          "internalType": "address",
          "name": "_link",
          "type": "address"
        }
      ],
      "name": "withdrawLink",
      "outputs": [],
      "stateMutability": "nonpayable",
      "type": "function"
    }
  ],
  "bytecode": "0x60c06040523480156200001157600080fd5b50604051620013f9380380620013f9833981016040819052620000349162000111565b6001600160601b0319606086811b821660a05285901b166080526000620000636001600160e01b03620000ef16565b600180546001600160a01b0319166001600160a01b038316908117909155604051919250906000907f8be0079c531659141344cd1fd0a4f28419497f9722a3daafe3b4186f6b6457e0908290a35060089290925567016345785d8a0000600a55600280546001600160a01b0319166001600160a01b039290921691909117905560045550620001719050565b3390565b80516001600160a01b03811681146200010b57600080fd5b92915050565b600080600080600060a0868803121562000129578081fd5b620001358787620000f3565b9450620001468760208801620000f3565b9350604086015192506200015e8760608801620000f3565b9150608086015190509295509295909350565b60805160601c60a05160601c611254620001a5600039806104765280610bb6525080610a485280610b8752506112546000f3fe608060405234801561001057600080fd5b50600436106100b35760003560e01c8063715018a611610071578063715018a61461013d5780638da5cb5b1461014557806390e9ca7f1461014d57806394985ddd14610160578063c6bec93a14610173578063f2fde38b14610186576100b3565b80626d6cae146100b857806313123d52146100d6578063200d2ed2146100eb5780633535f48b14610100578063504a6311146101155780635c465e041461011d575b600080fd5b6100c0610199565b6040516100cd9190610ece565b60405180910390f35b6100e96100e4366004610dd3565b61019f565b005b6100f3610243565b6040516100cd9190610efb565b610108610253565b6040516100cd9190610e2c565b6100c0610262565b61013061012b366004610d3b565b610268565b6040516100cd9190610ec3565b6100e961027d565b610108610306565b6100e961015b366004610d3b565b610315565b6100e961016e366004610d93565b61046b565b6100e9610181366004610dd3565b6104bd565b6100e9610194366004610d3b565b6106e0565b60095481565b60018054600160a01b900460ff1660028111156101b857fe5b146101de5760405162461bcd60e51b81526004016101d590611066565b60405180910390fd5b600b546101fd5760405162461bcd60e51b81526004016101d590610fc3565b60045461021c5760405162461bcd60e51b81526004016101d59061116c565b610225816107a1565b600454610240576001805460ff60a01b1916600160a11b1790555b50565b600154600160a01b900460ff1681565b6002546001600160a01b031681565b60045481565b60076020526000908152604090205460ff1681565b6102856109f8565b6001600160a01b0316610296610306565b6001600160a01b0316146102bc5760405162461bcd60e51b81526004016101d590611100565b6001546040516000916001600160a01b0316907f8be0079c531659141344cd1fd0a4f28419497f9722a3daafe3b4186f6b6457e0908390a3600180546001600160a01b0319169055565b6001546001600160a01b031690565b61031d6109f8565b6001600160a01b031661032e610306565b6001600160a01b0316146103545760405162461bcd60e51b81526004016101d590611100565b6040516370a0823160e01b815281906001600160a01b0382169063a9059cbb90339083906370a082319061038c903090600401610e2c565b60206040518083038186803b1580156103a457600080fd5b505afa1580156103b8573d6000803e3d6000fd5b505050506040513d601f19601f820116820180604052508101906103dc9190610deb565b6040518363ffffffff1660e01b81526004016103f9929190610e40565b602060405180830381600087803b15801561041357600080fd5b505af1158015610427573d6000803e3d6000fd5b505050506040513d601f19601f8201168201806040525081019061044b9190610d73565b6104675760405162461bcd60e51b81526004016101d5906110d4565b5050565b336001600160a01b037f000000000000000000000000000000000000000000000000000000000000000016146104b35760405162461bcd60e51b81526004016101d590611135565b61046782826109fc565b6104c56109f8565b6001600160a01b03166104d6610306565b6001600160a01b0316146104fc5760405162461bcd60e51b81526004016101d590611100565b6002546001600160a01b0316610510610306565b6001600160a01b0316816001600160a01b0316638da5cb5b6040518163ffffffff1660e01b815260040160206040518083038186803b15801561055257600080fd5b505afa158015610566573d6000803e3d6000fd5b505050506040513d601f19601f8201168201806040525081019061058a9190610d57565b6001600160a01b0316146105b05760405162461bcd60e51b81526004016101d5906111af565b6003816001600160a01b031663200d2ed26040518163ffffffff1660e01b815260040160206040518083038186803b1580156105eb57600080fd5b505afa1580156105ff573d6000803e3d6000fd5b505050506040513d601f19601f820116820180604052508101906106239190610db4565b600381111561062e57fe5b1461064b5760405162461bcd60e51b81526004016101d590611006565b61065482610a0a565b50806001600160a01b031663333347ae6040518163ffffffff1660e01b815260040160206040518083038186803b15801561068e57600080fd5b505afa1580156106a2573d6000803e3d6000fd5b505050506040513d601f19601f820116820180604052508101906106c69190610deb565b60035550506001805460ff60a01b1916600160a01b179055565b6106e86109f8565b6001600160a01b03166106f9610306565b6001600160a01b03161461071f5760405162461bcd60e51b81526004016101d590611100565b6001600160a01b0381166107455760405162461bcd60e51b81526004016101d590610f0f565b6001546040516001600160a01b038084169216907f8be0079c531659141344cd1fd0a4f28419497f9722a3daafe3b4186f6b6457e090600090a3600180546001600160a01b0319166001600160a01b0392909216919091179055565b6002546004546005546001600160a01b03909216918360008080846107c657600b5494505b6000861180156107d65750600084115b1561098e57600060055485424402426040516020016107f89493929190610e11565b6040516020818303038152906040528051906020012060001c9050610839600161082d60035484610aff90919063ffffffff16565b9063ffffffff610b2f16565b6040516338296f3d60e11b81529094506001600160a01b03891690637052de7a90610868908790600401610ece565b60206040518083038186803b15801561088057600080fd5b505afa158015610894573d6000803e3d6000fd5b505050506040513d601f19601f820116820180604052508101906108b89190610d57565b6001600160a01b03811660009081526007602052604090205490925060ff16806108e957506001600160a01b038216155b156108f95760018301925061095f565b6001600160a01b0382166000818152600760205260408120805460ff191660019081179091556006805491820181559091527ff652222313e28459528d920b65115c16c04f3efc82aaedc97be59f3f377c0d3f0180546001600160a01b03191690911790555b94508461097387600163ffffffff610b5b16565b965061098685600163ffffffff610b5b16565b9450506107c6565b60058590556109a3868363ffffffff610b2f16565b6004557f43be01740173552f9c5051940792c19d4bd2369818e53ddc4df422a4854883196109d7898463ffffffff610b5b16565b836040516109e6929190610e03565b60405180910390a15050505050505050565b3390565b600991909155600101600b55565b6000600b54600014610a2e5760405162461bcd60e51b81526004016101d5906111da565b600a546040516370a0823160e01b81526001600160a01b037f000000000000000000000000000000000000000000000000000000000000000016906370a0823190610a7d903090600401610e2c565b60206040518083038186803b158015610a9557600080fd5b505afa158015610aa9573d6000803e3d6000fd5b505050506040513d601f19601f82011682018060405250810190610acd9190610deb565b11610aea5760405162461bcd60e51b81526004016101d59061103d565b610af9600854600a5484610b83565b92915050565b600081610b1e5760405162461bcd60e51b81526004016101d59061109d565b818381610b2757fe5b069392505050565b600082820183811015610b545760405162461bcd60e51b81526004016101d590610f55565b9392505050565b600082821115610b7d5760405162461bcd60e51b81526004016101d590610f8c565b50900390565b60007f00000000000000000000000000000000000000000000000000000000000000006001600160a01b0316634000aea07f0000000000000000000000000000000000000000000000000000000000000000858786604051602001610be9929190610e03565b6040516020818303038152906040526040518463ffffffff1660e01b8152600401610c1693929190610e59565b602060405180830381600087803b158015610c3057600080fd5b505af1158015610c44573d6000803e3d6000fd5b505050506040513d601f19601f82011682018060405250810190610c689190610d73565b506000610c898584306000808a815260200190815260200160002054610cce565b600086815260208190526040902054909150610cac90600163ffffffff610b2f16565b600086815260208190526040902055610cc58582610d08565b95945050505050565b600084848484604051602001610ce79493929190610ed7565b60408051601f19818403018152919052805160209091012095945050505050565b60008282604051602001610d1d929190610e03565b60405160208183030381529060405280519060200120905092915050565b600060208284031215610d4c578081fd5b8135610b5481611209565b600060208284031215610d68578081fd5b8151610b5481611209565b600060208284031215610d84578081fd5b81518015158114610b54578182fd5b60008060408385031215610da5578081fd5b50508035926020909101359150565b600060208284031215610dc5578081fd5b815160048110610b54578182fd5b600060208284031215610de4578081fd5b5035919050565b600060208284031215610dfc578081fd5b5051919050565b918252602082015260400190565b93845260208401929092526040830152606082015260800190565b6001600160a01b0391909116815260200190565b6001600160a01b03929092168252602082015260400190565b600060018060a01b038516825260208481840152606060408401528351806060850152825b81811015610e9a57858101830151858201608001528201610e7e565b81811115610eab5783608083870101525b50601f01601f19169290920160800195945050505050565b901515815260200190565b90815260200190565b93845260208401929092526001600160a01b03166040830152606082015260800190565b6020810160038310610f0957fe5b91905290565b60208082526026908201527f4f776e61626c653a206e6577206f776e657220697320746865207a65726f206160408201526564647265737360d01b606082015260800190565b6020808252601b908201527f536166654d6174683a206164646974696f6e206f766572666c6f770000000000604082015260600190565b6020808252601e908201527f536166654d6174683a207375627472616374696f6e206f766572666c6f770000604082015260600190565b60208082526023908201527f52616e646f6d206e756d626572206e6f74206265656e207265636569766564206040820152621e595d60ea1b606082015260800190565b6020808252601c908201527f5469636b657473206e6f74206265656e20616c6c6f7465642079657400000000604082015260600190565b6020808252600f908201526e4e6f7420656e6f756768204c494e4b60881b604082015260600190565b6020808252601b908201527f4c6f747465727920686173206e6f742073746172746564207965740000000000604082015260600190565b60208082526018908201527f536166654d6174683a206d6f64756c6f206279207a65726f0000000000000000604082015260600190565b6020808252601290820152712ab730b13632903a37903a3930b739b332b960711b604082015260600190565b6020808252818101527f4f776e61626c653a2063616c6c6572206973206e6f7420746865206f776e6572604082015260600190565b6020808252601f908201527f4f6e6c7920565246436f6f7264696e61746f722063616e2066756c66696c6c00604082015260600190565b60208082526023908201527f416c6c207469636b657473206861766520616c7265616479206265656e20647260408201526230bbb760e91b606082015260800190565b60208082526011908201527009eeedccae440c8dedc4ee840dac2e8c6d607b1b604082015260600190565b602080825260159082015274416c726561647920666f756e64206c6f747465727960581b604082015260600190565b6001600160a01b038116811461024057600080fdfea26469706673582212202f7b6f435f21ba037359d963ce7db51d3ad5e9ec6997b40a79a57fd0e3bbcc4d64736f6c63430006060033",
  "linkReferences": {},
  "deployedLinkReferences": {}
}