{
  "contractName": "Pool",
  "abi": [
    {
      "inputs": [
        {
          "internalType": "string",
          "name": "_farmerName",
          "type": "string"
        }
      ],
      "stateMutability": "payable",
      "type": "constructor"
    },
    {
      "inputs": [
        {
          "internalType": "address",
          "name": "admin",
          "type": "address"
        }
      ],
      "name": "addAdmin",
      "outputs": [],
      "stateMutability": "nonpayable",
      "type": "function"
    },
    {
      "inputs": [
        {
          "internalType": "address",
          "name": "",
          "type": "address"
        }
      ],
      "name": "admins",
      "outputs": [
        {
          "internalType": "bool",
          "name": "",
          "type": "bool"
        }
      ],
      "stateMutability": "view",
      "type": "function"
    },
    {
      "inputs": [
        {
          "internalType": "address",
          "name": "check",
          "type": "address"
        }
      ],
      "name": "checkadmin",
      "outputs": [
        {
          "internalType": "bool",
          "name": "",
          "type": "bool"
        }
      ],
      "stateMutability": "view",
      "type": "function"
    },
    {
      "inputs": [
        {
          "internalType": "address",
          "name": "token",
          "type": "address"
        }
      ],
      "name": "getTOKEN",
      "outputs": [
        {
          "internalType": "uint256",
          "name": "",
          "type": "uint256"
        }
      ],
      "stateMutability": "view",
      "type": "function"
    },
    {
      "inputs": [
        {
          "internalType": "address",
          "name": "",
          "type": "address"
        }
      ],
      "name": "investors",
      "outputs": [
        {
          "internalType": "bool",
          "name": "",
          "type": "bool"
        }
      ],
      "stateMutability": "view",
      "type": "function"
    },
    {
      "stateMutability": "payable",
      "type": "receive"
    },
    {
      "inputs": [],
      "name": "getFarmername",
      "outputs": [
        {
          "internalType": "string",
          "name": "",
          "type": "string"
        }
      ],
      "stateMutability": "view",
      "type": "function"
    },
    {
      "inputs": [],
      "name": "getFarmeraddress",
      "outputs": [
        {
          "internalType": "address",
          "name": "",
          "type": "address"
        }
      ],
      "stateMutability": "view",
      "type": "function"
    },
    {
      "inputs": [
        {
          "internalType": "address",
          "name": "_investor",
          "type": "address"
        }
      ],
      "name": "getInvestor",
      "outputs": [
        {
          "internalType": "bool",
          "name": "",
          "type": "bool"
        }
      ],
      "stateMutability": "view",
      "type": "function"
    },
    {
      "inputs": [
        {
          "internalType": "bool",
          "name": "_investmentStatus",
          "type": "bool"
        }
      ],
      "name": "setInvested",
      "outputs": [
        {
          "internalType": "bool",
          "name": "",
          "type": "bool"
        }
      ],
      "stateMutability": "nonpayable",
      "type": "function"
    },
    {
      "inputs": [
        {
          "internalType": "address payable",
          "name": "_newStrategy",
          "type": "address"
        }
      ],
      "name": "setStrategy",
      "outputs": [],
      "stateMutability": "nonpayable",
      "type": "function"
    },
    {
      "inputs": [],
      "name": "getStrategy",
      "outputs": [
        {
          "internalType": "address",
          "name": "",
          "type": "address"
        }
      ],
      "stateMutability": "view",
      "type": "function"
    },
    {
      "inputs": [
        {
          "internalType": "address",
          "name": "_investor",
          "type": "address"
        }
      ],
      "name": "getInvested",
      "outputs": [
        {
          "internalType": "uint256",
          "name": "",
          "type": "uint256"
        }
      ],
      "stateMutability": "view",
      "type": "function"
    },
    {
      "inputs": [],
      "name": "getInvested",
      "outputs": [
        {
          "internalType": "bool",
          "name": "",
          "type": "bool"
        }
      ],
      "stateMutability": "view",
      "type": "function"
    },
    {
      "inputs": [
        {
          "internalType": "uint256",
          "name": "_BUSDtokens",
          "type": "uint256"
        }
      ],
      "name": "depositLiquidity",
      "outputs": [
        {
          "internalType": "uint256",
          "name": "",
          "type": "uint256"
        }
      ],
      "stateMutability": "payable",
      "type": "function"
    },
    {
      "inputs": [],
      "name": "withdrawLiquidity",
      "outputs": [],
      "stateMutability": "nonpayable",
      "type": "function"
    },
    {
      "inputs": [],
      "name": "invest",
      "outputs": [],
      "stateMutability": "nonpayable",
      "type": "function"
    }
  ],
  "bytecode": "0x60806040819052600180546001600160a01b031990811673e9e7cea3dedca5984780bafc599bd69add087d5617918290556002805482166001600160a01b039390931692909217909155600b8054909116738345f3afa13a2acc4fcd55a173ea21078ad958e81790556200148738819003908190833981810160405260208110156200008a57600080fd5b8101908080516040519392919084640100000000821115620000ab57600080fd5b908301906020820185811115620000c157600080fd5b8251640100000000811182820188101715620000dc57600080fd5b82525081516020918201929091019080838360005b838110156200010b578181015183820152602001620000f1565b50505050905090810190601f168015620001395780820380516001836020036101000a031916815260200191505b50604090815233600090815260208181529190208054600160ff19918216811790911617905584516200017694506009935090850191506200019d565b5050600a80546001600160a01b031916331790556008805460ff60a01b1916905562000242565b828054600181600116156101000203166002900490600052602060002090601f016020900481019282601f10620001e057805160ff191683800117855562000210565b8280016001018555821562000210579182015b8281111562000210578251825591602001919060010190620001f3565b506200021e92915062000222565b5090565b6200023f91905b808211156200021e576000815560010162000229565b90565b61123580620002526000396000f3fe6080604052600436106100c75760003560e01c806307da0603146100d35780632ae2b6431461010457806333a100ca146101495780633ddb6e821461017e578063429b62e5146101935780636f7bc9be146101da578063704802751461020d57806376d58e1a146102405780637ea382c11461025d5780638f35a75e14610272578063a250165d146102a5578063acac59dc146102d1578063befc3e2b14610304578063c3305bb914610319578063e8b5e51f146103a3578063ec095107146103b8576100ce565b366100ce57005b600080fd5b3480156100df57600080fd5b506100e86103eb565b604080516001600160a01b039092168252519081900360200190f35b34801561011057600080fd5b506101376004803603602081101561012757600080fd5b50356001600160a01b03166103fa565b60408051918252519081900360200190f35b34801561015557600080fd5b5061017c6004803603602081101561016c57600080fd5b50356001600160a01b0316610415565b005b34801561018a57600080fd5b506100e8610486565b34801561019f57600080fd5b506101c6600480360360208110156101b657600080fd5b50356001600160a01b0316610495565b604080519115158252519081900360200190f35b3480156101e657600080fd5b506101c6600480360360208110156101fd57600080fd5b50356001600160a01b03166104aa565b34801561021957600080fd5b5061017c6004803603602081101561023057600080fd5b50356001600160a01b03166104bf565b6101376004803603602081101561025657600080fd5b5035610545565b34801561026957600080fd5b5061017c61064a565b34801561027e57600080fd5b506101c66004803603602081101561029557600080fd5b50356001600160a01b0316610a46565b3480156102b157600080fd5b506101c6600480360360208110156102c857600080fd5b50351515610a64565b3480156102dd57600080fd5b506101c6600480360360208110156102f457600080fd5b50356001600160a01b0316610af0565b34801561031057600080fd5b506101c6610b0e565b34801561032557600080fd5b5061032e610b1e565b6040805160208082528351818301528351919283929083019185019080838360005b83811015610368578181015183820152602001610350565b50505050905090810190601f1680156103955780820380516001836020036101000a031916815260200191505b509250505060405180910390f35b3480156103af57600080fd5b5061017c610bb4565b3480156103c457600080fd5b50610137600480360360208110156103db57600080fd5b50356001600160a01b0316610e83565b6006546001600160a01b031690565b6001600160a01b03166000908152600d602052604090205490565b6001600160a01b03811661045a5760405162461bcd60e51b81526004018080602001828103825260258152602001806111676025913960400191505060405180910390fd5b600680546001600160a01b039092166001600160a01b0319928316811790915560088054909216179055565b600a546001600160a01b031690565b60006020819052908152604090205460ff1681565b600c6020526000908152604090205460ff1681565b3360009081526020819052604090205460ff161515600114610521576040805162461bcd60e51b815260206004820152601660248201527513db9b1e4818591b5a5b8818d85b88191bc81d1a185d60521b604482015290519081900360640190fd5b6001600160a01b03166000908152602081905260409020805460ff19166001179055565b336000908152600c60205260408120805460ff19166001179055600554610572908363ffffffff610f0116565b600555336000908152600d6020526040902054610595908363ffffffff610f0116565b336000818152600d602090815260408083209490945560025484516323b872dd60e01b815260048101949094523060248501526044840187905293516001600160a01b03909416936323b872dd93606480820194918390030190829087803b15801561060057600080fd5b505af1158015610614573d6000803e3d6000fd5b505050506040513d602081101561062a57600080fd5b505161063557600080fd5b5050336000908152600d602052604090205490565b600854600160a01b900460ff16156106a9576040805162461bcd60e51b815260206004820152601e60248201527f706f6f6c20697320696e76657374656420617420746865206d6f6d656e740000604482015290519081900360640190fd5b336000818152600c60205260408120805460ff1916905590610751906106ce90610f62565b600254604080516370a0823160e01b815230600482015290516001600160a01b03909216916370a0823191602480820192602092909190829003018186803b15801561071957600080fd5b505afa15801561072d573d6000803e3d6000fd5b505050506040513d602081101561074357600080fd5b50519063ffffffff610f9016565b336000908152600d6020526040812054919250908211610772576000610785565b336000908152600d602052604090205482035b9050801561093557600254600a546001600160a01b03918216916323b872dd913091166107ca60646107be87600563ffffffff610f9016565b9063ffffffff610fe916565b6040518463ffffffff1660e01b815260040180846001600160a01b03166001600160a01b03168152602001836001600160a01b03166001600160a01b031681526020018281526020019350505050602060405180830381600087803b15801561083257600080fd5b505af1158015610846573d6000803e3d6000fd5b505050506040513d602081101561085c57600080fd5b505161086757600080fd5b600254600b546001600160a01b03918216916323b872dd9130911661089860646107be87600563ffffffff610f9016565b6040518463ffffffff1660e01b815260040180846001600160a01b03166001600160a01b03168152602001836001600160a01b03166001600160a01b031681526020018281526020019350505050602060405180830381600087803b15801561090057600080fd5b505af1158015610914573d6000803e3d6000fd5b505050506040513d602081101561092a57600080fd5b505161093557600080fd5b336000908152600d60205260409020546005546109579163ffffffff61102816565b600555336000818152600d60205260408120556002546001600160a01b0316906323b872dd9030906109a561099860646107be88600a63ffffffff610f9016565b879063ffffffff61102816565b6040518463ffffffff1660e01b815260040180846001600160a01b03166001600160a01b03168152602001836001600160a01b03166001600160a01b031681526020018281526020019350505050602060405180830381600087803b158015610a0d57600080fd5b505af1158015610a21573d6000803e3d6000fd5b505050506040513d6020811015610a3757600080fd5b5051610a4257600080fd5b5050565b6001600160a01b03166000908152600c602052604090205460ff1690565b3360009081526020819052604081205460ff16151560011480610a915750600a546001600160a01b031633145b610acc5760405162461bcd60e51b815260040180806020018281038252602c8152602001806111b3602c913960400191505060405180910390fd5b506008805460ff60a01b1916600160a01b9215158302179081905560ff9190041690565b6001600160a01b031660009081526020819052604090205460ff1690565b600854600160a01b900460ff1690565b60098054604080516020601f6002600019610100600188161502019095169490940493840181900481028201810190925282815260609390929091830182828015610baa5780601f10610b7f57610100808354040283529160200191610baa565b820191906000526020600020905b815481529060010190602001808311610b8d57829003601f168201915b5050505050905090565b600a546001600160a01b0316331480610be157503360009081526020819052604090205460ff1615156001145b610c1c5760405162461bcd60e51b815260040180806020018281038252602781526020018061118c6027913960400191505060405180910390fd5b600254600854604080516370a0823160e01b8152306004820181905291516001600160a01b03948516946323b872dd94169185916370a0823191602480820192602092909190829003018186803b158015610c7657600080fd5b505afa158015610c8a573d6000803e3d6000fd5b505050506040513d6020811015610ca057600080fd5b5051604080516001600160e01b031960e087901b1681526001600160a01b0394851660048201529290931660248301526044820152905160648083019260209291908290030181600087803b158015610cf857600080fd5b505af1158015610d0c573d6000803e3d6000fd5b505050506040513d6020811015610d2257600080fd5b5050600254600854604080516370a0823160e01b815230600482015290516001600160a01b039384169363095ea7b393169184916370a0823191602480820192602092909190829003018186803b158015610d7c57600080fd5b505afa158015610d90573d6000803e3d6000fd5b505050506040513d6020811015610da657600080fd5b5051604080516001600160e01b031960e086901b1681526001600160a01b03909316600484015260248301919091525160448083019260209291908290030181600087803b158015610df757600080fd5b505af1158015610e0b573d6000803e3d6000fd5b505050506040513d6020811015610e2157600080fd5b5050600854604080516384c4958360e01b815290516001600160a01b03909216916384c495839160048082019260009290919082900301818387803b158015610e6957600080fd5b505af1158015610e7d573d6000803e3d6000fd5b50505050565b604080516370a0823160e01b8152306004820152905160009183916001600160a01b038316916370a08231916024808301926020929190829003018186803b158015610ece57600080fd5b505afa158015610ee2573d6000803e3d6000fd5b505050506040513d6020811015610ef857600080fd5b50519392505050565b600082820183811015610f59576040805162461bcd60e51b815260206004820152601b60248201527a536166654d6174683a206164646974696f6e206f766572666c6f7760281b604482015290519081900360640190fd5b90505b92915050565b6005546001600160a01b0382166000908152600d60205260408120549091610f5c919063ffffffff610fe916565b600082610f9f57506000610f5c565b82820282848281610fac57fe5b0414610f595760405162461bcd60e51b81526004018080602001828103825260218152602001806111df6021913960400191505060405180910390fd5b6000610f5983836040518060400160405280601a815260200179536166654d6174683a206469766973696f6e206279207a65726f60301b81525061106a565b6000610f5983836040518060400160405280601e81526020017f536166654d6174683a207375627472616374696f6e206f766572666c6f77000081525061110c565b600081836110f65760405162461bcd60e51b81526004018080602001828103825283818151815260200191508051906020019080838360005b838110156110bb5781810151838201526020016110a3565b50505050905090810190601f1680156110e85780820380516001836020036101000a031916815260200191505b509250505060405180910390fd5b50600083858161110257fe5b0495945050505050565b6000818484111561115e5760405162461bcd60e51b81526020600482018181528351602484015283519092839260449091019190850190808383600083156110bb5781810151838201526020016110a3565b50505090039056fe6e657753747261746567792073686f756c6420626520612076616c69642061646472657373506f6f6c3a206f6e6c79207374726174656779206f722061646d696e2063616e20696e76657374506f6f6c3a206f6e6c7920616e20617070726f7072696174652073656e6465722063616e20646f2074686973536166654d6174683a206d756c7469706c69636174696f6e206f766572666c6f77a2646970667358221220e13f49adbff1fe865527acccb5b9fd5d35bcb68d510a267285c9867a3ef98e8364736f6c63430006090033",
  "immutableReferences": {},
  "source": "//SPDX-License-Identifier: MIT\npragma solidity ^0.6.9;\n\nimport \"./Controller.sol\";\nimport \"./SafeMathUpgradeable.sol\";\nimport \"./IBEP20.sol\";\nimport \"./Strategy.sol\";\n\n\n/**\n*   Farmer will create Pool Contract and later\n*   farmer will create/update strategy and assign\n*   strategy to Pool.\n*/\ncontract Pool is Controller{\n    using SafeMathUpgradeable for uint256;\n\n    address BUSD = 0xe9e7CEA3DedcA5984780Bafc599bD69ADd087D56;\n    IBEP20 private BUSDtoken = IBEP20(BUSD);\n    IBEP20 token;\n    uint256 private totalLiquidity;\n    uint256 private totalToken;\n    address payable strategy;\n    address poolOwner;\n    Strategy strategyInstance;\n    bool private invested;\n    string private farmerName;\n    address private farmer;\n    address private teamAddress = 0x8345F3AFa13a2ACC4fCd55A173eA21078aD958e8;\n    uint16 constant FARMER_REWARD = 5; // 5% of profit\n    uint16 constant TEAM_REWARD = 5; // 5% of profit\n\n    mapping (address => bool) public investors;\n    mapping (address => uint256) private liquidity;\n\n\n    constructor (string memory _farmerName)\n        public payable\n    {\n        admins[msg.sender]=true;\n        farmerName=_farmerName;\n        farmer=msg.sender;\n        invested=false;\n    }\n\n    /**\n     * @dev Get farmerName of the pool\n     */\n    function getFarmername()\n        external view\n        returns (string memory)\n    {\n        return farmerName;\n    }\n\n    /**\n     * @dev Get farmer Address of the pool\n     */\n    function getFarmeraddress()\n        external view\n        returns (address)\n    {\n        return farmer;\n    }\n\n\n    /**\n     * @dev Get Investor Status of the pool\n     * @param _investor Investor address\n     */\n    function getInvestor(\n        address _investor\n    )\n        external view\n        returns (bool)\n    {\n        return investors[_investor];\n    }\n\n    /**\n     * @dev Get amount of invested fund by Investor\n     * @param _investor Investor address\n     */\n    function getInvested(\n        address _investor\n    )\n        external view\n        returns (uint256)\n    {\n        return liquidity[_investor];\n    }\n\n    /**\n     * @dev update investment status and only been called by pool owner\n     * @param _investmentStatus Investment status\n     */\n    function setInvested(\n        bool _investmentStatus\n    )\n        external\n        returns (bool)\n    {\n        require(\n            (admins[msg.sender] == true) || (farmer == msg.sender),\n            \"Pool: only an appropriate sender can do this\"\n        );\n\n        invested = _investmentStatus;\n        return invested;\n    }\n\n    /**\n    * @dev Assign/update startegy to Pool\n    * @param _newStrategy new startegy address\n    */\n    function setStrategy(\n        address payable _newStrategy\n    )\n        external\n    {\n        require(\n            _newStrategy != address(0x0),\n            'newStrategy should be a valid address');\n\n        strategy = _newStrategy;\n        strategyInstance=Strategy(_newStrategy);\n    }\n\n    /**\n    * @dev return assigned strategy to the pool\n    */\n    function getStrategy()\n        external view\n        returns (address)\n    {\n        return strategy;\n    }\n\n    /**\n    * @dev return investment status to the pool\n    */\n    function getInvested()\n        public view\n        returns (bool)\n    {\n        return invested;\n    }\n\n\n    /**\n    * @dev user can deposit/Invest there Token to the pool\n    * @param _BUSDtokens amount of BUSD token to be invested in Pool\n    */\n    function depositLiquidity(\n        uint _BUSDtokens\n    )\n        external payable\n        returns (uint256)\n    {\n        investors[msg.sender]=true;\n        totalToken = totalToken.add(_BUSDtokens);\n        liquidity[msg.sender] = liquidity[msg.sender].add(_BUSDtokens);\n        require(BUSDtoken.transferFrom(msg.sender, address(this), _BUSDtokens));\n        return liquidity[msg.sender];\n    }\n\n    /**\n     * @dev user can withdraw Invested amount to the Pool\n     */\n    function withdrawLiquidity()\n        external\n    {\n        require(\n            invested == false,\n            \"pool is invested at the moment\"\n        );\n        investors[msg.sender]=false;\n        uint256 BUSDshare = BUSDtoken.balanceOf(address(this)).mul(getRatio(msg.sender));\n        uint256 profit = BUSDshare > liquidity[msg.sender] ?\n                            BUSDshare - liquidity[msg.sender] :\n                            0;\n\n        if (profit > 0)\n        {\n            /* Share 5% of profit amount to Farmer as farmerReward */\n            require(BUSDtoken.transferFrom( address(this), farmer,\n                        profit.mul(FARMER_REWARD).div(100)));\n\n            /* Share 5% of profit amount to TEAM as commission */\n            require(BUSDtoken.transferFrom( address(this), teamAddress,\n                        profit.mul(TEAM_REWARD).div(100)));\n        }\n\n        totalToken=totalToken.sub(liquidity[msg.sender]);\n        liquidity[msg.sender] = 0;\n\n        require(BUSDtoken.transferFrom( address(this), msg.sender,\n                    BUSDshare.sub(profit.mul(FARMER_REWARD + TEAM_REWARD).div(100))));\n    }\n\n    /**\n    * @dev amount of share in pool\n    * @param _user investor address who has invested token in Pool\n    */\n    function getRatio(\n        address _user\n    )\n        internal view\n        returns (uint256 ratio)\n    {\n        ratio = liquidity[_user].div(totalToken);\n    }\n\n    /**\n    * @dev transfer all liquid BUSD token to strategy contract for further investment\n    */\n    function invest()\n        external\n    {\n        require(\n            farmer == msg.sender || admins[msg.sender] == true,\n            \"Pool: only strategy or admin can invest\"\n        );\n\n        BUSDtoken.transferFrom(address(this),address(strategyInstance),BUSDtoken.balanceOf(address(this)));\n        BUSDtoken.approve(address(strategyInstance),BUSDtoken.balanceOf(address(this)));\n        strategyInstance.runStrategy();\n    }\n}\n",
  "sourcePath": "/home/alp/proj/don-key/smartcontracts/contracts/Pool.sol",
  "compiler": {
    "name": "solc",
    "version": "0.6.9+commit.3e3065ac.Emscripten.clang"
  },
  "schemaVersion": "3.3.4",
  "updatedAt": "2021-04-14T12:18:44.615Z",
  "devdoc": {
    "methods": {
      "depositLiquidity(uint256)": {
        "details": "user can deposit/Invest there Token to the pool",
        "params": {
          "_BUSDtokens": "amount of BUSD token to be invested in Pool"
        }
      },
      "getFarmeraddress()": {
        "details": "Get farmer Address of the pool"
      },
      "getFarmername()": {
        "details": "Get farmerName of the pool"
      },
      "getInvested()": {
        "details": "return investment status to the pool"
      },
      "getInvested(address)": {
        "details": "Get amount of invested fund by Investor",
        "params": {
          "_investor": "Investor address"
        }
      },
      "getInvestor(address)": {
        "details": "Get Investor Status of the pool",
        "params": {
          "_investor": "Investor address"
        }
      },
      "getStrategy()": {
        "details": "return assigned strategy to the pool"
      },
      "invest()": {
        "details": "transfer all liquid BUSD token to strategy contract for further investment"
      },
      "setInvested(bool)": {
        "details": "update investment status and only been called by pool owner",
        "params": {
          "_investmentStatus": "Investment status"
        }
      },
      "setStrategy(address)": {
        "details": "Assign/update startegy to Pool",
        "params": {
          "_newStrategy": "new startegy address"
        }
      },
      "withdrawLiquidity()": {
        "details": "user can withdraw Invested amount to the Pool"
      }
    }
  },
  "userdoc": {
    "methods": {},
    "notice": "Farmer will create Pool Contract and later   farmer will create/update strategy and assign   strategy to Pool."
  }
}