{
  "contractName": "POOL",
  "abi": [
    {
      "inputs": [],
      "stateMutability": "payable",
      "type": "constructor",
      "payable": true
    },
    {
      "inputs": [
        {
          "internalType": "address",
          "name": "admin",
          "type": "address"
        }
      ],
      "name": "addAdmin",
      "outputs": [],
      "stateMutability": "nonpayable",
      "type": "function"
    },
    {
      "inputs": [
        {
          "internalType": "address",
          "name": "",
          "type": "address"
        }
      ],
      "name": "admins",
      "outputs": [
        {
          "internalType": "bool",
          "name": "",
          "type": "bool"
        }
      ],
      "stateMutability": "view",
      "type": "function",
      "constant": true
    },
    {
      "inputs": [
        {
          "internalType": "address",
          "name": "check",
          "type": "address"
        }
      ],
      "name": "checkadmin",
      "outputs": [
        {
          "internalType": "bool",
          "name": "",
          "type": "bool"
        }
      ],
      "stateMutability": "view",
      "type": "function",
      "constant": true
    },
    {
      "inputs": [],
      "name": "getBNB",
      "outputs": [
        {
          "internalType": "uint256",
          "name": "",
          "type": "uint256"
        }
      ],
      "stateMutability": "view",
      "type": "function",
      "constant": true
    },
    {
      "inputs": [
        {
          "internalType": "address",
          "name": "token",
          "type": "address"
        }
      ],
      "name": "getTOKEN",
      "outputs": [
        {
          "internalType": "uint256",
          "name": "",
          "type": "uint256"
        }
      ],
      "stateMutability": "view",
      "type": "function",
      "constant": true
    },
    {
      "inputs": [
        {
          "internalType": "address",
          "name": "",
          "type": "address"
        }
      ],
      "name": "liquidity",
      "outputs": [
        {
          "internalType": "uint256",
          "name": "",
          "type": "uint256"
        }
      ],
      "stateMutability": "view",
      "type": "function",
      "constant": true
    },
    {
      "inputs": [],
      "name": "returnBNB",
      "outputs": [],
      "stateMutability": "nonpayable",
      "type": "function"
    },
    {
      "inputs": [
        {
          "internalType": "address",
          "name": "token",
          "type": "address"
        }
      ],
      "name": "returnTOKEN",
      "outputs": [],
      "stateMutability": "nonpayable",
      "type": "function"
    },
    {
      "inputs": [],
      "name": "totalLiquidity",
      "outputs": [
        {
          "internalType": "uint256",
          "name": "",
          "type": "uint256"
        }
      ],
      "stateMutability": "view",
      "type": "function",
      "constant": true
    },
    {
      "inputs": [
        {
          "internalType": "address",
          "name": "token",
          "type": "address"
        },
        {
          "internalType": "address",
          "name": "nextCube",
          "type": "address"
        },
        {
          "internalType": "uint256",
          "name": "amount",
          "type": "uint256"
        }
      ],
      "name": "transferNextcube",
      "outputs": [],
      "stateMutability": "nonpayable",
      "type": "function"
    },
    {
      "stateMutability": "payable",
      "type": "receive",
      "payable": true
    },
    {
      "inputs": [
        {
          "internalType": "uint256",
          "name": "WBNBtokens",
          "type": "uint256"
        }
      ],
      "name": "init",
      "outputs": [
        {
          "internalType": "uint256",
          "name": "",
          "type": "uint256"
        }
      ],
      "stateMutability": "payable",
      "type": "function",
      "payable": true
    },
    {
      "inputs": [
        {
          "internalType": "uint256",
          "name": "input_amount",
          "type": "uint256"
        },
        {
          "internalType": "uint256",
          "name": "input_reserve",
          "type": "uint256"
        },
        {
          "internalType": "uint256",
          "name": "output_reserve",
          "type": "uint256"
        }
      ],
      "name": "price",
      "outputs": [
        {
          "internalType": "uint256",
          "name": "",
          "type": "uint256"
        }
      ],
      "stateMutability": "view",
      "type": "function",
      "constant": true
    },
    {
      "inputs": [],
      "name": "getWBNB",
      "outputs": [
        {
          "internalType": "uint256",
          "name": "",
          "type": "uint256"
        }
      ],
      "stateMutability": "view",
      "type": "function",
      "constant": true
    },
    {
      "inputs": [],
      "name": "getToken",
      "outputs": [
        {
          "internalType": "uint256",
          "name": "",
          "type": "uint256"
        }
      ],
      "stateMutability": "view",
      "type": "function",
      "constant": true
    },
    {
      "inputs": [
        {
          "internalType": "address",
          "name": "user",
          "type": "address"
        }
      ],
      "name": "getliquiduty",
      "outputs": [
        {
          "internalType": "uint256",
          "name": "",
          "type": "uint256"
        }
      ],
      "stateMutability": "view",
      "type": "function",
      "constant": true
    },
    {
      "inputs": [
        {
          "internalType": "bool",
          "name": "investmentStatus",
          "type": "bool"
        }
      ],
      "name": "setInvested",
      "outputs": [
        {
          "internalType": "bool",
          "name": "",
          "type": "bool"
        }
      ],
      "stateMutability": "nonpayable",
      "type": "function"
    },
    {
      "inputs": [
        {
          "internalType": "address payable",
          "name": "newStrategy",
          "type": "address"
        }
      ],
      "name": "setStrategy",
      "outputs": [
        {
          "internalType": "address",
          "name": "",
          "type": "address"
        }
      ],
      "stateMutability": "nonpayable",
      "type": "function"
    },
    {
      "inputs": [
        {
          "internalType": "address",
          "name": "newStrategy",
          "type": "address"
        }
      ],
      "name": "getStrategy",
      "outputs": [
        {
          "internalType": "address",
          "name": "",
          "type": "address"
        }
      ],
      "stateMutability": "view",
      "type": "function",
      "constant": true
    },
    {
      "inputs": [],
      "name": "gettInvested",
      "outputs": [
        {
          "internalType": "bool",
          "name": "",
          "type": "bool"
        }
      ],
      "stateMutability": "view",
      "type": "function",
      "constant": true
    },
    {
      "inputs": [
        {
          "internalType": "uint256",
          "name": "WBNBtokens",
          "type": "uint256"
        }
      ],
      "name": "depositLiquidity",
      "outputs": [
        {
          "internalType": "uint256",
          "name": "",
          "type": "uint256"
        }
      ],
      "stateMutability": "payable",
      "type": "function",
      "payable": true
    },
    {
      "inputs": [
        {
          "internalType": "uint256",
          "name": "amount",
          "type": "uint256"
        }
      ],
      "name": "withdrawLiquidity",
      "outputs": [
        {
          "internalType": "uint256",
          "name": "",
          "type": "uint256"
        }
      ],
      "stateMutability": "nonpayable",
      "type": "function"
    },
    {
      "inputs": [],
      "name": "Invest",
      "outputs": [],
      "stateMutability": "nonpayable",
      "type": "function"
    }
  ],
  "bytecode": "0x608060405273bb4cdb9cbd36b01bd1cbaebf2de08d9173bc095c600460006101000a81548173ffffffffffffffffffffffffffffffffffffffff021916908373ffffffffffffffffffffffffffffffffffffffff160217905550600460009054906101000a900473ffffffffffffffffffffffffffffffffffffffff16600560006101000a81548173ffffffffffffffffffffffffffffffffffffffff021916908373ffffffffffffffffffffffffffffffffffffffff16021790555060016000803373ffffffffffffffffffffffffffffffffffffffff1673ffffffffffffffffffffffffffffffffffffffff16815260200190815260200160002060006101000a81548160ff02191690831515021790555060016000803373ffffffffffffffffffffffffffffffffffffffff1673ffffffffffffffffffffffffffffffffffffffff16815260200190815260200160002060006101000a81548160ff0219169083151502179055506000600560146101000a81548160ff021916908315150217905550611f72806101946000396000f3fe6080604052600436106101395760003560e01c806378a619de116100ab578063b8c876b11161006f578063b8c876b1146105fd578063c081996114610662578063d20f9cce14610679578063e7af9383146106a8578063ec09510714610723578063f8806a131461078857610140565b806378a619de146104bb5780638a354b65146104e6578063a250165d146104fd578063acac59dc14610552578063b7b0422d146105bb57610140565b806333a100ca116100fd57806333a100ca1461029e578063429b62e51461032f5780636ac3861a1461039857806370480275146103c357806376d58e1a146104145780637755c5cd1461045657610140565b80630a861f2a1461014557806315770f92146101945780631d3ceedc146101bf5780632071a9f41461021057806321df0da71461027357610140565b3661014057005b600080fd5b34801561015157600080fd5b5061017e6004803603602081101561016857600080fd5b8101908080359060200190929190505050610819565b6040518082815260200191505060405180910390f35b3480156101a057600080fd5b506101a9610950565b6040518082815260200191505060405180910390f35b3480156101cb57600080fd5b5061020e600480360360208110156101e257600080fd5b81019080803573ffffffffffffffffffffffffffffffffffffffff169060200190929190505050610956565b005b34801561021c57600080fd5b5061025d6004803603606081101561023357600080fd5b81019080803590602001909291908035906020019092919080359060200190929190505050610cc7565b6040518082815260200191505060405180910390f35b34801561027f57600080fd5b50610288610d39565b6040518082815260200191505060405180910390f35b3480156102aa57600080fd5b506102ed600480360360208110156102c157600080fd5b81019080803573ffffffffffffffffffffffffffffffffffffffff169060200190929190505050610e1a565b604051808273ffffffffffffffffffffffffffffffffffffffff1673ffffffffffffffffffffffffffffffffffffffff16815260200191505060405180910390f35b34801561033b57600080fd5b5061037e6004803603602081101561035257600080fd5b81019080803573ffffffffffffffffffffffffffffffffffffffff169060200190929190505050610efb565b604051808215151515815260200191505060405180910390f35b3480156103a457600080fd5b506103ad610f1b565b6040518082815260200191505060405180910390f35b3480156103cf57600080fd5b50610412600480360360208110156103e657600080fd5b81019080803573ffffffffffffffffffffffffffffffffffffffff169060200190929190505050610ffc565b005b6104406004803603602081101561042a57600080fd5b81019080803590602001909291905050506110ca565b6040518082815260200191505060405180910390f35b34801561046257600080fd5b506104a56004803603602081101561047957600080fd5b81019080803573ffffffffffffffffffffffffffffffffffffffff169060200190929190505050611202565b6040518082815260200191505060405180910390f35b3480156104c757600080fd5b506104d061120e565b6040518082815260200191505060405180910390f35b3480156104f257600080fd5b506104fb611216565b005b34801561050957600080fd5b506105386004803603602081101561052057600080fd5b810190808035151590602001909291905050506112d3565b604051808215151515815260200191505060405180910390f35b34801561055e57600080fd5b506105a16004803603602081101561057557600080fd5b81019080803573ffffffffffffffffffffffffffffffffffffffff169060200190929190505050611406565b604051808215151515815260200191505060405180910390f35b6105e7600480360360208110156105d157600080fd5b810190808035906020019092919050505061145b565b6040518082815260200191505060405180910390f35b34801561060957600080fd5b5061064c6004803603602081101561062057600080fd5b81019080803573ffffffffffffffffffffffffffffffffffffffff1690602001909291905050506116ae565b6040518082815260200191505060405180910390f35b34801561066e57600080fd5b506106776116c6565b005b34801561068557600080fd5b5061068e611a78565b604051808215151515815260200191505060405180910390f35b3480156106b457600080fd5b50610721600480360360608110156106cb57600080fd5b81019080803573ffffffffffffffffffffffffffffffffffffffff169060200190929190803573ffffffffffffffffffffffffffffffffffffffff16906020019092919080359060200190929190505050611a8f565b005b34801561072f57600080fd5b506107726004803603602081101561074657600080fd5b81019080803573ffffffffffffffffffffffffffffffffffffffff169060200190929190505050611cc8565b6040518082815260200191505060405180910390f35b34801561079457600080fd5b506107d7600480360360208110156107ab57600080fd5b81019080803573ffffffffffffffffffffffffffffffffffffffff169060200190929190505050611d8e565b604051808273ffffffffffffffffffffffffffffffffffffffff1673ffffffffffffffffffffffffffffffffffffffff16815260200191505060405180910390f35b6000600560009054906101000a900473ffffffffffffffffffffffffffffffffffffffff1673ffffffffffffffffffffffffffffffffffffffff166323b872dd30336002546040518463ffffffff1660e01b8152600401808473ffffffffffffffffffffffffffffffffffffffff1673ffffffffffffffffffffffffffffffffffffffff1681526020018373ffffffffffffffffffffffffffffffffffffffff1673ffffffffffffffffffffffffffffffffffffffff1681526020018281526020019350505050602060405180830381600087803b1580156108fa57600080fd5b505af115801561090e573d6000803e3d6000fd5b505050506040513d602081101561092457600080fd5b810190808051906020019092919050505061093e57600080fd5b60006002819055506002549050919050565b60025481565b60016109ca576040517f08c379a00000000000000000000000000000000000000000000000000000000081526004018080602001828103825260168152602001807f4f6e6c792061646d696e2063616e20646f20746861740000000000000000000081525060200191505060405180910390fd5b60008190508073ffffffffffffffffffffffffffffffffffffffff1663095ea7b3308373ffffffffffffffffffffffffffffffffffffffff166370a08231306040518263ffffffff1660e01b8152600401808273ffffffffffffffffffffffffffffffffffffffff1673ffffffffffffffffffffffffffffffffffffffff16815260200191505060206040518083038186803b158015610a6957600080fd5b505afa158015610a7d573d6000803e3d6000fd5b505050506040513d6020811015610a9357600080fd5b81019080805190602001909291905050506040518363ffffffff1660e01b8152600401808373ffffffffffffffffffffffffffffffffffffffff1673ffffffffffffffffffffffffffffffffffffffff16815260200182815260200192505050602060405180830381600087803b158015610b0d57600080fd5b505af1158015610b21573d6000803e3d6000fd5b505050506040513d6020811015610b3757600080fd5b8101908080519060200190929190505050508073ffffffffffffffffffffffffffffffffffffffff1663a9059cbb338373ffffffffffffffffffffffffffffffffffffffff166370a08231306040518263ffffffff1660e01b8152600401808273ffffffffffffffffffffffffffffffffffffffff1673ffffffffffffffffffffffffffffffffffffffff16815260200191505060206040518083038186803b158015610be357600080fd5b505afa158015610bf7573d6000803e3d6000fd5b505050506040513d6020811015610c0d57600080fd5b81019080805190602001909291905050506040518363ffffffff1660e01b8152600401808373ffffffffffffffffffffffffffffffffffffffff1673ffffffffffffffffffffffffffffffffffffffff16815260200182815260200192505050602060405180830381600087803b158015610c8757600080fd5b505af1158015610c9b573d6000803e3d6000fd5b505050506040513d6020811015610cb157600080fd5b8101908080519060200190929190505050505050565b600080610cdf6103e586611dba90919063ffffffff16565b90506000610cf68483611dba90919063ffffffff16565b90506000610d2183610d136103e889611dba90919063ffffffff16565b611e4090919063ffffffff16565b9050808281610d2c57fe5b0493505050509392505050565b6000600160009054906101000a900473ffffffffffffffffffffffffffffffffffffffff1673ffffffffffffffffffffffffffffffffffffffff166370a08231306040518263ffffffff1660e01b8152600401808273ffffffffffffffffffffffffffffffffffffffff1673ffffffffffffffffffffffffffffffffffffffff16815260200191505060206040518083038186803b158015610dda57600080fd5b505afa158015610dee573d6000803e3d6000fd5b505050506040513d6020811015610e0457600080fd5b8101908080519060200190929190505050905090565b60006001610e90576040517f08c379a00000000000000000000000000000000000000000000000000000000081526004018080602001828103825260168152602001807f4f6e6c792061646d696e2063616e20646f20746861740000000000000000000081525060200191505060405180910390fd5b81600660006101000a81548173ffffffffffffffffffffffffffffffffffffffff021916908373ffffffffffffffffffffffffffffffffffffffff160217905550600660009054906101000a900473ffffffffffffffffffffffffffffffffffffffff169050919050565b60006020528060005260406000206000915054906101000a900460ff1681565b6000600560009054906101000a900473ffffffffffffffffffffffffffffffffffffffff1673ffffffffffffffffffffffffffffffffffffffff166370a08231306040518263ffffffff1660e01b8152600401808273ffffffffffffffffffffffffffffffffffffffff1673ffffffffffffffffffffffffffffffffffffffff16815260200191505060206040518083038186803b158015610fbc57600080fd5b505afa158015610fd0573d6000803e3d6000fd5b505050506040513d6020811015610fe657600080fd5b8101908080519060200190929190505050905090565b6001611070576040517f08c379a00000000000000000000000000000000000000000000000000000000081526004018080602001828103825260168152602001807f4f6e6c792061646d696e2063616e20646f20746861740000000000000000000081525060200191505060405180910390fd5b60016000808373ffffffffffffffffffffffffffffffffffffffff1673ffffffffffffffffffffffffffffffffffffffff16815260200190815260200160002060006101000a81548160ff02191690831515021790555050565b6000600560009054906101000a900473ffffffffffffffffffffffffffffffffffffffff1673ffffffffffffffffffffffffffffffffffffffff166323b872dd3330856040518463ffffffff1660e01b8152600401808473ffffffffffffffffffffffffffffffffffffffff1673ffffffffffffffffffffffffffffffffffffffff1681526020018373ffffffffffffffffffffffffffffffffffffffff1673ffffffffffffffffffffffffffffffffffffffff1681526020018281526020019350505050602060405180830381600087803b1580156111a957600080fd5b505af11580156111bd573d6000803e3d6000fd5b505050506040513d60208110156111d357600080fd5b81019080805190602001909291905050506111ed57600080fd5b81600254016002819055506002549050919050565b60006002549050919050565b600047905090565b600161128a576040517f08c379a00000000000000000000000000000000000000000000000000000000081526004018080602001828103825260168152602001807f4f6e6c792061646d696e2063616e20646f20746861740000000000000000000081525060200191505060405180910390fd5b3373ffffffffffffffffffffffffffffffffffffffff166108fc479081150290604051600060405180830381858888f193505050501580156112d0573d6000803e3d6000fd5b50565b6000600115156000803373ffffffffffffffffffffffffffffffffffffffff1673ffffffffffffffffffffffffffffffffffffffff16815260200190815260200160002060009054906101000a900460ff16151514806113805750600660009054906101000a900473ffffffffffffffffffffffffffffffffffffffff1673ffffffffffffffffffffffffffffffffffffffff163373ffffffffffffffffffffffffffffffffffffffff16145b6113d5576040517f08c379a000000000000000000000000000000000000000000000000000000000815260040180806020018281038252602c815260200180611f11602c913960400191505060405180910390fd5b81600560146101000a81548160ff021916908315150217905550600560149054906101000a900460ff169050919050565b60008060008373ffffffffffffffffffffffffffffffffffffffff1673ffffffffffffffffffffffffffffffffffffffff16815260200190815260200160002060009054906101000a900460ff169050919050565b6000600560009054906101000a900473ffffffffffffffffffffffffffffffffffffffff1673ffffffffffffffffffffffffffffffffffffffff166323b872dd3330856040518463ffffffff1660e01b8152600401808473ffffffffffffffffffffffffffffffffffffffff1673ffffffffffffffffffffffffffffffffffffffff1681526020018373ffffffffffffffffffffffffffffffffffffffff1673ffffffffffffffffffffffffffffffffffffffff1681526020018281526020019350505050602060405180830381600087803b15801561153a57600080fd5b505af115801561154e573d6000803e3d6000fd5b505050506040513d602081101561156457600080fd5b810190808051906020019092919050505061157e57600080fd5b600560009054906101000a900473ffffffffffffffffffffffffffffffffffffffff1673ffffffffffffffffffffffffffffffffffffffff166370a08231306040518263ffffffff1660e01b8152600401808273ffffffffffffffffffffffffffffffffffffffff1673ffffffffffffffffffffffffffffffffffffffff16815260200191505060206040518083038186803b15801561161d57600080fd5b505afa158015611631573d6000803e3d6000fd5b505050506040513d602081101561164757600080fd5b8101908080519060200190929190505050600281905550600254600360003373ffffffffffffffffffffffffffffffffffffffff1673ffffffffffffffffffffffffffffffffffffffff168152602001908152602001600020819055506002549050919050565b60036020528060005260406000206000915090505481565b6000600254141561173f576040517f08c379a00000000000000000000000000000000000000000000000000000000081526004018080602001828103825260198152602001807f504f4f4c3a6e6f206c697175696469747920696e20706f6f6c0000000000000081525060200191505060405180910390fd5b600660009054906101000a900473ffffffffffffffffffffffffffffffffffffffff1673ffffffffffffffffffffffffffffffffffffffff163373ffffffffffffffffffffffffffffffffffffffff1614806117ea5750600115156000803373ffffffffffffffffffffffffffffffffffffffff1673ffffffffffffffffffffffffffffffffffffffff16815260200190815260200160002060009054906101000a900460ff161515145b61183f576040517f08c379a0000000000000000000000000000000000000000000000000000000008152600401808060200182810382526027815260200180611ec96027913960400191505060405180910390fd5b600560009054906101000a900473ffffffffffffffffffffffffffffffffffffffff1673ffffffffffffffffffffffffffffffffffffffff166323b872dd30600660009054906101000a900473ffffffffffffffffffffffffffffffffffffffff16600560009054906101000a900473ffffffffffffffffffffffffffffffffffffffff1673ffffffffffffffffffffffffffffffffffffffff166370a08231306040518263ffffffff1660e01b8152600401808273ffffffffffffffffffffffffffffffffffffffff1673ffffffffffffffffffffffffffffffffffffffff16815260200191505060206040518083038186803b15801561194057600080fd5b505afa158015611954573d6000803e3d6000fd5b505050506040513d602081101561196a57600080fd5b81019080805190602001909291905050506040518463ffffffff1660e01b8152600401808473ffffffffffffffffffffffffffffffffffffffff1673ffffffffffffffffffffffffffffffffffffffff1681526020018373ffffffffffffffffffffffffffffffffffffffff1673ffffffffffffffffffffffffffffffffffffffff1681526020018281526020019350505050602060405180830381600087803b158015611a1757600080fd5b505af1158015611a2b573d6000803e3d6000fd5b505050506040513d6020811015611a4157600080fd5b8101908080519060200190929190505050506001600560146101000a81548160ff0219169083151502179055506000600281905550565b6000600560149054906101000a900460ff16905090565b6001611b03576040517f08c379a00000000000000000000000000000000000000000000000000000000081526004018080602001828103825260168152602001807f4f6e6c792061646d696e2063616e20646f20746861740000000000000000000081525060200191505060405180910390fd5b60008390508073ffffffffffffffffffffffffffffffffffffffff1663095ea7b330846040518363ffffffff1660e01b8152600401808373ffffffffffffffffffffffffffffffffffffffff1673ffffffffffffffffffffffffffffffffffffffff16815260200182815260200192505050602060405180830381600087803b158015611b8f57600080fd5b505af1158015611ba3573d6000803e3d6000fd5b505050506040513d6020811015611bb957600080fd5b8101908080519060200190929190505050508073ffffffffffffffffffffffffffffffffffffffff166323b872dd3085856040518463ffffffff1660e01b8152600401808473ffffffffffffffffffffffffffffffffffffffff1673ffffffffffffffffffffffffffffffffffffffff1681526020018373ffffffffffffffffffffffffffffffffffffffff1673ffffffffffffffffffffffffffffffffffffffff1681526020018281526020019350505050602060405180830381600087803b158015611c8657600080fd5b505af1158015611c9a573d6000803e3d6000fd5b505050506040513d6020811015611cb057600080fd5b81019080805190602001909291905050505050505050565b6000808290508073ffffffffffffffffffffffffffffffffffffffff166370a08231306040518263ffffffff1660e01b8152600401808273ffffffffffffffffffffffffffffffffffffffff1673ffffffffffffffffffffffffffffffffffffffff16815260200191505060206040518083038186803b158015611d4b57600080fd5b505afa158015611d5f573d6000803e3d6000fd5b505050506040513d6020811015611d7557600080fd5b8101908080519060200190929190505050915050919050565b6000600660009054906101000a900473ffffffffffffffffffffffffffffffffffffffff169050919050565b600080831415611dcd5760009050611e3a565b6000828402905082848281611dde57fe5b0414611e35576040517f08c379a0000000000000000000000000000000000000000000000000000000008152600401808060200182810382526021815260200180611ef06021913960400191505060405180910390fd5b809150505b92915050565b600080828401905083811015611ebe576040517f08c379a000000000000000000000000000000000000000000000000000000000815260040180806020018281038252601b8152602001807f536166654d6174683a206164646974696f6e206f766572666c6f77000000000081525060200191505060405180910390fd5b809150509291505056fe504f4f4c3a206f6e6c79207374726174656779206f722061646d696e2063616e20696e76657374536166654d6174683a206d756c7469706c69636174696f6e206f766572666c6f77504f4f4c3a206f6e6c7920616e20617070726f7072696174652073656e6465722063616e20646f2074686973a264697066735822122015958bc8de3b267130f55350af59dee4d02415a340dbe8267e52c213c8475fea64736f6c63430006090033",
  "immutableReferences": {},
  "source": "//SPDX-License-Identifier: MIT\r\npragma solidity ^0.6.9;\r\n\r\nimport \"./Cube.sol\";\r\nimport \"../contracts/interfaces/SafeMathUpgradeable.sol\";\r\nimport \"../contracts/interfaces/BEP20/IBEP20.sol\";\r\n\r\ncontract POOL is Cube {\r\n    using SafeMathUpgradeable for uint256;\r\n    IBEP20 token;\r\n    uint256 public totalLiquidity;\r\n    mapping(address => uint256) public liquidity;\r\n\r\n    address WBNB = 0xbb4CdB9CBd36B01bD1cBaEBF2De08d9173bc095c;\r\n    IBEP20 private WBNBtoken = IBEP20(WBNB);\r\n    bool invested;\r\n    address payable strategy;\r\n\r\n    constructor() public payable {\r\n        admins[msg.sender] = true;\r\n        invested = false;\r\n    }\r\n\r\n    function init(uint256 WBNBtokens) public payable returns (uint256) {\r\n        require(WBNBtoken.transferFrom(msg.sender, address(this), WBNBtokens));\r\n        totalLiquidity = WBNBtoken.balanceOf(address(this));\r\n        liquidity[msg.sender] = totalLiquidity;\r\n\r\n        return totalLiquidity;\r\n    }\r\n\r\n    function price(\r\n        uint256 input_amount,\r\n        uint256 input_reserve,\r\n        uint256 output_reserve\r\n    ) public view returns (uint256) {\r\n        uint256 input_amount_with_fee = input_amount.mul(997);\r\n        uint256 numerator = input_amount_with_fee.mul(output_reserve);\r\n        uint256 denominator =\r\n            input_reserve.mul(1000).add(input_amount_with_fee);\r\n        return numerator / denominator;\r\n    }\r\n\r\n    function getWBNB() public view returns (uint256) {\r\n        return WBNBtoken.balanceOf(address(this));\r\n    }\r\n\r\n    function getToken() public view returns (uint256) {\r\n        return token.balanceOf(address(this));\r\n    }\r\n\r\n    function getliquiduty(address user) public view returns (uint256) {\r\n        return totalLiquidity;\r\n    }\r\n\r\n    function setInvested(bool investmentStatus) public returns (bool) {\r\n        require(\r\n            (admins[msg.sender] == true) || (msg.sender == strategy),\r\n            \"POOL: only an appropriate sender can do this\"\r\n        );\r\n        invested = investmentStatus;\r\n        return invested;\r\n    }\r\n\r\n    function setStrategy(address payable newStrategy)\r\n        public\r\n        onlyAdmin\r\n        returns (address)\r\n    {\r\n        strategy = newStrategy;\r\n        return strategy;\r\n    }\r\n\r\n    function getStrategy(address newStrategy) public view returns (address) {\r\n        return strategy;\r\n    }\r\n\r\n    function gettInvested() public view returns (bool) {\r\n        return invested;\r\n    }\r\n\r\n    function depositLiquidity(uint256 WBNBtokens)\r\n        public\r\n        payable\r\n        returns (uint256)\r\n    {\r\n        require(WBNBtoken.transferFrom(msg.sender, address(this), WBNBtokens));\r\n        totalLiquidity = totalLiquidity + WBNBtokens;\r\n\r\n        return totalLiquidity;\r\n    }\r\n\r\n    function withdrawLiquidity(uint256 amount)\r\n        public\r\n        returns (uint256)\r\n    {\r\n        require(\r\n            WBNBtoken.transferFrom(address(this), msg.sender, totalLiquidity)\r\n        );\r\n        totalLiquidity = 0;\r\n        return (totalLiquidity);\r\n    }\r\n\r\n    function Invest() public {\r\n        require(totalLiquidity != 0, \"POOL:no liquidity in pool\");\r\n        require(\r\n            msg.sender == strategy || admins[msg.sender] == true,\r\n            \"POOL: only strategy or admin can invest\"\r\n        );\r\n        WBNBtoken.transferFrom(\r\n            address(this),\r\n            strategy,\r\n            WBNBtoken.balanceOf(address(this))\r\n        );\r\n        invested = true;\r\n        totalLiquidity = 0;\r\n    }\r\n}\r\n",
  "sourcePath": "C:/by/solidity_copy/contracts/POOL.sol",
  "compiler": {
    "name": "solc",
    "version": "0.6.9+commit.3e3065ac.Emscripten.clang"
  },
  "schemaVersion": "3.3.3",
  "updatedAt": "2021-03-19T10:05:44.824Z",
  "networkType": "ethereum",
  "devdoc": {
    "methods": {}
  },
  "userdoc": {
    "methods": {}
  }
}