{
  "contractName": "Pool",
  "abi": [
    {
      "inputs": [],
      "stateMutability": "payable",
      "type": "constructor"
    },
    {
      "inputs": [
        {
          "internalType": "address",
          "name": "admin",
          "type": "address"
        }
      ],
      "name": "addAdmin",
      "outputs": [],
      "stateMutability": "nonpayable",
      "type": "function"
    },
    {
      "inputs": [
        {
          "internalType": "address",
          "name": "",
          "type": "address"
        }
      ],
      "name": "admins",
      "outputs": [
        {
          "internalType": "bool",
          "name": "",
          "type": "bool"
        }
      ],
      "stateMutability": "view",
      "type": "function"
    },
    {
      "inputs": [
        {
          "internalType": "address",
          "name": "check",
          "type": "address"
        }
      ],
      "name": "checkadmin",
      "outputs": [
        {
          "internalType": "bool",
          "name": "",
          "type": "bool"
        }
      ],
      "stateMutability": "view",
      "type": "function"
    },
    {
      "inputs": [
        {
          "internalType": "address",
          "name": "token",
          "type": "address"
        }
      ],
      "name": "getTOKEN",
      "outputs": [
        {
          "internalType": "uint256",
          "name": "",
          "type": "uint256"
        }
      ],
      "stateMutability": "view",
      "type": "function"
    },
    {
      "inputs": [
        {
          "internalType": "address",
          "name": "",
          "type": "address"
        }
      ],
      "name": "investors",
      "outputs": [
        {
          "internalType": "bool",
          "name": "",
          "type": "bool"
        }
      ],
      "stateMutability": "view",
      "type": "function"
    },
    {
      "stateMutability": "payable",
      "type": "receive"
    },
    {
      "inputs": [],
      "name": "getFarmeraddress",
      "outputs": [
        {
          "internalType": "address",
          "name": "",
          "type": "address"
        }
      ],
      "stateMutability": "view",
      "type": "function"
    },
    {
      "inputs": [
        {
          "internalType": "address",
          "name": "_investor",
          "type": "address"
        }
      ],
      "name": "getInvestor",
      "outputs": [
        {
          "internalType": "bool",
          "name": "",
          "type": "bool"
        }
      ],
      "stateMutability": "view",
      "type": "function"
    },
    {
      "inputs": [
        {
          "internalType": "bool",
          "name": "_investmentStatus",
          "type": "bool"
        }
      ],
      "name": "setInvested",
      "outputs": [
        {
          "internalType": "bool",
          "name": "",
          "type": "bool"
        }
      ],
      "stateMutability": "nonpayable",
      "type": "function"
    },
    {
      "inputs": [
        {
          "internalType": "address payable",
          "name": "_newStrategy",
          "type": "address"
        }
      ],
      "name": "setStrategy",
      "outputs": [],
      "stateMutability": "nonpayable",
      "type": "function"
    },
    {
      "inputs": [],
      "name": "getStrategy",
      "outputs": [
        {
          "internalType": "address",
          "name": "",
          "type": "address"
        }
      ],
      "stateMutability": "view",
      "type": "function"
    },
    {
      "inputs": [
        {
          "internalType": "address",
          "name": "_investor",
          "type": "address"
        }
      ],
      "name": "getInvested",
      "outputs": [
        {
          "internalType": "uint256",
          "name": "",
          "type": "uint256"
        }
      ],
      "stateMutability": "view",
      "type": "function"
    },
    {
      "inputs": [],
      "name": "getInvested",
      "outputs": [
        {
          "internalType": "bool",
          "name": "",
          "type": "bool"
        }
      ],
      "stateMutability": "view",
      "type": "function"
    },
    {
      "inputs": [
        {
          "internalType": "uint256",
          "name": "_BUSDtokens",
          "type": "uint256"
        }
      ],
      "name": "depositLiquidity",
      "outputs": [
        {
          "internalType": "uint256",
          "name": "",
          "type": "uint256"
        }
      ],
      "stateMutability": "payable",
      "type": "function"
    },
    {
      "inputs": [],
      "name": "withdrawLiquidity",
      "outputs": [],
      "stateMutability": "nonpayable",
      "type": "function"
    },
    {
      "inputs": [],
      "name": "invest",
      "outputs": [],
      "stateMutability": "nonpayable",
      "type": "function"
    }
  ],
  "bytecode": "0x60806040908152600180546001600160a01b031990811673e9e7cea3dedca5984780bafc599bd69add087d56178083556002805483166001600160a01b0392909216919091179055600a80548216738345f3afa13a2acc4fcd55a173ea21078ad958e8179055336000818152602081905293909320805460ff199081168417169092179091556009805490911690911790556008805460ff60a01b1916905561110a806100ad6000396000f3fe6080604052600436106100bc5760003560e01c806307da0603146100c85780632ae2b643146100f957806333a100ca1461013e5780633ddb6e8214610173578063429b62e5146101885780636f7bc9be146101cf578063704802751461020257806376d58e1a146102355780637ea382c1146102525780638f35a75e14610267578063a250165d1461029a578063acac59dc146102c6578063befc3e2b146102f9578063e8b5e51f1461030e578063ec09510714610323576100c3565b366100c357005b600080fd5b3480156100d457600080fd5b506100dd610356565b604080516001600160a01b039092168252519081900360200190f35b34801561010557600080fd5b5061012c6004803603602081101561011c57600080fd5b50356001600160a01b0316610365565b60408051918252519081900360200190f35b34801561014a57600080fd5b506101716004803603602081101561016157600080fd5b50356001600160a01b0316610380565b005b34801561017f57600080fd5b506100dd6103f1565b34801561019457600080fd5b506101bb600480360360208110156101ab57600080fd5b50356001600160a01b0316610400565b604080519115158252519081900360200190f35b3480156101db57600080fd5b506101bb600480360360208110156101f257600080fd5b50356001600160a01b0316610415565b34801561020e57600080fd5b506101716004803603602081101561022557600080fd5b50356001600160a01b031661042a565b61012c6004803603602081101561024b57600080fd5b50356104b0565b34801561025e57600080fd5b506101716105b5565b34801561027357600080fd5b506101bb6004803603602081101561028a57600080fd5b50356001600160a01b03166109b1565b3480156102a657600080fd5b506101bb600480360360208110156102bd57600080fd5b503515156109cf565b3480156102d257600080fd5b506101bb600480360360208110156102e957600080fd5b50356001600160a01b0316610a5b565b34801561030557600080fd5b506101bb610a79565b34801561031a57600080fd5b50610171610a89565b34801561032f57600080fd5b5061012c6004803603602081101561034657600080fd5b50356001600160a01b0316610d58565b6006546001600160a01b031690565b6001600160a01b03166000908152600c602052604090205490565b6001600160a01b0381166103c55760405162461bcd60e51b815260040180806020018281038252602581526020018061103c6025913960400191505060405180910390fd5b600680546001600160a01b039092166001600160a01b0319928316811790915560088054909216179055565b6009546001600160a01b031690565b60006020819052908152604090205460ff1681565b600b6020526000908152604090205460ff1681565b3360009081526020819052604090205460ff16151560011461048c576040805162461bcd60e51b815260206004820152601660248201527513db9b1e4818591b5a5b8818d85b88191bc81d1a185d60521b604482015290519081900360640190fd5b6001600160a01b03166000908152602081905260409020805460ff19166001179055565b336000908152600b60205260408120805460ff191660011790556005546104dd908363ffffffff610dd616565b600555336000908152600c6020526040902054610500908363ffffffff610dd616565b336000818152600c602090815260408083209490945560025484516323b872dd60e01b815260048101949094523060248501526044840187905293516001600160a01b03909416936323b872dd93606480820194918390030190829087803b15801561056b57600080fd5b505af115801561057f573d6000803e3d6000fd5b505050506040513d602081101561059557600080fd5b50516105a057600080fd5b5050336000908152600c602052604090205490565b600854600160a01b900460ff1615610614576040805162461bcd60e51b815260206004820152601e60248201527f706f6f6c20697320696e76657374656420617420746865206d6f6d656e740000604482015290519081900360640190fd5b336000818152600b60205260408120805460ff19169055906106bc9061063990610e37565b600254604080516370a0823160e01b815230600482015290516001600160a01b03909216916370a0823191602480820192602092909190829003018186803b15801561068457600080fd5b505afa158015610698573d6000803e3d6000fd5b505050506040513d60208110156106ae57600080fd5b50519063ffffffff610e6516565b336000908152600c60205260408120549192509082116106dd5760006106f0565b336000908152600c602052604090205482035b905080156108a0576002546009546001600160a01b03918216916323b872dd91309116610735606461072987600563ffffffff610e6516565b9063ffffffff610ebe16565b6040518463ffffffff1660e01b815260040180846001600160a01b03166001600160a01b03168152602001836001600160a01b03166001600160a01b031681526020018281526020019350505050602060405180830381600087803b15801561079d57600080fd5b505af11580156107b1573d6000803e3d6000fd5b505050506040513d60208110156107c757600080fd5b50516107d257600080fd5b600254600a546001600160a01b03918216916323b872dd91309116610803606461072987600563ffffffff610e6516565b6040518463ffffffff1660e01b815260040180846001600160a01b03166001600160a01b03168152602001836001600160a01b03166001600160a01b031681526020018281526020019350505050602060405180830381600087803b15801561086b57600080fd5b505af115801561087f573d6000803e3d6000fd5b505050506040513d602081101561089557600080fd5b50516108a057600080fd5b336000908152600c60205260409020546005546108c29163ffffffff610efd16565b600555336000818152600c60205260408120556002546001600160a01b0316906323b872dd903090610910610903606461072988600a63ffffffff610e6516565b879063ffffffff610efd16565b6040518463ffffffff1660e01b815260040180846001600160a01b03166001600160a01b03168152602001836001600160a01b03166001600160a01b031681526020018281526020019350505050602060405180830381600087803b15801561097857600080fd5b505af115801561098c573d6000803e3d6000fd5b505050506040513d60208110156109a257600080fd5b50516109ad57600080fd5b5050565b6001600160a01b03166000908152600b602052604090205460ff1690565b3360009081526020819052604081205460ff161515600114806109fc57506009546001600160a01b031633145b610a375760405162461bcd60e51b815260040180806020018281038252602c815260200180611088602c913960400191505060405180910390fd5b506008805460ff60a01b1916600160a01b9215158302179081905560ff9190041690565b6001600160a01b031660009081526020819052604090205460ff1690565b600854600160a01b900460ff1690565b6009546001600160a01b0316331480610ab657503360009081526020819052604090205460ff1615156001145b610af15760405162461bcd60e51b81526004018080602001828103825260278152602001806110616027913960400191505060405180910390fd5b600254600854604080516370a0823160e01b8152306004820181905291516001600160a01b03948516946323b872dd94169185916370a0823191602480820192602092909190829003018186803b158015610b4b57600080fd5b505afa158015610b5f573d6000803e3d6000fd5b505050506040513d6020811015610b7557600080fd5b5051604080516001600160e01b031960e087901b1681526001600160a01b0394851660048201529290931660248301526044820152905160648083019260209291908290030181600087803b158015610bcd57600080fd5b505af1158015610be1573d6000803e3d6000fd5b505050506040513d6020811015610bf757600080fd5b5050600254600854604080516370a0823160e01b815230600482015290516001600160a01b039384169363095ea7b393169184916370a0823191602480820192602092909190829003018186803b158015610c5157600080fd5b505afa158015610c65573d6000803e3d6000fd5b505050506040513d6020811015610c7b57600080fd5b5051604080516001600160e01b031960e086901b1681526001600160a01b03909316600484015260248301919091525160448083019260209291908290030181600087803b158015610ccc57600080fd5b505af1158015610ce0573d6000803e3d6000fd5b505050506040513d6020811015610cf657600080fd5b5050600854604080516384c4958360e01b815290516001600160a01b03909216916384c495839160048082019260009290919082900301818387803b158015610d3e57600080fd5b505af1158015610d52573d6000803e3d6000fd5b50505050565b604080516370a0823160e01b8152306004820152905160009183916001600160a01b038316916370a08231916024808301926020929190829003018186803b158015610da357600080fd5b505afa158015610db7573d6000803e3d6000fd5b505050506040513d6020811015610dcd57600080fd5b50519392505050565b600082820183811015610e2e576040805162461bcd60e51b815260206004820152601b60248201527a536166654d6174683a206164646974696f6e206f766572666c6f7760281b604482015290519081900360640190fd5b90505b92915050565b6005546001600160a01b0382166000908152600c60205260408120549091610e31919063ffffffff610ebe16565b600082610e7457506000610e31565b82820282848281610e8157fe5b0414610e2e5760405162461bcd60e51b81526004018080602001828103825260218152602001806110b46021913960400191505060405180910390fd5b6000610e2e83836040518060400160405280601a815260200179536166654d6174683a206469766973696f6e206279207a65726f60301b815250610f3f565b6000610e2e83836040518060400160405280601e81526020017f536166654d6174683a207375627472616374696f6e206f766572666c6f770000815250610fe1565b60008183610fcb5760405162461bcd60e51b81526004018080602001828103825283818151815260200191508051906020019080838360005b83811015610f90578181015183820152602001610f78565b50505050905090810190601f168015610fbd5780820380516001836020036101000a031916815260200191505b509250505060405180910390fd5b506000838581610fd757fe5b0495945050505050565b600081848411156110335760405162461bcd60e51b8152602060048201818152835160248401528351909283926044909101919085019080838360008315610f90578181015183820152602001610f78565b50505090039056fe6e657753747261746567792073686f756c6420626520612076616c69642061646472657373506f6f6c3a206f6e6c79207374726174656779206f722061646d696e2063616e20696e76657374506f6f6c3a206f6e6c7920616e20617070726f7072696174652073656e6465722063616e20646f2074686973536166654d6174683a206d756c7469706c69636174696f6e206f766572666c6f77a26469706673582212206cf136e0d8c36c497461e79d140a85123882e77b5adc782adbfba7500da9e10864736f6c63430006090033",
  "immutableReferences": {},
  "source": "//SPDX-License-Identifier: MIT\npragma solidity ^0.6.9;\n\nimport \"./Controller.sol\";\nimport \"./SafeMathUpgradeable.sol\";\nimport \"./IBEP20.sol\";\nimport \"./Strategy.sol\";\n\n\n/**\n*   Farmer will create Pool Contract and later\n*   farmer will create/update strategy and assign\n*   strategy to Pool.\n*/\ncontract Pool is Controller{\n    using SafeMathUpgradeable for uint256;\n\n    address BUSD = 0xe9e7CEA3DedcA5984780Bafc599bD69ADd087D56;\n    IBEP20 private BUSDtoken = IBEP20(BUSD);\n    IBEP20 token;\n    uint256 private totalLiquidity;\n    uint256 private totalToken;\n    address payable strategy;\n    address poolOwner;\n    Strategy strategyInstance;\n    bool private invested;\n    address private farmer;\n    address private teamAddress = 0x8345F3AFa13a2ACC4fCd55A173eA21078aD958e8;\n    uint16 constant FARMER_REWARD = 5; // 5% of profit\n    uint16 constant TEAM_REWARD = 5; // 5% of profit\n\n    mapping (address => bool) public investors;\n    mapping (address => uint256) private liquidity;\n\n\n    constructor ()\n        public payable\n    {\n        admins[msg.sender]=true;\n        farmer=msg.sender;\n        invested=false;\n    }\n\n    /**\n     * @dev Get farmer Address of the pool\n     */\n    function getFarmeraddress()\n        external view\n        returns (address)\n    {\n        return farmer;\n    }\n\n\n    /**\n     * @dev Get Investor Status of the pool\n     * @param _investor Investor address\n     */\n    function getInvestor(\n        address _investor\n    )\n        external view\n        returns (bool)\n    {\n        return investors[_investor];\n    }\n\n    /**\n     * @dev Get amount of invested fund by Investor\n     * @param _investor Investor address\n     */\n    function getInvested(\n        address _investor\n    )\n        external view\n        returns (uint256)\n    {\n        return liquidity[_investor];\n    }\n\n    /**\n     * @dev update investment status and only been called by pool owner\n     * @param _investmentStatus Investment status\n     */\n    function setInvested(\n        bool _investmentStatus\n    )\n        external\n        returns (bool)\n    {\n        require(\n            (admins[msg.sender] == true) || (farmer == msg.sender),\n            \"Pool: only an appropriate sender can do this\"\n        );\n\n        invested = _investmentStatus;\n        return invested;\n    }\n\n    /**\n    * @dev Assign/update startegy to Pool\n    * @param _newStrategy new startegy address\n    */\n    function setStrategy(\n        address payable _newStrategy\n    )\n        external\n    {\n        require(\n            _newStrategy != address(0x0),\n            'newStrategy should be a valid address');\n\n        strategy = _newStrategy;\n        strategyInstance=Strategy(_newStrategy);\n    }\n\n    /**\n    * @dev return assigned strategy to the pool\n    */\n    function getStrategy()\n        external view\n        returns (address)\n    {\n        return strategy;\n    }\n\n    /**\n    * @dev return investment status to the pool\n    */\n    function getInvested()\n        public view\n        returns (bool)\n    {\n        return invested;\n    }\n\n\n    /**\n    * @dev user can deposit/Invest there Token to the pool\n    * @param _BUSDtokens amount of BUSD token to be invested in Pool\n    */\n    function depositLiquidity(\n        uint _BUSDtokens\n    )\n        external payable\n        returns (uint256)\n    {\n        investors[msg.sender]=true;\n        totalToken = totalToken.add(_BUSDtokens);\n        liquidity[msg.sender] = liquidity[msg.sender].add(_BUSDtokens);\n        require(BUSDtoken.transferFrom(msg.sender, address(this), _BUSDtokens));\n        return liquidity[msg.sender];\n    }\n\n    /**\n     * @dev user can withdraw Invested amount to the Pool\n     */\n    function withdrawLiquidity()\n        external\n    {\n        require(\n            invested == false,\n            \"pool is invested at the moment\"\n        );\n        investors[msg.sender]=false;\n        uint256 BUSDshare = BUSDtoken.balanceOf(address(this)).mul(getRatio(msg.sender));\n        uint256 profit = BUSDshare > liquidity[msg.sender] ?\n                            BUSDshare - liquidity[msg.sender] :\n                            0;\n\n        if (profit > 0)\n        {\n            /* Share 5% of profit amount to Farmer as farmerReward */\n            require(BUSDtoken.transferFrom( address(this), farmer,\n                        profit.mul(FARMER_REWARD).div(100)));\n\n            /* Share 5% of profit amount to TEAM as commission */\n            require(BUSDtoken.transferFrom( address(this), teamAddress,\n                        profit.mul(TEAM_REWARD).div(100)));\n        }\n\n        totalToken=totalToken.sub(liquidity[msg.sender]);\n        liquidity[msg.sender] = 0;\n\n        require(BUSDtoken.transferFrom( address(this), msg.sender,\n                    BUSDshare.sub(profit.mul(FARMER_REWARD + TEAM_REWARD).div(100))));\n    }\n\n    /**\n    * @dev amount of share in pool\n    * @param _user investor address who has invested token in Pool\n    */\n    function getRatio(\n        address _user\n    )\n        internal view\n        returns (uint256 ratio)\n    {\n        ratio = liquidity[_user].div(totalToken);\n    }\n\n    /**\n    * @dev transfer all liquid BUSD token to strategy contract for further investment\n    */\n    function invest()\n        external\n    {\n        require(\n            farmer == msg.sender || admins[msg.sender] == true,\n            \"Pool: only strategy or admin can invest\"\n        );\n\n        BUSDtoken.transferFrom(address(this),address(strategyInstance),BUSDtoken.balanceOf(address(this)));\n        BUSDtoken.approve(address(strategyInstance),BUSDtoken.balanceOf(address(this)));\n        strategyInstance.runStrategy();\n    }\n}\n",
  "sourcePath": "/home/alp/proj/don-key/smartcontracts/contracts/Pool.sol",
  "compiler": {
    "name": "solc",
    "version": "0.6.9+commit.3e3065ac.Emscripten.clang"
  },
  "schemaVersion": "3.3.4",
  "updatedAt": "2021-04-15T06:53:11.177Z",
  "devdoc": {
    "methods": {
      "depositLiquidity(uint256)": {
        "details": "user can deposit/Invest there Token to the pool",
        "params": {
          "_BUSDtokens": "amount of BUSD token to be invested in Pool"
        }
      },
      "getFarmeraddress()": {
        "details": "Get farmer Address of the pool"
      },
      "getInvested()": {
        "details": "return investment status to the pool"
      },
      "getInvested(address)": {
        "details": "Get amount of invested fund by Investor",
        "params": {
          "_investor": "Investor address"
        }
      },
      "getInvestor(address)": {
        "details": "Get Investor Status of the pool",
        "params": {
          "_investor": "Investor address"
        }
      },
      "getStrategy()": {
        "details": "return assigned strategy to the pool"
      },
      "invest()": {
        "details": "transfer all liquid BUSD token to strategy contract for further investment"
      },
      "setInvested(bool)": {
        "details": "update investment status and only been called by pool owner",
        "params": {
          "_investmentStatus": "Investment status"
        }
      },
      "setStrategy(address)": {
        "details": "Assign/update startegy to Pool",
        "params": {
          "_newStrategy": "new startegy address"
        }
      },
      "withdrawLiquidity()": {
        "details": "user can withdraw Invested amount to the Pool"
      }
    }
  },
  "userdoc": {
    "methods": {},
    "notice": "Farmer will create Pool Contract and later   farmer will create/update strategy and assign   strategy to Pool."
  }
}