{
  "_format": "hh-sol-artifact-1",
  "contractName": "Staking",
  "sourceName": "contracts/staking/Staking.sol",
  "abi": [
    {
      "inputs": [
        {
          "internalType": "address",
          "name": "_stakeToken",
          "type": "address"
        },
        {
          "internalType": "uint256",
          "name": "_minimumStakeAllowed",
          "type": "uint256"
        },
        {
          "internalType": "uint256",
          "name": "_unboundingPeriod",
          "type": "uint256"
        }
      ],
      "stateMutability": "nonpayable",
      "type": "constructor"
    },
    {
      "anonymous": false,
      "inputs": [
        {
          "indexed": true,
          "internalType": "address",
          "name": "owner",
          "type": "address"
        },
        {
          "indexed": true,
          "internalType": "address",
          "name": "tokenAddress",
          "type": "address"
        },
        {
          "indexed": false,
          "internalType": "uint256",
          "name": "balance",
          "type": "uint256"
        }
      ],
      "name": "EmergencyFundsWithdrawn",
      "type": "event"
    },
    {
      "anonymous": false,
      "inputs": [
        {
          "indexed": true,
          "internalType": "address",
          "name": "previousOwner",
          "type": "address"
        },
        {
          "indexed": true,
          "internalType": "address",
          "name": "newOwner",
          "type": "address"
        }
      ],
      "name": "OwnershipTransferred",
      "type": "event"
    },
    {
      "anonymous": false,
      "inputs": [
        {
          "indexed": true,
          "internalType": "address",
          "name": "staker",
          "type": "address"
        },
        {
          "indexed": false,
          "internalType": "uint256",
          "name": "amount",
          "type": "uint256"
        }
      ],
      "name": "Staked",
      "type": "event"
    },
    {
      "anonymous": false,
      "inputs": [
        {
          "indexed": false,
          "internalType": "enum IStakingStatus.StakingStatus",
          "name": "status",
          "type": "uint8"
        }
      ],
      "name": "StakingStatusUpdated",
      "type": "event"
    },
    {
      "anonymous": false,
      "inputs": [
        {
          "indexed": true,
          "internalType": "address",
          "name": "staker",
          "type": "address"
        },
        {
          "indexed": false,
          "internalType": "uint256",
          "name": "tickets",
          "type": "uint256"
        }
      ],
      "name": "TicketsClaimed",
      "type": "event"
    },
    {
      "anonymous": false,
      "inputs": [
        {
          "indexed": true,
          "internalType": "address",
          "name": "staker",
          "type": "address"
        },
        {
          "indexed": false,
          "internalType": "uint256",
          "name": "unstakeTime",
          "type": "uint256"
        }
      ],
      "name": "Unstaked",
      "type": "event"
    },
    {
      "anonymous": false,
      "inputs": [
        {
          "indexed": true,
          "internalType": "address",
          "name": "staker",
          "type": "address"
        },
        {
          "indexed": false,
          "internalType": "uint256",
          "name": "amount",
          "type": "uint256"
        }
      ],
      "name": "Withdrawn",
      "type": "event"
    },
    {
      "inputs": [
        {
          "internalType": "uint256",
          "name": "_stakersToAllot",
          "type": "uint256"
        }
      ],
      "name": "allotTickets",
      "outputs": [],
      "stateMutability": "nonpayable",
      "type": "function"
    },
    {
      "inputs": [],
      "name": "closeStaking",
      "outputs": [],
      "stateMutability": "nonpayable",
      "type": "function"
    },
    {
      "inputs": [
        {
          "internalType": "address",
          "name": "_tokenAddress",
          "type": "address"
        }
      ],
      "name": "emergencyExit",
      "outputs": [],
      "stateMutability": "nonpayable",
      "type": "function"
    },
    {
      "inputs": [],
      "name": "endTime",
      "outputs": [
        {
          "internalType": "uint256",
          "name": "",
          "type": "uint256"
        }
      ],
      "stateMutability": "view",
      "type": "function"
    },
    {
      "inputs": [
        {
          "internalType": "uint256",
          "name": "ticketNumber",
          "type": "uint256"
        }
      ],
      "name": "getAccountForTicketNumber",
      "outputs": [
        {
          "internalType": "address",
          "name": "",
          "type": "address"
        }
      ],
      "stateMutability": "view",
      "type": "function"
    },
    {
      "inputs": [],
      "name": "getLotteryParticipants",
      "outputs": [
        {
          "internalType": "address[]",
          "name": "",
          "type": "address[]"
        }
      ],
      "stateMutability": "view",
      "type": "function"
    },
    {
      "inputs": [],
      "name": "getStakers",
      "outputs": [
        {
          "internalType": "address[]",
          "name": "",
          "type": "address[]"
        }
      ],
      "stateMutability": "view",
      "type": "function"
    },
    {
      "inputs": [
        {
          "internalType": "address",
          "name": "_staker",
          "type": "address"
        }
      ],
      "name": "getStakersNumbers",
      "outputs": [
        {
          "internalType": "uint256",
          "name": "",
          "type": "uint256"
        },
        {
          "internalType": "uint256",
          "name": "",
          "type": "uint256"
        }
      ],
      "stateMutability": "view",
      "type": "function"
    },
    {
      "inputs": [
        {
          "internalType": "address",
          "name": "_staker",
          "type": "address"
        }
      ],
      "name": "getStakersTicket",
      "outputs": [
        {
          "internalType": "uint256",
          "name": "",
          "type": "uint256"
        }
      ],
      "stateMutability": "view",
      "type": "function"
    },
    {
      "inputs": [],
      "name": "lastTicketNo",
      "outputs": [
        {
          "internalType": "uint256",
          "name": "",
          "type": "uint256"
        }
      ],
      "stateMutability": "view",
      "type": "function"
    },
    {
      "inputs": [
        {
          "internalType": "uint256",
          "name": "",
          "type": "uint256"
        }
      ],
      "name": "lotteryParticipants",
      "outputs": [
        {
          "internalType": "address",
          "name": "",
          "type": "address"
        }
      ],
      "stateMutability": "view",
      "type": "function"
    },
    {
      "inputs": [],
      "name": "minimumStakeAllowed",
      "outputs": [
        {
          "internalType": "uint256",
          "name": "",
          "type": "uint256"
        }
      ],
      "stateMutability": "view",
      "type": "function"
    },
    {
      "inputs": [],
      "name": "owner",
      "outputs": [
        {
          "internalType": "address",
          "name": "",
          "type": "address"
        }
      ],
      "stateMutability": "view",
      "type": "function"
    },
    {
      "inputs": [],
      "name": "renounceOwnership",
      "outputs": [],
      "stateMutability": "nonpayable",
      "type": "function"
    },
    {
      "inputs": [
        {
          "internalType": "uint256",
          "name": "_amount",
          "type": "uint256"
        }
      ],
      "name": "stake",
      "outputs": [],
      "stateMutability": "nonpayable",
      "type": "function"
    },
    {
      "inputs": [],
      "name": "stakeToken",
      "outputs": [
        {
          "internalType": "address",
          "name": "",
          "type": "address"
        }
      ],
      "stateMutability": "view",
      "type": "function"
    },
    {
      "inputs": [
        {
          "internalType": "address",
          "name": "",
          "type": "address"
        }
      ],
      "name": "stakersInfo",
      "outputs": [
        {
          "internalType": "uint256",
          "name": "stakedAmount",
          "type": "uint256"
        },
        {
          "internalType": "uint256",
          "name": "lastCheckpoint",
          "type": "uint256"
        },
        {
          "internalType": "uint256",
          "name": "unstakeTime",
          "type": "uint256"
        }
      ],
      "stateMutability": "view",
      "type": "function"
    },
    {
      "inputs": [
        {
          "internalType": "uint256",
          "name": "_runningPeriod",
          "type": "uint256"
        }
      ],
      "name": "startStaking",
      "outputs": [],
      "stateMutability": "nonpayable",
      "type": "function"
    },
    {
      "inputs": [],
      "name": "status",
      "outputs": [
        {
          "internalType": "enum IStakingStatus.StakingStatus",
          "name": "",
          "type": "uint8"
        }
      ],
      "stateMutability": "view",
      "type": "function"
    },
    {
      "inputs": [
        {
          "internalType": "uint256",
          "name": "",
          "type": "uint256"
        }
      ],
      "name": "ticketCount",
      "outputs": [
        {
          "internalType": "uint256",
          "name": "",
          "type": "uint256"
        }
      ],
      "stateMutability": "view",
      "type": "function"
    },
    {
      "inputs": [],
      "name": "totalFundsStaked",
      "outputs": [
        {
          "internalType": "uint256",
          "name": "",
          "type": "uint256"
        }
      ],
      "stateMutability": "view",
      "type": "function"
    },
    {
      "inputs": [
        {
          "internalType": "address",
          "name": "newOwner",
          "type": "address"
        }
      ],
      "name": "transferOwnership",
      "outputs": [],
      "stateMutability": "nonpayable",
      "type": "function"
    },
    {
      "inputs": [],
      "name": "unboundingPeriod",
      "outputs": [
        {
          "internalType": "uint256",
          "name": "",
          "type": "uint256"
        }
      ],
      "stateMutability": "view",
      "type": "function"
    },
    {
      "inputs": [],
      "name": "unstake",
      "outputs": [],
      "stateMutability": "nonpayable",
      "type": "function"
    },
    {
      "inputs": [],
      "name": "withdraw",
      "outputs": [],
      "stateMutability": "nonpayable",
      "type": "function"
    }
  ],
  "bytecode": "0x60806040523480156200001157600080fd5b5060405162001d1938038062001d19833981016040819052620000349162000156565b6000620000496001600160e01b036200015216565b600080546001600160a01b0319166001600160a01b0383169081178255604051929350917f8be0079c531659141344cd1fd0a4f28419497f9722a3daafe3b4186f6b6457e0908290a35060008211620000bf5760405162461bcd60e51b8152600401620000b69062000199565b60405180910390fd5b600580546001600160a01b039094166001600160a01b031994851617905560019182556003556006805480830190915560007ff652222313e28459528d920b65115c16c04f3efc82aaedc97be59f3f377c0d3f90910181905560078054928301815590527fa66cc928b5edb82af9bd49922954155ab7b0942694bea4ce44661d9a8736c6880180549091169055620001d0565b3390565b6000806000606084860312156200016b578283fd5b83516001600160a01b038116811462000182578384fd5b602085015160409095015190969495509392505050565b6020808252601d908201527f496e76616c6964206d696e696d756d207374616b6520616d6f756e7420000000604082015260600190565b611b3980620001e06000396000f3fe608060405234801561001057600080fd5b50600436106101735760003560e01c8063874531ec116100de578063aba78c1611610097578063e5022d4f11610071578063e5022d4f146102bb578063f2fde38b146102ce578063f59aabcd146102e1578063ffd9fbe9146102f457610173565b8063aba78c1614610289578063bcedc663146102ab578063ccc23e52146102b357610173565b8063874531ec146102385780638da5cb5b1461024b57806398cfe587146102535780639b3cb52c1461025b578063a441d06714610263578063a694fc3a1461027657610173565b80633e4ed9c4116101305780633e4ed9c4146101d857806343352d61146101ed57806351ed6a30146101f55780637052de7a1461020a578063715018a61461021d578063762b1c921461022557610173565b80630c63f83214610178578063200d2ed2146101a15780632def6620146101b65780633197cbb6146101c0578063333347ae146101c85780633ccfd60b146101d0575b600080fd5b61018b610186366004611531565b610315565b6040516101989190611aaa565b60405180910390f35b6101a9610333565b604051610198919061161b565b6101be61033c565b005b61018b610430565b61018b610436565b6101be61045c565b6101e0610558565b60405161019891906115ce565b6101e06105ba565b6101fd61061a565b604051610198919061157d565b6101fd610218366004611531565b610629565b6101be6106b2565b6101be610233366004611531565b61073b565b61018b6102463660046114ea565b610826565b6101fd6108d7565b6101be6108e6565b61018b6109ac565b6101be6102713660046114ea565b6109b2565b6101be610284366004611531565b610b43565b61029c6102973660046114ea565b610cc6565b60405161019893929190611ac1565b61018b610ce7565b61018b610ced565b6101be6102c9366004611531565b610cf3565b6101be6102dc3660046114ea565b610ecd565b6101fd6102ef366004611531565b610f8d565b6103076103023660046114ea565b610fb4565b604051610198929190611ab3565b6006818154811061032257fe5b600091825260209091200154905081565b600c5460ff1681565b336000908152600960205260409020546103715760405162461bcd60e51b815260040161036890611a80565b60405180910390fd5b3360009081526009602052604090206002810154156103a25760405162461bcd60e51b815260040161036890611a3b565b6103ca6103ae33611050565b336000908152600a60205260409020549063ffffffff61111916565b504260018201819055600282015580546004546103ec9163ffffffff61114716565b600455600281015460405133917f0f5bb82176feb1b5e747e28471aa92156a04d9f3ab9f45f28e2d704232b93f75916104259190611aaa565b60405180910390a250565b60025481565b6006805460009190600019810190811061044c57fe5b9060005260206000200154905090565b336000908152600960205260409020546104885760405162461bcd60e51b815260040161036890611a80565b33600090815260096020526040902060028101546104b85760405162461bcd60e51b815260040161036890611a04565b426104d2600354836002015461111990919063ffffffff16565b11156104f05760405162461bcd60e51b815260040161036890611a3b565b805460008255600554610513906001600160a01b0316338363ffffffff61116f16565b336001600160a01b03167f7084f5476618d8e60b11ef0d7d3f06914655adb8793e28ff7f018d4c76d505d58260405161054c9190611aaa565b60405180910390a25050565b606060078054806020026020016040519081016040528092919081815260200182805480156105b057602002820191906000526020600020905b81546001600160a01b03168152600190910190602001808311610592575b5050505050905090565b6060600b8054806020026020016040519081016040528092919081815260200182805480156105b0576020028201919060005260206000209081546001600160a01b03168152600190910190602001808311610592575050505050905090565b6005546001600160a01b031681565b600080610634610436565b90506000811180156106465750808311155b156106865760006106586006856111ca565b90506007818154811061066757fe5b6000918252602090912001546001600160a01b031692506106ad915050565b600760008154811061069457fe5b6000918252602090912001546001600160a01b03169150505b919050565b6106ba61126b565b6001600160a01b03166106cb6108d7565b6001600160a01b0316146106f15760405162461bcd60e51b81526004016103689061191e565b600080546040516001600160a01b03909116907f8be0079c531659141344cd1fd0a4f28419497f9722a3daafe3b4186f6b6457e0908390a3600080546001600160a01b0319169055565b61074361126b565b6001600160a01b03166107546108d7565b6001600160a01b03161461077a5760405162461bcd60e51b81526004016103689061191e565b6000600c5460ff16600381111561078d57fe5b146107aa5760405162461bcd60e51b815260040161036890611662565b600081116107ca5760405162461bcd60e51b815260040161036890611744565b6107da428263ffffffff61111916565b600255600c805460ff191660019081179091556040517fcb7ab1b0fa5ed982888a916dc6fb855a5e505f89394105cae97f94ecb1122a5a9161081b9161161b565b60405180910390a150565b60006108306114c9565b506001600160a01b0382166000908152600960209081526040918290208251606081018452815481526001820154928101929092526002015491810182905290158015906108815750602081015115155b156108bf576108b761089284611050565b6001600160a01b0385166000908152600a60205260409020549063ffffffff61111916565b9150506106ad565b6001600160a01b038316600052600a60205250919050565b6000546001600160a01b031690565b6108ee61126b565b6001600160a01b03166108ff6108d7565b6001600160a01b0316146109255760405162461bcd60e51b81526004016103689061191e565b6001600c5460ff16600381111561093857fe5b146109555760405162461bcd60e51b815260040161036890611953565b42600254111561096457426002555b600c805460ff191660029081179091556040517fcb7ab1b0fa5ed982888a916dc6fb855a5e505f89394105cae97f94ecb1122a5a916109a29161161b565b60405180910390a1565b60045481565b6109ba61126b565b6001600160a01b03166109cb6108d7565b6001600160a01b0316146109f15760405162461bcd60e51b81526004016103689061191e565b60006001600160a01b038216610a49575047610a0b6108d7565b6001600160a01b03166108fc829081150290604051600060405180830381858888f19350505050158015610a43573d6000803e3d6000fd5b50610aed565b6040516370a0823160e01b815282906001600160a01b038216906370a0823190610a7790309060040161157d565b60206040518083038186803b158015610a8f57600080fd5b505afa158015610aa3573d6000803e3d6000fd5b505050506040513d601f19601f82011682018060405250810190610ac79190611549565b9150610aeb610ad46108d7565b6001600160a01b038316908463ffffffff61116f16565b505b816001600160a01b0316610aff6108d7565b6001600160a01b03167f93690cf4658fd3e063471dfb3b61278dd464ac5a67fe6b07c5294b4872891e2583604051610b379190611aaa565b60405180910390a35050565b6001600c5460ff166003811115610b5657fe5b148015610b6557506002544211155b610b815760405162461bcd60e51b815260040161036890611699565b3360009081526009602052604081208054909190610ba5908463ffffffff61111916565b9050600154811015610bc95760405162461bcd60e51b815260040161036890611856565b600282015415801590610bdc5750815415155b15610bf857600060028301558154600480549091019055610c51565b600282015415610c0e5760006002830155610c51565b600b80546001810182556000919091527f0175b7a638427703f0dbe7bb9bbf987a2551717b34e79f33b5b1008d1fa01db90180546001600160a01b031916331790555b8082554260018301556004805484019055600554610c80906001600160a01b031633308663ffffffff61126f16565b336001600160a01b03167f9e71bc8eea02a63969f509818f2dafb9254532904319f9dbda79b67bd34a5f3d84604051610cb99190611aaa565b60405180910390a2505050565b60096020526000908152604090208054600182015460029092015490919083565b60015481565b60035481565b60025415801590610d05575060025442115b610d215760405162461bcd60e51b8152600401610368906117aa565b610d2961126b565b6001600160a01b0316610d3a6108d7565b6001600160a01b031614610d605760405162461bcd60e51b81526004016103689061191e565b6003600c5460ff166003811115610d7357fe5b1415610d915760405162461bcd60e51b8152600401610368906118dd565b600754600b5460009160001901908290610db1838663ffffffff61111916565b11610dbc5783610dc0565b600b545b90505b80821015610eaf57610df5600b8381548110610ddb57fe5b6000918252602090912001546001600160a01b0316610826565b925060068054905060086000600b8581548110610e0e57fe5b60009182526020808320909101546001600160a01b031683528201929092526040019020556006610e4d84610e41610436565b9063ffffffff61111916565b8154600181810184556000938452602084209091019190915560078054808301825592527fa66cc928b5edb82af9bd49922954155ab7b0942694bea4ce44661d9a8736c68890910180546001600160a01b031916331790559190910190610dc3565b600b54821415610ec757600c805460ff191660031790555b50505050565b610ed561126b565b6001600160a01b0316610ee66108d7565b6001600160a01b031614610f0c5760405162461bcd60e51b81526004016103689061191e565b6001600160a01b038116610f325760405162461bcd60e51b8152600401610368906116c7565b600080546040516001600160a01b03808516939216917f8be0079c531659141344cd1fd0a4f28419497f9722a3daafe3b4186f6b6457e091a3600080546001600160a01b0319166001600160a01b0392909216919091179055565b60078181548110610f9a57fe5b6000918252602090912001546001600160a01b0316905081565b600080600254600014158015610fcb575060025442115b610fe75760405162461bcd60e51b8152600401610368906117aa565b6001600160a01b0383166000908152600860205260409020548061101257506000915081905061104b565b6006600182038154811061102257fe5b90600052602060002001546006828154811061103a57fe5b906000526020600020015492509250505b915091565b600061105a6114c9565b506001600160a01b038216600090815260096020908152604080832081516060810183528154815260018201549381019390935260029081015491830191909152549091904211156110c25760208201516002546110bd9163ffffffff61114716565b6110d8565b60208201516110d890429063ffffffff61114716565b905060006111106103e86111046110f685603c63ffffffff61129016565b86519063ffffffff6112c216565b9063ffffffff61129016565b95945050505050565b60008282018381101561113e5760405162461bcd60e51b81526004016103689061170d565b90505b92915050565b6000828211156111695760405162461bcd60e51b815260040161036890611773565b50900390565b6111c58363a9059cbb60e01b848460405160240161118e9291906115b5565b60408051601f198184030181529190526020810180516001600160e01b03166001600160e01b0319909316929092179091526112fc565b505050565b81546000906111db57506000611141565b82546000905b8082101561122a5760006111f5838361138b565b90508486828154811061120457fe5b9060005260206000200154111561121d57809150611224565b8060010192505b506111e1565b60008211801561125257508385600184038154811061124557fe5b9060005260206000200154145b156112635750600019019050611141565b509050611141565b3390565b610ec7846323b872dd60e01b85858560405160240161118e93929190611591565b60008082116112b15760405162461bcd60e51b81526004016103689061181f565b8183816112ba57fe5b049392505050565b6000826112d157506000611141565b828202828482816112de57fe5b041461113e5760405162461bcd60e51b81526004016103689061189c565b6060611351826040518060400160405280602081526020017f5361666545524332303a206c6f772d6c6576656c2063616c6c206661696c6564815250856001600160a01b03166113b09092919063ffffffff16565b8051909150156111c5578080602001905181019061136f9190611511565b6111c55760405162461bcd60e51b8152600401610368906119ba565b6000600280830660028506018161139e57fe5b04600283046002850401019392505050565b60606113bf84846000856113c9565b90505b9392505050565b6060824710156113eb5760405162461bcd60e51b8152600401610368906117d9565b6113f48561148a565b6114105760405162461bcd60e51b815260040161036890611983565b60006060866001600160a01b0316858760405161142d9190611561565b60006040518083038185875af1925050503d806000811461146a576040519150601f19603f3d011682016040523d82523d6000602084013e61146f565b606091505b509150915061147f828286611490565b979650505050505050565b3b151590565b6060831561149f5750816113c2565b8251156114af5782518084602001fd5b8160405162461bcd60e51b8152600401610368919061162f565b60405180606001604052806000815260200160008152602001600081525090565b6000602082840312156114fb578081fd5b81356001600160a01b038116811461113e578182fd5b600060208284031215611522578081fd5b8151801515811461113e578182fd5b600060208284031215611542578081fd5b5035919050565b60006020828403121561155a578081fd5b5051919050565b60008251611573818460208701611ad7565b9190910192915050565b6001600160a01b0391909116815260200190565b6001600160a01b039384168152919092166020820152604081019190915260600190565b6001600160a01b03929092168252602082015260400190565b6020808252825182820181905260009190848201906040850190845b8181101561160f5783516001600160a01b0316835292840192918401916001016115ea565b50909695505050505050565b602081016004831061162957fe5b91905290565b600060208252825180602084015261164e816040850160208701611ad7565b601f01601f19169190910160400192915050565b60208082526017908201527f43616e74206f70656e207374616b696e6720616761696e000000000000000000604082015260600190565b6020808252601490820152735374616b696e67206973206e6f74206f70656e2160601b604082015260600190565b60208082526026908201527f4f776e61626c653a206e6577206f776e657220697320746865207a65726f206160408201526564647265737360d01b606082015260800190565b6020808252601b908201527f536166654d6174683a206164646974696f6e206f766572666c6f770000000000604082015260600190565b602080825260159082015274125b9d985b1a59081c9d5b9b9a5b99d4195c9a5bd9605a1b604082015260600190565b6020808252601e908201527f536166654d6174683a207375627472616374696f6e206f766572666c6f770000604082015260600190565b60208082526015908201527414dd185ada5b99c81a185cc81b9bdd08195b991959605a1b604082015260600190565b60208082526026908201527f416464726573733a20696e73756666696369656e742062616c616e636520666f6040820152651c8818d85b1b60d21b606082015260800190565b6020808252601a908201527f536166654d6174683a206469766973696f6e206279207a65726f000000000000604082015260600190565b60208082526026908201527f43616e6e6f74207374616b65206c657373207468616e206d696e696d756d20616040820152651b1b1bddd95960d21b606082015260800190565b60208082526021908201527f536166654d6174683a206d756c7469706c69636174696f6e206f766572666c6f6040820152607760f81b606082015260800190565b60208082526021908201527f5469636b657473206861766520616c7265616479206265656e20616c6c6f74656040820152601960fa1b606082015260800190565b6020808252818101527f4f776e61626c653a2063616c6c6572206973206e6f7420746865206f776e6572604082015260600190565b60208082526016908201527514dd185ada5b99c8185b1c9958591e4818db1bdcd95960521b604082015260600190565b6020808252601d908201527f416464726573733a2063616c6c20746f206e6f6e2d636f6e7472616374000000604082015260600190565b6020808252602a908201527f5361666545524332303a204552433230206f7065726174696f6e20646964206e6040820152691bdd081cdd58d8d9595960b21b606082015260800190565b60208082526019908201527f556e7374616b696e67206e6f7420737461727465642079657400000000000000604082015260600190565b60208082526025908201527f556e626f756e64696e6720706572696f6420616c726561647920696e2070726f604082015264677265737360d81b606082015260800190565b60208082526010908201526f4f6e6c7920666f72207374616b65727360801b604082015260600190565b90815260200190565b918252602082015260400190565b9283526020830191909152604082015260600190565b60005b83811015611af2578181015183820152602001611ada565b83811115610ec7575050600091015256fea2646970667358221220af70f1c0a6af91377dd723e29b6008b1c072e8b2041520cb23a17b0b919611a164736f6c63430006060033",
  "linkReferences": {},
  "deployedLinkReferences": {}
}