{
	"data": {
		"bytecode": {
			"linkReferences": {},
			"object": "600180546001600160a01b031990811673986cc1f619b2de476c05ab4baafd5805e5e186bd17909155600380548216737788bef6388404d6574bc9b6dc2d48b1d635b7c017905560048054821673e9e7cea3dedca5984780bafc599bd69add087d561781556005805483167342f6f551ae042cbe50c739158b4f0cac0edb9096179055600680548316732e91a0cecf28c5e518bb2e7fdcd9f8e2cd511c1017905560078054831673c924a8a789d7fafd089cc285e2546fc851b0942c17905560088054909216732ebe8cdbcb5fb8564bc45999dab8da264e31f24e179091556101006040526000608081815260a082905260c082905260e0919091526200010a9160099190620005db565b506040805180820190915273e9e7cea3dedca5984780bafc599bd69add087d5681527342f6f551ae042cbe50c739158b4f0cac0edb909660208201526200015690600a90600262000630565b503480156200016457600080fd5b5060405162002e4238038062002e428339810160408190526200018791620006ce565b600062000193620004a2565b600080546001600160a01b0319166001600160a01b0383169081178255604051929350917f8be0079c531659141344cd1fd0a4f28419497f9722a3daafe3b4186f6b6457e0908290a3506004805460405163095ea7b360e01b81526001600160a01b039091169163095ea7b391620002269173c924a8a789d7fafd089cc285e2546fc851b0942c916000199101620007a3565b602060405180830381600087803b1580156200024157600080fd5b505af115801562000256573d6000803e3d6000fd5b505050506040513d601f19601f820116820180604052508101906200027c91906200070c565b5060065460405163095ea7b360e01b81526001600160a01b039091169063095ea7b390620002c790732ebe8cdbcb5fb8564bc45999dab8da264e31f24e9060001990600401620007a3565b602060405180830381600087803b158015620002e257600080fd5b505af1158015620002f7573d6000803e3d6000fd5b505050506040513d601f19601f820116820180604052508101906200031d91906200070c565b5060065460405163095ea7b360e01b81526001600160a01b039091169063095ea7b390620003689073c924a8a789d7fafd089cc285e2546fc851b0942c9060001990600401620007a3565b602060405180830381600087803b1580156200038357600080fd5b505af115801562000398573d6000803e3d6000fd5b505050506040513d601f19601f82011682018060405250810190620003be91906200070c565b5060055460405163095ea7b360e01b81526001600160a01b039091169063095ea7b39062000409907310ed43c718714eb63d5aa57b78b54704e256024e9060001990600401620007a3565b602060405180830381600087803b1580156200042457600080fd5b505af115801562000439573d6000803e3d6000fd5b505050506040513d601f19601f820116820180604052508101906200045f91906200070c565b50600280546001600160a01b038085166001600160a01b03199283161790925560038054928416929091169190911790556200049a620004a6565b50506200080c565b3390565b6002546001600160a01b0316620004bc620004a2565b6001600160a01b03161480620004ee57506001546001600160a01b0316620004e3620004a2565b6001600160a01b0316145b806200051d5750620004ff620005cc565b6001600160a01b031662000512620004a2565b6001600160a01b0316145b620005455760405162461bcd60e51b81526004016200053c90620007bc565b60405180910390fd5b60035460405163ab33275360e01b81526001600160a01b0390911690819063ab33275390620005959030906000907310ed43c718714eb63d5aa57b78b54704e256024e90600a9060040162000735565b600060405180830381600087803b158015620005b057600080fd5b505af1158015620005c5573d6000803e3d6000fd5b5050505050565b6000546001600160a01b031690565b8280548282559060005260206000209081019282156200061e579160200282015b828111156200061e578251829060ff16905591602001919060010190620005fc565b506200062c92915062000696565b5090565b82805482825590600052602060002090810192821562000688579160200282015b828111156200068857825182546001600160a01b0319166001600160a01b0390911617825560209092019160019091019062000651565b506200062c929150620006ad565b5b808211156200062c576000815560010162000697565b5b808211156200062c5780546001600160a01b0319168155600101620006ae565b60008060408385031215620006e1578182fd5b8251620006ee81620007f3565b60208401519092506200070181620007f3565b809150509250929050565b6000602082840312156200071e578081fd5b815180151581146200072e578182fd5b9392505050565b60006080820160018060a01b0380881684526020878186015281871660408601526080606086015282865480855260a0870191508786528286209450855b818110156200079357855485168352600195860195928401920162000773565b50909a9950505050505050505050565b6001600160a01b03929092168252602082015260400190565b6020808252601f908201527f53747261746567793a204f7065726174696f6e206e6f7420616c6c6f77656400604082015260600190565b6001600160a01b03811681146200080957600080fd5b50565b612626806200081c6000396000f3fe608060405234801561001057600080fd5b50600436106101f05760003560e01c80637e1c0c091161010f578063cd4eb5db116100a2578063e9e15b4f11610071578063e9e15b4f14610368578063e9fad8ee1461037b578063f2fde38b14610383578063f586c6d914610396576101f0565b8063cd4eb5db1461033d578063d34cc3b314610345578063d4c3eea014610358578063e8b5e51f14610360576101f0565b806391cbf004116100de57806391cbf00414610307578063a694fc3a1461030f578063b97af19414610322578063babb4f3814610335576101f0565b80637e1c0c09146102dc5780638bbdbd3a146102e45780638da5cb5b146102f757806390811334146102ff576101f0565b80633630211a116101875780635fce3312116101565780635fce3312146102b157806368eacb9b146102b95780636a4db2fb146102c1578063715018a6146102d4576101f0565b80633630211a146102865780633ca5b2341461028e5780634641257d14610296578063479f69ef1461029e576101f0565b80632e17de78116101c35780632e17de781461023a5780632e1a7d4d1461024d578063315a095d14610260578063320cca5c14610273576101f0565b806305b015de146101f55780630e15561a146101ff5780631b6423cf1461021d5780632a6dd8c914610232575b600080fd5b6101fd61039e565b005b6102076105cd565b6040516102149190612510565b60405180910390f35b610225610678565b60405161021491906122c1565b610207610687565b6101fd6102483660046121f4565b610693565b6101fd61025b3660046121f4565b610817565b6101fd61026e3660046121f4565b610971565b6101fd610281366004611fa2565b610bfd565b6101fd610ceb565b610225610e88565b6101fd610e97565b6101fd6102ac366004611f1c565b610f2c565b610225610f83565b610225610f92565b6101fd6102cf366004611f77565b610fa1565b6101fd6110cf565b61020761114e565b6102076102f2366004612224565b6111d7565b610225611324565b610225611333565b610225611342565b6101fd61031d3660046121f4565b611351565b6101fd610330366004611f1c565b61149c565b6101fd6114f3565b6102256115ff565b6101fd610353366004611f3f565b61160e565b61020761173c565b6101fd611874565b6101fd610376366004611f1c565b611a95565b6101fd611aec565b6101fd610391366004611f1c565b611b80565b610225611bbe565b6002546001600160a01b03166103b2611bcd565b6001600160a01b031614806103e157506001546001600160a01b03166103d6611bcd565b6001600160a01b0316145b8061040b57506103ef611324565b6001600160a01b0316610400611bcd565b6001600160a01b0316145b6104305760405162461bcd60e51b8152600401610427906124d9565b60405180910390fd5b6005546040516370a0823160e01b81526000916001600160a01b0316906370a08231906104619030906004016122c1565b60206040518083038186803b15801561047957600080fd5b505afa15801561048d573d6000803e3d6000fd5b505050506040513d601f19601f820116820180604052508101906104b1919061220c565b905080156105ca576104c4600082611bd1565b600480546002546040516370a0823160e01b81526001600160a01b039283169363a9059cbb939092169184916370a0823191610502913091016122c1565b60206040518083038186803b15801561051a57600080fd5b505afa15801561052e573d6000803e3d6000fd5b505050506040513d601f19601f82011682018060405250810190610552919061220c565b6040518363ffffffff1660e01b815260040161056f929190612341565b602060405180830381600087803b15801561058957600080fd5b505af115801561059d573d6000803e3d6000fd5b505050506040513d601f19601f820116820180604052508101906105c191906120f4565b506105ca610ceb565b50565b60085460405163225866df60e11b815260009182916001600160a01b03909116906344b0cdbe906106059060099030906004016123d0565b60206040518083038186803b15801561061d57600080fd5b505afa158015610631573d6000803e3d6000fd5b505050506040513d601f19601f82011682018060405250810190610655919061220c565b905080610666576000915050610675565b6106716000826111d7565b9150505b90565b6007546001600160a01b031681565b670de0b6b3a764000090565b6002546001600160a01b03166106a7611bcd565b6001600160a01b031614806106d657506001546001600160a01b03166106cb611bcd565b6001600160a01b0316145b8061070057506106e4611324565b6001600160a01b03166106f5611bcd565b6001600160a01b0316145b61071c5760405162461bcd60e51b8152600401610427906124d9565b6008546040516393f1a40b60e01b81526000916001600160a01b0316906393f1a40b906107509060099030906004016123d0565b60206040518083038186803b15801561076857600080fd5b505afa15801561077c573d6000803e3d6000fd5b505050506040513d601f19601f820116820180604052508101906107a0919061220c565b9050808211156107ae578091505b600854604051630441a3e760e41b81526001600160a01b039091169063441a3e70906107e19060099086906004016123e7565b600060405180830381600087803b1580156107fb57600080fd5b505af115801561080f573d6000803e3d6000fd5b505050505050565b6002546001600160a01b031661082b611bcd565b6001600160a01b0316148061085a57506001546001600160a01b031661084f611bcd565b6001600160a01b0316145b806108845750610868611324565b6001600160a01b0316610879611bcd565b6001600160a01b0316145b6108a05760405162461bcd60e51b8152600401610427906124d9565b60006108aa61173c565b82670de0b6b3a764000002816108bc57fe5b6008546040516393f1a40b60e01b81529290910492506000916001600160a01b03909116906393f1a40b906108f89060099030906004016123d0565b60206040518083038186803b15801561091057600080fd5b505afa158015610924573d6000803e3d6000fd5b505050506040513d601f19601f82011682018060405250810190610948919061220c565b9050670de0b6b3a764000082820204818111156109625750805b61096b81610971565b50505050565b6002546001600160a01b0316610985611bcd565b6001600160a01b031614806109b457506001546001600160a01b03166109a9611bcd565b6001600160a01b0316145b806109de57506109c2611324565b6001600160a01b03166109d3611bcd565b6001600160a01b0316145b6109fa5760405162461bcd60e51b8152600401610427906124d9565b610a0381610693565b6006546040516370a0823160e01b81526000916001600160a01b0316906370a0823190610a349030906004016122c1565b60206040518083038186803b158015610a4c57600080fd5b505afa158015610a60573d6000803e3d6000fd5b505050506040513d601f19601f82011682018060405250810190610a84919061220c565b6007546040516301f1d0ab60e51b81529192506001600160a01b031690633e3a156090610ac1908490600190600090612710420190600401612576565b600060405180830381600087803b158015610adb57600080fd5b505af1158015610aef573d6000803e3d6000fd5b50505050610afb61039e565b600480546002546040516370a0823160e01b81526001600160a01b039283169363a9059cbb939092169184916370a0823191610b39913091016122c1565b60206040518083038186803b158015610b5157600080fd5b505afa158015610b65573d6000803e3d6000fd5b505050506040513d601f19601f82011682018060405250810190610b89919061220c565b6040518363ffffffff1660e01b8152600401610ba6929190612341565b602060405180830381600087803b158015610bc057600080fd5b505af1158015610bd4573d6000803e3d6000fd5b505050506040513d601f19601f82011682018060405250810190610bf891906120f4565b505050565b6002546001600160a01b0316610c11611bcd565b6001600160a01b03161480610c4057506001546001600160a01b0316610c35611bcd565b6001600160a01b0316145b80610c6a5750610c4e611324565b6001600160a01b0316610c5f611bcd565b6001600160a01b0316145b610c865760405162461bcd60e51b8152600401610427906124d9565b8051825114610ca75760405162461bcd60e51b815260040161042790612498565b60005b8251811015610bf857610ce3838281518110610cc257fe5b6020026020010151838381518110610cd657fe5b6020026020010151611d01565b600101610caa565b6002546001600160a01b0316610cff611bcd565b6001600160a01b03161480610d2e57506001546001600160a01b0316610d23611bcd565b6001600160a01b0316145b80610d585750610d3c611324565b6001600160a01b0316610d4d611bcd565b6001600160a01b0316145b610d745760405162461bcd60e51b8152600401610427906124d9565b600480546040516370a0823160e01b81526000926001600160a01b03909216916370a0823191610da6913091016122c1565b60206040518083038186803b158015610dbe57600080fd5b505afa158015610dd2573d6000803e3d6000fd5b505050506040513d601f19601f82011682018060405250810190610df6919061220c565b905080156105ca576004805460025460405163a9059cbb60e01b81526001600160a01b039283169363a9059cbb93610e32931691869101612341565b602060405180830381600087803b158015610e4c57600080fd5b505af1158015610e60573d6000803e3d6000fd5b505050506040513d601f19601f82011682018060405250810190610e8491906120f4565b5050565b6004546001600160a01b031681565b6002546001600160a01b0316610eab611bcd565b6001600160a01b03161480610eda57506001546001600160a01b0316610ecf611bcd565b6001600160a01b0316145b80610f045750610ee8611324565b6001600160a01b0316610ef9611bcd565b6001600160a01b0316145b610f205760405162461bcd60e51b8152600401610427906124d9565b610f2a6000610693565b565b610f34611bcd565b6000546001600160a01b03908116911614610f615760405162461bcd60e51b815260040161042790612463565b600380546001600160a01b0319166001600160a01b0392909216919091179055565b6003546001600160a01b031690565b6008546001600160a01b031681565b6002546001600160a01b0316610fb5611bcd565b6001600160a01b03161480610fe457506001546001600160a01b0316610fd9611bcd565b6001600160a01b0316145b8061100e5750610ff2611324565b6001600160a01b0316611003611bcd565b6001600160a01b0316145b61102a5760405162461bcd60e51b8152600401610427906124d9565b600061103461114e565b905080821115611042578091505b61104b82610693565b60065460405163a9059cbb60e01b81526001600160a01b039091169063a9059cbb9061107d9086908690600401612341565b602060405180830381600087803b15801561109757600080fd5b505af11580156110ab573d6000803e3d6000fd5b505050506040513d601f19601f8201168201806040525081019061096b91906120f4565b6110d7611bcd565b6000546001600160a01b039081169116146111045760405162461bcd60e51b815260040161042790612463565b600080546040516001600160a01b03909116907f8be0079c531659141344cd1fd0a4f28419497f9722a3daafe3b4186f6b6457e0908390a3600080546001600160a01b0319169055565b6008546040516393f1a40b60e01b81526000916001600160a01b0316906393f1a40b906111829060099030906004016123d0565b60206040518083038186803b15801561119a57600080fd5b505afa1580156111ae573d6000803e3d6000fd5b505050506040513d601f19601f820116820180604052508101906111d2919061220c565b905090565b6000816111e65750600061131e565b6003546001600160a01b03166111fa611e36565b6040516315a9f9ff60e11b81526001600160a01b03831690632b53f3fe906112289030908990600401612341565b60006040518083038186803b15801561124057600080fd5b505afa158015611254573d6000803e3d6000fd5b505050506040513d6000823e601f3d908101601f1916820160405261127c9190810190612114565b8051602082015160405163d06ca61f60e01b815292935090916060916001600160a01b0384169163d06ca61f916112b8918a9190600401612519565b60006040518083038186803b1580156112d057600080fd5b505afa1580156112e4573d6000803e3d6000fd5b505050506040513d6000823e601f3d908101601f1916820160405261130c9190810190612064565b905061131781611d94565b9450505050505b92915050565b6000546001600160a01b031690565b6001546001600160a01b031690565b6006546001600160a01b031681565b6002546001600160a01b0316611365611bcd565b6001600160a01b0316148061139457506001546001600160a01b0316611389611bcd565b6001600160a01b0316145b806113be57506113a2611324565b6001600160a01b03166113b3611bcd565b6001600160a01b0316145b6113da5760405162461bcd60e51b8152600401610427906124d9565b6006546040516370a0823160e01b81526000916001600160a01b0316906370a082319061140b9030906004016122c1565b60206040518083038186803b15801561142357600080fd5b505afa158015611437573d6000803e3d6000fd5b505050506040513d601f19601f8201168201806040525081019061145b919061220c565b905080821115611469578091505b600854604051631c57762b60e31b81526001600160a01b039091169063e2bbb158906107e19060099086906004016123e7565b6114a4611bcd565b6000546001600160a01b039081169116146114d15760405162461bcd60e51b815260040161042790612463565b600180546001600160a01b0319166001600160a01b0392909216919091179055565b6002546001600160a01b0316611507611bcd565b6001600160a01b0316148061153657506001546001600160a01b031661152b611bcd565b6001600160a01b0316145b806115605750611544611324565b6001600160a01b0316611555611bcd565b6001600160a01b0316145b61157c5760405162461bcd60e51b8152600401610427906124d9565b60035460405163ab33275360e01b81526001600160a01b0390911690819063ab332753906115ca9030906000907310ed43c718714eb63d5aa57b78b54704e256024e90600a906004016122d5565b600060405180830381600087803b1580156115e457600080fd5b505af11580156115f8573d6000803e3d6000fd5b5050505050565b6005546001600160a01b031681565b6002546001600160a01b0316611622611bcd565b6001600160a01b0316148061165157506001546001600160a01b0316611646611bcd565b6001600160a01b0316145b8061167b575061165f611324565b6001600160a01b0316611670611bcd565b6001600160a01b0316145b6116975760405162461bcd60e51b8152600401610427906124d9565b6040516370a0823160e01b815282906001600160a01b0382169063a9059cbb90849083906370a08231906116cf9030906004016122c1565b60206040518083038186803b1580156116e757600080fd5b505afa1580156116fb573d6000803e3d6000fd5b505050506040513d601f19601f8201168201806040525081019061171f919061220c565b6040518363ffffffff1660e01b815260040161107d929190612341565b60008061174761114e565b600480546040516370a0823160e01b81529293506000926001600160a01b03909116916370a082319161177c913091016122c1565b60206040518083038186803b15801561179457600080fd5b505afa1580156117a8573d6000803e3d6000fd5b505050506040513d601f19601f820116820180604052508101906117cc919061220c565b9050816117dc5791506106759050565b600754604051630262267d60e61b81526000916001600160a01b0316906398899f4090611812903090879060019060040161235a565b60206040518083038186803b15801561182a57600080fd5b505afa15801561183e573d6000803e3d6000fd5b505050506040513d601f19601f82011682018060405250810190611862919061220c565b905061186c6105cd565b019250505090565b6002546001600160a01b0316611888611bcd565b6001600160a01b031614806118b757506001546001600160a01b03166118ac611bcd565b6001600160a01b0316145b806118e157506118c5611324565b6001600160a01b03166118d6611bcd565b6001600160a01b0316145b6118fd5760405162461bcd60e51b8152600401610427906124d9565b600480546040516370a0823160e01b81526000926001600160a01b03909216916370a082319161192f913091016122c1565b60206040518083038186803b15801561194757600080fd5b505afa15801561195b573d6000803e3d6000fd5b505050506040513d601f19601f8201168201806040525081019061197f919061220c565b905080600960018154811061199057fe5b6000918252602082200191909155600754604051634d49e87d60e01b81526001600160a01b0390911691634d49e87d916119d59160099161271042019060040161237e565b600060405180830381600087803b1580156119ef57600080fd5b505af1158015611a03573d6000803e3d6000fd5b50506006546040516370a0823160e01b8152600093506001600160a01b0390911691506370a0823190611a3a9030906004016122c1565b60206040518083038186803b158015611a5257600080fd5b505afa158015611a66573d6000803e3d6000fd5b505050506040513d601f19601f82011682018060405250810190611a8a919061220c565b9050610e8481611351565b611a9d611bcd565b6000546001600160a01b03908116911614611aca5760405162461bcd60e51b815260040161042790612463565b600280546001600160a01b0319166001600160a01b0392909216919091179055565b6002546001600160a01b0316611b00611bcd565b6001600160a01b03161480611b2f57506001546001600160a01b0316611b24611bcd565b6001600160a01b0316145b80611b595750611b3d611324565b6001600160a01b0316611b4e611bcd565b6001600160a01b0316145b611b755760405162461bcd60e51b8152600401610427906124d9565b610f2a61025b61173c565b611b88611bcd565b6000546001600160a01b03908116911614611bb55760405162461bcd60e51b815260040161042790612463565b6105ca81611db5565b6002546001600160a01b031690565b3390565b6003546001600160a01b0316611be5611e36565b6040516315a9f9ff60e11b81526001600160a01b03831690632b53f3fe90611c139030908890600401612341565b60006040518083038186803b158015611c2b57600080fd5b505afa158015611c3f573d6000803e3d6000fd5b505050506040513d6000823e601f3d908101601f19168201604052611c679190810190612114565b805160208201516040516338ed173960e01b815292935090916001600160a01b038316916338ed173991611cab91889160009190309061271042019060040161253a565b600060405180830381600087803b158015611cc557600080fd5b505af1158015611cd9573d6000803e3d6000fd5b505050506040513d6000823e601f3d908101601f1916820160405261080f9190810190612064565b6001600160a01b038216611d275760405162461bcd60e51b81526004016104279061243b565b60006060836001600160a01b031683604051611d439190612288565b6000604051808303816000865af19150503d8060008114611d80576040519150601f19603f3d011682016040523d82523d6000602084013e611d85565b606091505b50915091508161096b57600080fd5b600081600183510381518110611da657fe5b60200260200101519050919050565b6001600160a01b038116611ddb5760405162461bcd60e51b8152600401610427906123f5565b600080546040516001600160a01b03808516939216917f8be0079c531659141344cd1fd0a4f28419497f9722a3daafe3b4186f6b6457e091a3600080546001600160a01b0319166001600160a01b0392909216919091179055565b60408051808201909152600081526060602082015290565b803561131e816125db565b6000601f8381840112611e6a578182fd5b8235611e7d611e78826125bb565b612594565b818152925060208084019085810160005b84811015611f10578135880189603f820112611ea957600080fd5b8381013567ffffffffffffffff811115611ec257600080fd5b611ed3818901601f19168601612594565b81815260408c81848601011115611ee957600080fd5b82818501888401375060009181018601919091528552509282019290820190600101611e8e565b50505050505092915050565b600060208284031215611f2d578081fd5b8135611f38816125db565b9392505050565b60008060408385031215611f51578081fd5b8235611f5c816125db565b91506020830135611f6c816125db565b809150509250929050565b60008060408385031215611f89578182fd5b8235611f94816125db565b946020939093013593505050565b60008060408385031215611fb4578182fd5b823567ffffffffffffffff80821115611fcb578384fd5b818501915085601f830112611fde578384fd5b8135611fec611e78826125bb565b80828252602080830192508086018a82838702890101111561200c578889fd5b8896505b84871015612036576120228b82611e4e565b845260019690960195928101928101612010565b50909650870135935050508082111561204d578283fd5b5061205a85828601611e59565b9150509250929050565b60006020808385031215612076578182fd5b825167ffffffffffffffff81111561208c578283fd5b8301601f8101851361209c578283fd5b80516120aa611e78826125bb565b81815283810190838501858402850186018910156120c6578687fd5b8694505b838510156120e85780518352600194909401939185019185016120ca565b50979650505050505050565b600060208284031215612105578081fd5b81518015158114611f38578182fd5b60006020808385031215612126578182fd5b825167ffffffffffffffff8082111561213d578384fd5b9084019060408287031215612150578384fd5b61215a6040612594565b8251612165816125db565b81528284015182811115612177578586fd5b80840193505086601f84011261218b578485fd5b8251915061219b611e78836125bb565b82815284810190848601868502860187018a10156121b7578788fd5b8795505b848610156121e25780516121ce816125db565b8352600195909501949186019186016121bb565b50948201949094529695505050505050565b600060208284031215612205578081fd5b5035919050565b60006020828403121561221d578081fd5b5051919050565b60008060408385031215612236578182fd5b50508035926020909101359150565b6000815180845260208085019450808401835b8381101561227d5781516001600160a01b031687529582019590820190600101612258565b509495945050505050565b60008251815b818110156122a8576020818601810151858301520161228e565b818111156122b65782828501525b509190910192915050565b6001600160a01b0391909116815260200190565b60006080820160018060a01b0380881684526020878186015281871660408601526080606086015282865480855260a0870191508786528286209450855b81811015612331578554851683526001958601959284019201612313565b50909a9950505050505050505050565b6001600160a01b03929092168252602082015260400190565b6001600160a01b03939093168352602083019190915260ff16604082015260600190565b6000606082016060835280865480835260808501915087845260209250828420845b828110156123bc578154845292840192600191820191016123a0565b505050908301949094525060400152919050565b9182526001600160a01b0316602082015260400190565b918252602082015260400190565b60208082526026908201527f4f776e61626c653a206e6577206f776e657220697320746865207a65726f206160408201526564647265737360d01b606082015260800190565b6020808252600e908201526d1d185c99d95d0b5a5b9d985b1a5960921b604082015260600190565b6020808252818101527f4f776e61626c653a2063616c6c6572206973206e6f7420746865206f776e6572604082015260600190565b60208082526021908201527f546f7320616e64206461746173206c656e67746820696e636f6e73697374656e6040820152601d60fa1b606082015260800190565b6020808252601f908201527f53747261746567793a204f7065726174696f6e206e6f7420616c6c6f77656400604082015260600190565b90815260200190565b6000838252604060208301526125326040830184612245565b949350505050565b600086825285602083015260a0604083015261255960a0830186612245565b6001600160a01b0394909416606083015250608001529392505050565b93845260ff9290921660208401526040830152606082015260800190565b60405181810167ffffffffffffffff811182821017156125b357600080fd5b604052919050565b600067ffffffffffffffff8211156125d1578081fd5b5060209081020190565b6001600160a01b03811681146105ca57600080fdfea26469706673582212206ee350dd9b2c168eca2a810c857ecfc945387b0c34f9e7729118ea16be4e6b4564736f6c634300060c0033",
			"opcodes": "PUSH1 0x1 DUP1 SLOAD PUSH1 0x1 PUSH1 0x1 PUSH1 0xA0 SHL SUB NOT SWAP1 DUP2 AND PUSH20 0x986CC1F619B2DE476C05AB4BAAFD5805E5E186BD OR SWAP1 SWAP2 SSTORE PUSH1 0x3 DUP1 SLOAD DUP3 AND PUSH20 0x7788BEF6388404D6574BC9B6DC2D48B1D635B7C0 OR SWAP1 SSTORE PUSH1 0x4 DUP1 SLOAD DUP3 AND PUSH20 0xE9E7CEA3DEDCA5984780BAFC599BD69ADD087D56 OR DUP2 SSTORE PUSH1 0x5 DUP1 SLOAD DUP4 AND PUSH20 0x42F6F551AE042CBE50C739158B4F0CAC0EDB9096 OR SWAP1 SSTORE PUSH1 0x6 DUP1 SLOAD DUP4 AND PUSH20 0x2E91A0CECF28C5E518BB2E7FDCD9F8E2CD511C10 OR SWAP1 SSTORE PUSH1 0x7 DUP1 SLOAD DUP4 AND PUSH20 0xC924A8A789D7FAFD089CC285E2546FC851B0942C OR SWAP1 SSTORE PUSH1 0x8 DUP1 SLOAD SWAP1 SWAP3 AND PUSH20 0x2EBE8CDBCB5FB8564BC45999DAB8DA264E31F24E OR SWAP1 SWAP2 SSTORE PUSH2 0x100 PUSH1 0x40 MSTORE PUSH1 0x0 PUSH1 0x80 DUP2 DUP2 MSTORE PUSH1 0xA0 DUP3 SWAP1 MSTORE PUSH1 0xC0 DUP3 SWAP1 MSTORE PUSH1 0xE0 SWAP2 SWAP1 SWAP2 MSTORE PUSH3 0x10A SWAP2 PUSH1 0x9 SWAP2 SWAP1 PUSH3 0x5DB JUMP JUMPDEST POP PUSH1 0x40 DUP1 MLOAD DUP1 DUP3 ADD SWAP1 SWAP2 MSTORE PUSH20 0xE9E7CEA3DEDCA5984780BAFC599BD69ADD087D56 DUP2 MSTORE PUSH20 0x42F6F551AE042CBE50C739158B4F0CAC0EDB9096 PUSH1 0x20 DUP3 ADD MSTORE PUSH3 0x156 SWAP1 PUSH1 0xA SWAP1 PUSH1 0x2 PUSH3 0x630 JUMP JUMPDEST POP CALLVALUE DUP1 ISZERO PUSH3 0x164 JUMPI PUSH1 0x0 DUP1 REVERT JUMPDEST POP PUSH1 0x40 MLOAD PUSH3 0x2E42 CODESIZE SUB DUP1 PUSH3 0x2E42 DUP4 CODECOPY DUP2 ADD PUSH1 0x40 DUP2 SWAP1 MSTORE PUSH3 0x187 SWAP2 PUSH3 0x6CE JUMP JUMPDEST PUSH1 0x0 PUSH3 0x193 PUSH3 0x4A2 JUMP JUMPDEST PUSH1 0x0 DUP1 SLOAD PUSH1 0x1 PUSH1 0x1 PUSH1 0xA0 SHL SUB NOT AND PUSH1 0x1 PUSH1 0x1 PUSH1 0xA0 SHL SUB DUP4 AND SWAP1 DUP2 OR DUP3 SSTORE PUSH1 0x40 MLOAD SWAP3 SWAP4 POP SWAP2 PUSH32 0x8BE0079C531659141344CD1FD0A4F28419497F9722A3DAAFE3B4186F6B6457E0 SWAP1 DUP3 SWAP1 LOG3 POP PUSH1 0x4 DUP1 SLOAD PUSH1 0x40 MLOAD PUSH4 0x95EA7B3 PUSH1 0xE0 SHL DUP2 MSTORE PUSH1 0x1 PUSH1 0x1 PUSH1 0xA0 SHL SUB SWAP1 SWAP2 AND SWAP2 PUSH4 0x95EA7B3 SWAP2 PUSH3 0x226 SWAP2 PUSH20 0xC924A8A789D7FAFD089CC285E2546FC851B0942C SWAP2 PUSH1 0x0 NOT SWAP2 ADD PUSH3 0x7A3 JUMP JUMPDEST PUSH1 0x20 PUSH1 0x40 MLOAD DUP1 DUP4 SUB DUP2 PUSH1 0x0 DUP8 DUP1 EXTCODESIZE ISZERO DUP1 ISZERO PUSH3 0x241 JUMPI PUSH1 0x0 DUP1 REVERT JUMPDEST POP GAS CALL ISZERO DUP1 ISZERO PUSH3 0x256 JUMPI RETURNDATASIZE PUSH1 0x0 DUP1 RETURNDATACOPY RETURNDATASIZE PUSH1 0x0 REVERT JUMPDEST POP POP POP POP PUSH1 0x40 MLOAD RETURNDATASIZE PUSH1 0x1F NOT PUSH1 0x1F DUP3 ADD AND DUP3 ADD DUP1 PUSH1 0x40 MSTORE POP DUP2 ADD SWAP1 PUSH3 0x27C SWAP2 SWAP1 PUSH3 0x70C JUMP JUMPDEST POP PUSH1 0x6 SLOAD PUSH1 0x40 MLOAD PUSH4 0x95EA7B3 PUSH1 0xE0 SHL DUP2 MSTORE PUSH1 0x1 PUSH1 0x1 PUSH1 0xA0 SHL SUB SWAP1 SWAP2 AND SWAP1 PUSH4 0x95EA7B3 SWAP1 PUSH3 0x2C7 SWAP1 PUSH20 0x2EBE8CDBCB5FB8564BC45999DAB8DA264E31F24E SWAP1 PUSH1 0x0 NOT SWAP1 PUSH1 0x4 ADD PUSH3 0x7A3 JUMP JUMPDEST PUSH1 0x20 PUSH1 0x40 MLOAD DUP1 DUP4 SUB DUP2 PUSH1 0x0 DUP8 DUP1 EXTCODESIZE ISZERO DUP1 ISZERO PUSH3 0x2E2 JUMPI PUSH1 0x0 DUP1 REVERT JUMPDEST POP GAS CALL ISZERO DUP1 ISZERO PUSH3 0x2F7 JUMPI RETURNDATASIZE PUSH1 0x0 DUP1 RETURNDATACOPY RETURNDATASIZE PUSH1 0x0 REVERT JUMPDEST POP POP POP POP PUSH1 0x40 MLOAD RETURNDATASIZE PUSH1 0x1F NOT PUSH1 0x1F DUP3 ADD AND DUP3 ADD DUP1 PUSH1 0x40 MSTORE POP DUP2 ADD SWAP1 PUSH3 0x31D SWAP2 SWAP1 PUSH3 0x70C JUMP JUMPDEST POP PUSH1 0x6 SLOAD PUSH1 0x40 MLOAD PUSH4 0x95EA7B3 PUSH1 0xE0 SHL DUP2 MSTORE PUSH1 0x1 PUSH1 0x1 PUSH1 0xA0 SHL SUB SWAP1 SWAP2 AND SWAP1 PUSH4 0x95EA7B3 SWAP1 PUSH3 0x368 SWAP1 PUSH20 0xC924A8A789D7FAFD089CC285E2546FC851B0942C SWAP1 PUSH1 0x0 NOT SWAP1 PUSH1 0x4 ADD PUSH3 0x7A3 JUMP JUMPDEST PUSH1 0x20 PUSH1 0x40 MLOAD DUP1 DUP4 SUB DUP2 PUSH1 0x0 DUP8 DUP1 EXTCODESIZE ISZERO DUP1 ISZERO PUSH3 0x383 JUMPI PUSH1 0x0 DUP1 REVERT JUMPDEST POP GAS CALL ISZERO DUP1 ISZERO PUSH3 0x398 JUMPI RETURNDATASIZE PUSH1 0x0 DUP1 RETURNDATACOPY RETURNDATASIZE PUSH1 0x0 REVERT JUMPDEST POP POP POP POP PUSH1 0x40 MLOAD RETURNDATASIZE PUSH1 0x1F NOT PUSH1 0x1F DUP3 ADD AND DUP3 ADD DUP1 PUSH1 0x40 MSTORE POP DUP2 ADD SWAP1 PUSH3 0x3BE SWAP2 SWAP1 PUSH3 0x70C JUMP JUMPDEST POP PUSH1 0x5 SLOAD PUSH1 0x40 MLOAD PUSH4 0x95EA7B3 PUSH1 0xE0 SHL DUP2 MSTORE PUSH1 0x1 PUSH1 0x1 PUSH1 0xA0 SHL SUB SWAP1 SWAP2 AND SWAP1 PUSH4 0x95EA7B3 SWAP1 PUSH3 0x409 SWAP1 PUSH20 0x10ED43C718714EB63D5AA57B78B54704E256024E SWAP1 PUSH1 0x0 NOT SWAP1 PUSH1 0x4 ADD PUSH3 0x7A3 JUMP JUMPDEST PUSH1 0x20 PUSH1 0x40 MLOAD DUP1 DUP4 SUB DUP2 PUSH1 0x0 DUP8 DUP1 EXTCODESIZE ISZERO DUP1 ISZERO PUSH3 0x424 JUMPI PUSH1 0x0 DUP1 REVERT JUMPDEST POP GAS CALL ISZERO DUP1 ISZERO PUSH3 0x439 JUMPI RETURNDATASIZE PUSH1 0x0 DUP1 RETURNDATACOPY RETURNDATASIZE PUSH1 0x0 REVERT JUMPDEST POP POP POP POP PUSH1 0x40 MLOAD RETURNDATASIZE PUSH1 0x1F NOT PUSH1 0x1F DUP3 ADD AND DUP3 ADD DUP1 PUSH1 0x40 MSTORE POP DUP2 ADD SWAP1 PUSH3 0x45F SWAP2 SWAP1 PUSH3 0x70C JUMP JUMPDEST POP PUSH1 0x2 DUP1 SLOAD PUSH1 0x1 PUSH1 0x1 PUSH1 0xA0 SHL SUB DUP1 DUP6 AND PUSH1 0x1 PUSH1 0x1 PUSH1 0xA0 SHL SUB NOT SWAP3 DUP4 AND OR SWAP1 SWAP3 SSTORE PUSH1 0x3 DUP1 SLOAD SWAP3 DUP5 AND SWAP3 SWAP1 SWAP2 AND SWAP2 SWAP1 SWAP2 OR SWAP1 SSTORE PUSH3 0x49A PUSH3 0x4A6 JUMP JUMPDEST POP POP PUSH3 0x80C JUMP JUMPDEST CALLER SWAP1 JUMP JUMPDEST PUSH1 0x2 SLOAD PUSH1 0x1 PUSH1 0x1 PUSH1 0xA0 SHL SUB AND PUSH3 0x4BC PUSH3 0x4A2 JUMP JUMPDEST PUSH1 0x1 PUSH1 0x1 PUSH1 0xA0 SHL SUB AND EQ DUP1 PUSH3 0x4EE JUMPI POP PUSH1 0x1 SLOAD PUSH1 0x1 PUSH1 0x1 PUSH1 0xA0 SHL SUB AND PUSH3 0x4E3 PUSH3 0x4A2 JUMP JUMPDEST PUSH1 0x1 PUSH1 0x1 PUSH1 0xA0 SHL SUB AND EQ JUMPDEST DUP1 PUSH3 0x51D JUMPI POP PUSH3 0x4FF PUSH3 0x5CC JUMP JUMPDEST PUSH1 0x1 PUSH1 0x1 PUSH1 0xA0 SHL SUB AND PUSH3 0x512 PUSH3 0x4A2 JUMP JUMPDEST PUSH1 0x1 PUSH1 0x1 PUSH1 0xA0 SHL SUB AND EQ JUMPDEST PUSH3 0x545 JUMPI PUSH1 0x40 MLOAD PUSH3 0x461BCD PUSH1 0xE5 SHL DUP2 MSTORE PUSH1 0x4 ADD PUSH3 0x53C SWAP1 PUSH3 0x7BC JUMP JUMPDEST PUSH1 0x40 MLOAD DUP1 SWAP2 SUB SWAP1 REVERT JUMPDEST PUSH1 0x3 SLOAD PUSH1 0x40 MLOAD PUSH4 0xAB332753 PUSH1 0xE0 SHL DUP2 MSTORE PUSH1 0x1 PUSH1 0x1 PUSH1 0xA0 SHL SUB SWAP1 SWAP2 AND SWAP1 DUP2 SWAP1 PUSH4 0xAB332753 SWAP1 PUSH3 0x595 SWAP1 ADDRESS SWAP1 PUSH1 0x0 SWAP1 PUSH20 0x10ED43C718714EB63D5AA57B78B54704E256024E SWAP1 PUSH1 0xA SWAP1 PUSH1 0x4 ADD PUSH3 0x735 JUMP JUMPDEST PUSH1 0x0 PUSH1 0x40 MLOAD DUP1 DUP4 SUB DUP2 PUSH1 0x0 DUP8 DUP1 EXTCODESIZE ISZERO DUP1 ISZERO PUSH3 0x5B0 JUMPI PUSH1 0x0 DUP1 REVERT JUMPDEST POP GAS CALL ISZERO DUP1 ISZERO PUSH3 0x5C5 JUMPI RETURNDATASIZE PUSH1 0x0 DUP1 RETURNDATACOPY RETURNDATASIZE PUSH1 0x0 REVERT JUMPDEST POP POP POP POP POP JUMP JUMPDEST PUSH1 0x0 SLOAD PUSH1 0x1 PUSH1 0x1 PUSH1 0xA0 SHL SUB AND SWAP1 JUMP JUMPDEST DUP3 DUP1 SLOAD DUP3 DUP3 SSTORE SWAP1 PUSH1 0x0 MSTORE PUSH1 0x20 PUSH1 0x0 KECCAK256 SWAP1 DUP2 ADD SWAP3 DUP3 ISZERO PUSH3 0x61E JUMPI SWAP2 PUSH1 0x20 MUL DUP3 ADD JUMPDEST DUP3 DUP2 GT ISZERO PUSH3 0x61E JUMPI DUP3 MLOAD DUP3 SWAP1 PUSH1 0xFF AND SWAP1 SSTORE SWAP2 PUSH1 0x20 ADD SWAP2 SWAP1 PUSH1 0x1 ADD SWAP1 PUSH3 0x5FC JUMP JUMPDEST POP PUSH3 0x62C SWAP3 SWAP2 POP PUSH3 0x696 JUMP JUMPDEST POP SWAP1 JUMP JUMPDEST DUP3 DUP1 SLOAD DUP3 DUP3 SSTORE SWAP1 PUSH1 0x0 MSTORE PUSH1 0x20 PUSH1 0x0 KECCAK256 SWAP1 DUP2 ADD SWAP3 DUP3 ISZERO PUSH3 0x688 JUMPI SWAP2 PUSH1 0x20 MUL DUP3 ADD JUMPDEST DUP3 DUP2 GT ISZERO PUSH3 0x688 JUMPI DUP3 MLOAD DUP3 SLOAD PUSH1 0x1 PUSH1 0x1 PUSH1 0xA0 SHL SUB NOT AND PUSH1 0x1 PUSH1 0x1 PUSH1 0xA0 SHL SUB SWAP1 SWAP2 AND OR DUP3 SSTORE PUSH1 0x20 SWAP1 SWAP3 ADD SWAP2 PUSH1 0x1 SWAP1 SWAP2 ADD SWAP1 PUSH3 0x651 JUMP JUMPDEST POP PUSH3 0x62C SWAP3 SWAP2 POP PUSH3 0x6AD JUMP JUMPDEST JUMPDEST DUP1 DUP3 GT ISZERO PUSH3 0x62C JUMPI PUSH1 0x0 DUP2 SSTORE PUSH1 0x1 ADD PUSH3 0x697 JUMP JUMPDEST JUMPDEST DUP1 DUP3 GT ISZERO PUSH3 0x62C JUMPI DUP1 SLOAD PUSH1 0x1 PUSH1 0x1 PUSH1 0xA0 SHL SUB NOT AND DUP2 SSTORE PUSH1 0x1 ADD PUSH3 0x6AE JUMP JUMPDEST PUSH1 0x0 DUP1 PUSH1 0x40 DUP4 DUP6 SUB SLT ISZERO PUSH3 0x6E1 JUMPI DUP2 DUP3 REVERT JUMPDEST DUP3 MLOAD PUSH3 0x6EE DUP2 PUSH3 0x7F3 JUMP JUMPDEST PUSH1 0x20 DUP5 ADD MLOAD SWAP1 SWAP3 POP PUSH3 0x701 DUP2 PUSH3 0x7F3 JUMP JUMPDEST DUP1 SWAP2 POP POP SWAP3 POP SWAP3 SWAP1 POP JUMP JUMPDEST PUSH1 0x0 PUSH1 0x20 DUP3 DUP5 SUB SLT ISZERO PUSH3 0x71E JUMPI DUP1 DUP2 REVERT JUMPDEST DUP2 MLOAD DUP1 ISZERO ISZERO DUP2 EQ PUSH3 0x72E JUMPI DUP2 DUP3 REVERT JUMPDEST SWAP4 SWAP3 POP POP POP JUMP JUMPDEST PUSH1 0x0 PUSH1 0x80 DUP3 ADD PUSH1 0x1 DUP1 PUSH1 0xA0 SHL SUB DUP1 DUP9 AND DUP5 MSTORE PUSH1 0x20 DUP8 DUP2 DUP7 ADD MSTORE DUP2 DUP8 AND PUSH1 0x40 DUP7 ADD MSTORE PUSH1 0x80 PUSH1 0x60 DUP7 ADD MSTORE DUP3 DUP7 SLOAD DUP1 DUP6 MSTORE PUSH1 0xA0 DUP8 ADD SWAP2 POP DUP8 DUP7 MSTORE DUP3 DUP7 KECCAK256 SWAP5 POP DUP6 JUMPDEST DUP2 DUP2 LT ISZERO PUSH3 0x793 JUMPI DUP6 SLOAD DUP6 AND DUP4 MSTORE PUSH1 0x1 SWAP6 DUP7 ADD SWAP6 SWAP3 DUP5 ADD SWAP3 ADD PUSH3 0x773 JUMP JUMPDEST POP SWAP1 SWAP11 SWAP10 POP POP POP POP POP POP POP POP POP POP JUMP JUMPDEST PUSH1 0x1 PUSH1 0x1 PUSH1 0xA0 SHL SUB SWAP3 SWAP1 SWAP3 AND DUP3 MSTORE PUSH1 0x20 DUP3 ADD MSTORE PUSH1 0x40 ADD SWAP1 JUMP JUMPDEST PUSH1 0x20 DUP1 DUP3 MSTORE PUSH1 0x1F SWAP1 DUP3 ADD MSTORE PUSH32 0x53747261746567793A204F7065726174696F6E206E6F7420616C6C6F77656400 PUSH1 0x40 DUP3 ADD MSTORE PUSH1 0x60 ADD SWAP1 JUMP JUMPDEST PUSH1 0x1 PUSH1 0x1 PUSH1 0xA0 SHL SUB DUP2 AND DUP2 EQ PUSH3 0x809 JUMPI PUSH1 0x0 DUP1 REVERT JUMPDEST POP JUMP JUMPDEST PUSH2 0x2626 DUP1 PUSH3 0x81C PUSH1 0x0 CODECOPY PUSH1 0x0 RETURN INVALID PUSH1 0x80 PUSH1 0x40 MSTORE CALLVALUE DUP1 ISZERO PUSH2 0x10 JUMPI PUSH1 0x0 DUP1 REVERT JUMPDEST POP PUSH1 0x4 CALLDATASIZE LT PUSH2 0x1F0 JUMPI PUSH1 0x0 CALLDATALOAD PUSH1 0xE0 SHR DUP1 PUSH4 0x7E1C0C09 GT PUSH2 0x10F JUMPI DUP1 PUSH4 0xCD4EB5DB GT PUSH2 0xA2 JUMPI DUP1 PUSH4 0xE9E15B4F GT PUSH2 0x71 JUMPI DUP1 PUSH4 0xE9E15B4F EQ PUSH2 0x368 JUMPI DUP1 PUSH4 0xE9FAD8EE EQ PUSH2 0x37B JUMPI DUP1 PUSH4 0xF2FDE38B EQ PUSH2 0x383 JUMPI DUP1 PUSH4 0xF586C6D9 EQ PUSH2 0x396 JUMPI PUSH2 0x1F0 JUMP JUMPDEST DUP1 PUSH4 0xCD4EB5DB EQ PUSH2 0x33D JUMPI DUP1 PUSH4 0xD34CC3B3 EQ PUSH2 0x345 JUMPI DUP1 PUSH4 0xD4C3EEA0 EQ PUSH2 0x358 JUMPI DUP1 PUSH4 0xE8B5E51F EQ PUSH2 0x360 JUMPI PUSH2 0x1F0 JUMP JUMPDEST DUP1 PUSH4 0x91CBF004 GT PUSH2 0xDE JUMPI DUP1 PUSH4 0x91CBF004 EQ PUSH2 0x307 JUMPI DUP1 PUSH4 0xA694FC3A EQ PUSH2 0x30F JUMPI DUP1 PUSH4 0xB97AF194 EQ PUSH2 0x322 JUMPI DUP1 PUSH4 0xBABB4F38 EQ PUSH2 0x335 JUMPI PUSH2 0x1F0 JUMP JUMPDEST DUP1 PUSH4 0x7E1C0C09 EQ PUSH2 0x2DC JUMPI DUP1 PUSH4 0x8BBDBD3A EQ PUSH2 0x2E4 JUMPI DUP1 PUSH4 0x8DA5CB5B EQ PUSH2 0x2F7 JUMPI DUP1 PUSH4 0x90811334 EQ PUSH2 0x2FF JUMPI PUSH2 0x1F0 JUMP JUMPDEST DUP1 PUSH4 0x3630211A GT PUSH2 0x187 JUMPI DUP1 PUSH4 0x5FCE3312 GT PUSH2 0x156 JUMPI DUP1 PUSH4 0x5FCE3312 EQ PUSH2 0x2B1 JUMPI DUP1 PUSH4 0x68EACB9B EQ PUSH2 0x2B9 JUMPI DUP1 PUSH4 0x6A4DB2FB EQ PUSH2 0x2C1 JUMPI DUP1 PUSH4 0x715018A6 EQ PUSH2 0x2D4 JUMPI PUSH2 0x1F0 JUMP JUMPDEST DUP1 PUSH4 0x3630211A EQ PUSH2 0x286 JUMPI DUP1 PUSH4 0x3CA5B234 EQ PUSH2 0x28E JUMPI DUP1 PUSH4 0x4641257D EQ PUSH2 0x296 JUMPI DUP1 PUSH4 0x479F69EF EQ PUSH2 0x29E JUMPI PUSH2 0x1F0 JUMP JUMPDEST DUP1 PUSH4 0x2E17DE78 GT PUSH2 0x1C3 JUMPI DUP1 PUSH4 0x2E17DE78 EQ PUSH2 0x23A JUMPI DUP1 PUSH4 0x2E1A7D4D EQ PUSH2 0x24D JUMPI DUP1 PUSH4 0x315A095D EQ PUSH2 0x260 JUMPI DUP1 PUSH4 0x320CCA5C EQ PUSH2 0x273 JUMPI PUSH2 0x1F0 JUMP JUMPDEST DUP1 PUSH4 0x5B015DE EQ PUSH2 0x1F5 JUMPI DUP1 PUSH4 0xE15561A EQ PUSH2 0x1FF JUMPI DUP1 PUSH4 0x1B6423CF EQ PUSH2 0x21D JUMPI DUP1 PUSH4 0x2A6DD8C9 EQ PUSH2 0x232 JUMPI JUMPDEST PUSH1 0x0 DUP1 REVERT JUMPDEST PUSH2 0x1FD PUSH2 0x39E JUMP JUMPDEST STOP JUMPDEST PUSH2 0x207 PUSH2 0x5CD JUMP JUMPDEST PUSH1 0x40 MLOAD PUSH2 0x214 SWAP2 SWAP1 PUSH2 0x2510 JUMP JUMPDEST PUSH1 0x40 MLOAD DUP1 SWAP2 SUB SWAP1 RETURN JUMPDEST PUSH2 0x225 PUSH2 0x678 JUMP JUMPDEST PUSH1 0x40 MLOAD PUSH2 0x214 SWAP2 SWAP1 PUSH2 0x22C1 JUMP JUMPDEST PUSH2 0x207 PUSH2 0x687 JUMP JUMPDEST PUSH2 0x1FD PUSH2 0x248 CALLDATASIZE PUSH1 0x4 PUSH2 0x21F4 JUMP JUMPDEST PUSH2 0x693 JUMP JUMPDEST PUSH2 0x1FD PUSH2 0x25B CALLDATASIZE PUSH1 0x4 PUSH2 0x21F4 JUMP JUMPDEST PUSH2 0x817 JUMP JUMPDEST PUSH2 0x1FD PUSH2 0x26E CALLDATASIZE PUSH1 0x4 PUSH2 0x21F4 JUMP JUMPDEST PUSH2 0x971 JUMP JUMPDEST PUSH2 0x1FD PUSH2 0x281 CALLDATASIZE PUSH1 0x4 PUSH2 0x1FA2 JUMP JUMPDEST PUSH2 0xBFD JUMP JUMPDEST PUSH2 0x1FD PUSH2 0xCEB JUMP JUMPDEST PUSH2 0x225 PUSH2 0xE88 JUMP JUMPDEST PUSH2 0x1FD PUSH2 0xE97 JUMP JUMPDEST PUSH2 0x1FD PUSH2 0x2AC CALLDATASIZE PUSH1 0x4 PUSH2 0x1F1C JUMP JUMPDEST PUSH2 0xF2C JUMP JUMPDEST PUSH2 0x225 PUSH2 0xF83 JUMP JUMPDEST PUSH2 0x225 PUSH2 0xF92 JUMP JUMPDEST PUSH2 0x1FD PUSH2 0x2CF CALLDATASIZE PUSH1 0x4 PUSH2 0x1F77 JUMP JUMPDEST PUSH2 0xFA1 JUMP JUMPDEST PUSH2 0x1FD PUSH2 0x10CF JUMP JUMPDEST PUSH2 0x207 PUSH2 0x114E JUMP JUMPDEST PUSH2 0x207 PUSH2 0x2F2 CALLDATASIZE PUSH1 0x4 PUSH2 0x2224 JUMP JUMPDEST PUSH2 0x11D7 JUMP JUMPDEST PUSH2 0x225 PUSH2 0x1324 JUMP JUMPDEST PUSH2 0x225 PUSH2 0x1333 JUMP JUMPDEST PUSH2 0x225 PUSH2 0x1342 JUMP JUMPDEST PUSH2 0x1FD PUSH2 0x31D CALLDATASIZE PUSH1 0x4 PUSH2 0x21F4 JUMP JUMPDEST PUSH2 0x1351 JUMP JUMPDEST PUSH2 0x1FD PUSH2 0x330 CALLDATASIZE PUSH1 0x4 PUSH2 0x1F1C JUMP JUMPDEST PUSH2 0x149C JUMP JUMPDEST PUSH2 0x1FD PUSH2 0x14F3 JUMP JUMPDEST PUSH2 0x225 PUSH2 0x15FF JUMP JUMPDEST PUSH2 0x1FD PUSH2 0x353 CALLDATASIZE PUSH1 0x4 PUSH2 0x1F3F JUMP JUMPDEST PUSH2 0x160E JUMP JUMPDEST PUSH2 0x207 PUSH2 0x173C JUMP JUMPDEST PUSH2 0x1FD PUSH2 0x1874 JUMP JUMPDEST PUSH2 0x1FD PUSH2 0x376 CALLDATASIZE PUSH1 0x4 PUSH2 0x1F1C JUMP JUMPDEST PUSH2 0x1A95 JUMP JUMPDEST PUSH2 0x1FD PUSH2 0x1AEC JUMP JUMPDEST PUSH2 0x1FD PUSH2 0x391 CALLDATASIZE PUSH1 0x4 PUSH2 0x1F1C JUMP JUMPDEST PUSH2 0x1B80 JUMP JUMPDEST PUSH2 0x225 PUSH2 0x1BBE JUMP JUMPDEST PUSH1 0x2 SLOAD PUSH1 0x1 PUSH1 0x1 PUSH1 0xA0 SHL SUB AND PUSH2 0x3B2 PUSH2 0x1BCD JUMP JUMPDEST PUSH1 0x1 PUSH1 0x1 PUSH1 0xA0 SHL SUB AND EQ DUP1 PUSH2 0x3E1 JUMPI POP PUSH1 0x1 SLOAD PUSH1 0x1 PUSH1 0x1 PUSH1 0xA0 SHL SUB AND PUSH2 0x3D6 PUSH2 0x1BCD JUMP JUMPDEST PUSH1 0x1 PUSH1 0x1 PUSH1 0xA0 SHL SUB AND EQ JUMPDEST DUP1 PUSH2 0x40B JUMPI POP PUSH2 0x3EF PUSH2 0x1324 JUMP JUMPDEST PUSH1 0x1 PUSH1 0x1 PUSH1 0xA0 SHL SUB AND PUSH2 0x400 PUSH2 0x1BCD JUMP JUMPDEST PUSH1 0x1 PUSH1 0x1 PUSH1 0xA0 SHL SUB AND EQ JUMPDEST PUSH2 0x430 JUMPI PUSH1 0x40 MLOAD PUSH3 0x461BCD PUSH1 0xE5 SHL DUP2 MSTORE PUSH1 0x4 ADD PUSH2 0x427 SWAP1 PUSH2 0x24D9 JUMP JUMPDEST PUSH1 0x40 MLOAD DUP1 SWAP2 SUB SWAP1 REVERT JUMPDEST PUSH1 0x5 SLOAD PUSH1 0x40 MLOAD PUSH4 0x70A08231 PUSH1 0xE0 SHL DUP2 MSTORE PUSH1 0x0 SWAP2 PUSH1 0x1 PUSH1 0x1 PUSH1 0xA0 SHL SUB AND SWAP1 PUSH4 0x70A08231 SWAP1 PUSH2 0x461 SWAP1 ADDRESS SWAP1 PUSH1 0x4 ADD PUSH2 0x22C1 JUMP JUMPDEST PUSH1 0x20 PUSH1 0x40 MLOAD DUP1 DUP4 SUB DUP2 DUP7 DUP1 EXTCODESIZE ISZERO DUP1 ISZERO PUSH2 0x479 JUMPI PUSH1 0x0 DUP1 REVERT JUMPDEST POP GAS STATICCALL ISZERO DUP1 ISZERO PUSH2 0x48D JUMPI RETURNDATASIZE PUSH1 0x0 DUP1 RETURNDATACOPY RETURNDATASIZE PUSH1 0x0 REVERT JUMPDEST POP POP POP POP PUSH1 0x40 MLOAD RETURNDATASIZE PUSH1 0x1F NOT PUSH1 0x1F DUP3 ADD AND DUP3 ADD DUP1 PUSH1 0x40 MSTORE POP DUP2 ADD SWAP1 PUSH2 0x4B1 SWAP2 SWAP1 PUSH2 0x220C JUMP JUMPDEST SWAP1 POP DUP1 ISZERO PUSH2 0x5CA JUMPI PUSH2 0x4C4 PUSH1 0x0 DUP3 PUSH2 0x1BD1 JUMP JUMPDEST PUSH1 0x4 DUP1 SLOAD PUSH1 0x2 SLOAD PUSH1 0x40 MLOAD PUSH4 0x70A08231 PUSH1 0xE0 SHL DUP2 MSTORE PUSH1 0x1 PUSH1 0x1 PUSH1 0xA0 SHL SUB SWAP3 DUP4 AND SWAP4 PUSH4 0xA9059CBB SWAP4 SWAP1 SWAP3 AND SWAP2 DUP5 SWAP2 PUSH4 0x70A08231 SWAP2 PUSH2 0x502 SWAP2 ADDRESS SWAP2 ADD PUSH2 0x22C1 JUMP JUMPDEST PUSH1 0x20 PUSH1 0x40 MLOAD DUP1 DUP4 SUB DUP2 DUP7 DUP1 EXTCODESIZE ISZERO DUP1 ISZERO PUSH2 0x51A JUMPI PUSH1 0x0 DUP1 REVERT JUMPDEST POP GAS STATICCALL ISZERO DUP1 ISZERO PUSH2 0x52E JUMPI RETURNDATASIZE PUSH1 0x0 DUP1 RETURNDATACOPY RETURNDATASIZE PUSH1 0x0 REVERT JUMPDEST POP POP POP POP PUSH1 0x40 MLOAD RETURNDATASIZE PUSH1 0x1F NOT PUSH1 0x1F DUP3 ADD AND DUP3 ADD DUP1 PUSH1 0x40 MSTORE POP DUP2 ADD SWAP1 PUSH2 0x552 SWAP2 SWAP1 PUSH2 0x220C JUMP JUMPDEST PUSH1 0x40 MLOAD DUP4 PUSH4 0xFFFFFFFF AND PUSH1 0xE0 SHL DUP2 MSTORE PUSH1 0x4 ADD PUSH2 0x56F SWAP3 SWAP2 SWAP1 PUSH2 0x2341 JUMP JUMPDEST PUSH1 0x20 PUSH1 0x40 MLOAD DUP1 DUP4 SUB DUP2 PUSH1 0x0 DUP8 DUP1 EXTCODESIZE ISZERO DUP1 ISZERO PUSH2 0x589 JUMPI PUSH1 0x0 DUP1 REVERT JUMPDEST POP GAS CALL ISZERO DUP1 ISZERO PUSH2 0x59D JUMPI RETURNDATASIZE PUSH1 0x0 DUP1 RETURNDATACOPY RETURNDATASIZE PUSH1 0x0 REVERT JUMPDEST POP POP POP POP PUSH1 0x40 MLOAD RETURNDATASIZE PUSH1 0x1F NOT PUSH1 0x1F DUP3 ADD AND DUP3 ADD DUP1 PUSH1 0x40 MSTORE POP DUP2 ADD SWAP1 PUSH2 0x5C1 SWAP2 SWAP1 PUSH2 0x20F4 JUMP JUMPDEST POP PUSH2 0x5CA PUSH2 0xCEB JUMP JUMPDEST POP JUMP JUMPDEST PUSH1 0x8 SLOAD PUSH1 0x40 MLOAD PUSH4 0x225866DF PUSH1 0xE1 SHL DUP2 MSTORE PUSH1 0x0 SWAP2 DUP3 SWAP2 PUSH1 0x1 PUSH1 0x1 PUSH1 0xA0 SHL SUB SWAP1 SWAP2 AND SWAP1 PUSH4 0x44B0CDBE SWAP1 PUSH2 0x605 SWAP1 PUSH1 0x9 SWAP1 ADDRESS SWAP1 PUSH1 0x4 ADD PUSH2 0x23D0 JUMP JUMPDEST PUSH1 0x20 PUSH1 0x40 MLOAD DUP1 DUP4 SUB DUP2 DUP7 DUP1 EXTCODESIZE ISZERO DUP1 ISZERO PUSH2 0x61D JUMPI PUSH1 0x0 DUP1 REVERT JUMPDEST POP GAS STATICCALL ISZERO DUP1 ISZERO PUSH2 0x631 JUMPI RETURNDATASIZE PUSH1 0x0 DUP1 RETURNDATACOPY RETURNDATASIZE PUSH1 0x0 REVERT JUMPDEST POP POP POP POP PUSH1 0x40 MLOAD RETURNDATASIZE PUSH1 0x1F NOT PUSH1 0x1F DUP3 ADD AND DUP3 ADD DUP1 PUSH1 0x40 MSTORE POP DUP2 ADD SWAP1 PUSH2 0x655 SWAP2 SWAP1 PUSH2 0x220C JUMP JUMPDEST SWAP1 POP DUP1 PUSH2 0x666 JUMPI PUSH1 0x0 SWAP2 POP POP PUSH2 0x675 JUMP JUMPDEST PUSH2 0x671 PUSH1 0x0 DUP3 PUSH2 0x11D7 JUMP JUMPDEST SWAP2 POP POP JUMPDEST SWAP1 JUMP JUMPDEST PUSH1 0x7 SLOAD PUSH1 0x1 PUSH1 0x1 PUSH1 0xA0 SHL SUB AND DUP2 JUMP JUMPDEST PUSH8 0xDE0B6B3A7640000 SWAP1 JUMP JUMPDEST PUSH1 0x2 SLOAD PUSH1 0x1 PUSH1 0x1 PUSH1 0xA0 SHL SUB AND PUSH2 0x6A7 PUSH2 0x1BCD JUMP JUMPDEST PUSH1 0x1 PUSH1 0x1 PUSH1 0xA0 SHL SUB AND EQ DUP1 PUSH2 0x6D6 JUMPI POP PUSH1 0x1 SLOAD PUSH1 0x1 PUSH1 0x1 PUSH1 0xA0 SHL SUB AND PUSH2 0x6CB PUSH2 0x1BCD JUMP JUMPDEST PUSH1 0x1 PUSH1 0x1 PUSH1 0xA0 SHL SUB AND EQ JUMPDEST DUP1 PUSH2 0x700 JUMPI POP PUSH2 0x6E4 PUSH2 0x1324 JUMP JUMPDEST PUSH1 0x1 PUSH1 0x1 PUSH1 0xA0 SHL SUB AND PUSH2 0x6F5 PUSH2 0x1BCD JUMP JUMPDEST PUSH1 0x1 PUSH1 0x1 PUSH1 0xA0 SHL SUB AND EQ JUMPDEST PUSH2 0x71C JUMPI PUSH1 0x40 MLOAD PUSH3 0x461BCD PUSH1 0xE5 SHL DUP2 MSTORE PUSH1 0x4 ADD PUSH2 0x427 SWAP1 PUSH2 0x24D9 JUMP JUMPDEST PUSH1 0x8 SLOAD PUSH1 0x40 MLOAD PUSH4 0x93F1A40B PUSH1 0xE0 SHL DUP2 MSTORE PUSH1 0x0 SWAP2 PUSH1 0x1 PUSH1 0x1 PUSH1 0xA0 SHL SUB AND SWAP1 PUSH4 0x93F1A40B SWAP1 PUSH2 0x750 SWAP1 PUSH1 0x9 SWAP1 ADDRESS SWAP1 PUSH1 0x4 ADD PUSH2 0x23D0 JUMP JUMPDEST PUSH1 0x20 PUSH1 0x40 MLOAD DUP1 DUP4 SUB DUP2 DUP7 DUP1 EXTCODESIZE ISZERO DUP1 ISZERO PUSH2 0x768 JUMPI PUSH1 0x0 DUP1 REVERT JUMPDEST POP GAS STATICCALL ISZERO DUP1 ISZERO PUSH2 0x77C JUMPI RETURNDATASIZE PUSH1 0x0 DUP1 RETURNDATACOPY RETURNDATASIZE PUSH1 0x0 REVERT JUMPDEST POP POP POP POP PUSH1 0x40 MLOAD RETURNDATASIZE PUSH1 0x1F NOT PUSH1 0x1F DUP3 ADD AND DUP3 ADD DUP1 PUSH1 0x40 MSTORE POP DUP2 ADD SWAP1 PUSH2 0x7A0 SWAP2 SWAP1 PUSH2 0x220C JUMP JUMPDEST SWAP1 POP DUP1 DUP3 GT ISZERO PUSH2 0x7AE JUMPI DUP1 SWAP2 POP JUMPDEST PUSH1 0x8 SLOAD PUSH1 0x40 MLOAD PUSH4 0x441A3E7 PUSH1 0xE4 SHL DUP2 MSTORE PUSH1 0x1 PUSH1 0x1 PUSH1 0xA0 SHL SUB SWAP1 SWAP2 AND SWAP1 PUSH4 0x441A3E70 SWAP1 PUSH2 0x7E1 SWAP1 PUSH1 0x9 SWAP1 DUP7 SWAP1 PUSH1 0x4 ADD PUSH2 0x23E7 JUMP JUMPDEST PUSH1 0x0 PUSH1 0x40 MLOAD DUP1 DUP4 SUB DUP2 PUSH1 0x0 DUP8 DUP1 EXTCODESIZE ISZERO DUP1 ISZERO PUSH2 0x7FB JUMPI PUSH1 0x0 DUP1 REVERT JUMPDEST POP GAS CALL ISZERO DUP1 ISZERO PUSH2 0x80F JUMPI RETURNDATASIZE PUSH1 0x0 DUP1 RETURNDATACOPY RETURNDATASIZE PUSH1 0x0 REVERT JUMPDEST POP POP POP POP POP POP JUMP JUMPDEST PUSH1 0x2 SLOAD PUSH1 0x1 PUSH1 0x1 PUSH1 0xA0 SHL SUB AND PUSH2 0x82B PUSH2 0x1BCD JUMP JUMPDEST PUSH1 0x1 PUSH1 0x1 PUSH1 0xA0 SHL SUB AND EQ DUP1 PUSH2 0x85A JUMPI POP PUSH1 0x1 SLOAD PUSH1 0x1 PUSH1 0x1 PUSH1 0xA0 SHL SUB AND PUSH2 0x84F PUSH2 0x1BCD JUMP JUMPDEST PUSH1 0x1 PUSH1 0x1 PUSH1 0xA0 SHL SUB AND EQ JUMPDEST DUP1 PUSH2 0x884 JUMPI POP PUSH2 0x868 PUSH2 0x1324 JUMP JUMPDEST PUSH1 0x1 PUSH1 0x1 PUSH1 0xA0 SHL SUB AND PUSH2 0x879 PUSH2 0x1BCD JUMP JUMPDEST PUSH1 0x1 PUSH1 0x1 PUSH1 0xA0 SHL SUB AND EQ JUMPDEST PUSH2 0x8A0 JUMPI PUSH1 0x40 MLOAD PUSH3 0x461BCD PUSH1 0xE5 SHL DUP2 MSTORE PUSH1 0x4 ADD PUSH2 0x427 SWAP1 PUSH2 0x24D9 JUMP JUMPDEST PUSH1 0x0 PUSH2 0x8AA PUSH2 0x173C JUMP JUMPDEST DUP3 PUSH8 0xDE0B6B3A7640000 MUL DUP2 PUSH2 0x8BC JUMPI INVALID JUMPDEST PUSH1 0x8 SLOAD PUSH1 0x40 MLOAD PUSH4 0x93F1A40B PUSH1 0xE0 SHL DUP2 MSTORE SWAP3 SWAP1 SWAP2 DIV SWAP3 POP PUSH1 0x0 SWAP2 PUSH1 0x1 PUSH1 0x1 PUSH1 0xA0 SHL SUB SWAP1 SWAP2 AND SWAP1 PUSH4 0x93F1A40B SWAP1 PUSH2 0x8F8 SWAP1 PUSH1 0x9 SWAP1 ADDRESS SWAP1 PUSH1 0x4 ADD PUSH2 0x23D0 JUMP JUMPDEST PUSH1 0x20 PUSH1 0x40 MLOAD DUP1 DUP4 SUB DUP2 DUP7 DUP1 EXTCODESIZE ISZERO DUP1 ISZERO PUSH2 0x910 JUMPI PUSH1 0x0 DUP1 REVERT JUMPDEST POP GAS STATICCALL ISZERO DUP1 ISZERO PUSH2 0x924 JUMPI RETURNDATASIZE PUSH1 0x0 DUP1 RETURNDATACOPY RETURNDATASIZE PUSH1 0x0 REVERT JUMPDEST POP POP POP POP PUSH1 0x40 MLOAD RETURNDATASIZE PUSH1 0x1F NOT PUSH1 0x1F DUP3 ADD AND DUP3 ADD DUP1 PUSH1 0x40 MSTORE POP DUP2 ADD SWAP1 PUSH2 0x948 SWAP2 SWAP1 PUSH2 0x220C JUMP JUMPDEST SWAP1 POP PUSH8 0xDE0B6B3A7640000 DUP3 DUP3 MUL DIV DUP2 DUP2 GT ISZERO PUSH2 0x962 JUMPI POP DUP1 JUMPDEST PUSH2 0x96B DUP2 PUSH2 0x971 JUMP JUMPDEST POP POP POP POP JUMP JUMPDEST PUSH1 0x2 SLOAD PUSH1 0x1 PUSH1 0x1 PUSH1 0xA0 SHL SUB AND PUSH2 0x985 PUSH2 0x1BCD JUMP JUMPDEST PUSH1 0x1 PUSH1 0x1 PUSH1 0xA0 SHL SUB AND EQ DUP1 PUSH2 0x9B4 JUMPI POP PUSH1 0x1 SLOAD PUSH1 0x1 PUSH1 0x1 PUSH1 0xA0 SHL SUB AND PUSH2 0x9A9 PUSH2 0x1BCD JUMP JUMPDEST PUSH1 0x1 PUSH1 0x1 PUSH1 0xA0 SHL SUB AND EQ JUMPDEST DUP1 PUSH2 0x9DE JUMPI POP PUSH2 0x9C2 PUSH2 0x1324 JUMP JUMPDEST PUSH1 0x1 PUSH1 0x1 PUSH1 0xA0 SHL SUB AND PUSH2 0x9D3 PUSH2 0x1BCD JUMP JUMPDEST PUSH1 0x1 PUSH1 0x1 PUSH1 0xA0 SHL SUB AND EQ JUMPDEST PUSH2 0x9FA JUMPI PUSH1 0x40 MLOAD PUSH3 0x461BCD PUSH1 0xE5 SHL DUP2 MSTORE PUSH1 0x4 ADD PUSH2 0x427 SWAP1 PUSH2 0x24D9 JUMP JUMPDEST PUSH2 0xA03 DUP2 PUSH2 0x693 JUMP JUMPDEST PUSH1 0x6 SLOAD PUSH1 0x40 MLOAD PUSH4 0x70A08231 PUSH1 0xE0 SHL DUP2 MSTORE PUSH1 0x0 SWAP2 PUSH1 0x1 PUSH1 0x1 PUSH1 0xA0 SHL SUB AND SWAP1 PUSH4 0x70A08231 SWAP1 PUSH2 0xA34 SWAP1 ADDRESS SWAP1 PUSH1 0x4 ADD PUSH2 0x22C1 JUMP JUMPDEST PUSH1 0x20 PUSH1 0x40 MLOAD DUP1 DUP4 SUB DUP2 DUP7 DUP1 EXTCODESIZE ISZERO DUP1 ISZERO PUSH2 0xA4C JUMPI PUSH1 0x0 DUP1 REVERT JUMPDEST POP GAS STATICCALL ISZERO DUP1 ISZERO PUSH2 0xA60 JUMPI RETURNDATASIZE PUSH1 0x0 DUP1 RETURNDATACOPY RETURNDATASIZE PUSH1 0x0 REVERT JUMPDEST POP POP POP POP PUSH1 0x40 MLOAD RETURNDATASIZE PUSH1 0x1F NOT PUSH1 0x1F DUP3 ADD AND DUP3 ADD DUP1 PUSH1 0x40 MSTORE POP DUP2 ADD SWAP1 PUSH2 0xA84 SWAP2 SWAP1 PUSH2 0x220C JUMP JUMPDEST PUSH1 0x7 SLOAD PUSH1 0x40 MLOAD PUSH4 0x1F1D0AB PUSH1 0xE5 SHL DUP2 MSTORE SWAP2 SWAP3 POP PUSH1 0x1 PUSH1 0x1 PUSH1 0xA0 SHL SUB AND SWAP1 PUSH4 0x3E3A1560 SWAP1 PUSH2 0xAC1 SWAP1 DUP5 SWAP1 PUSH1 0x1 SWAP1 PUSH1 0x0 SWAP1 PUSH2 0x2710 TIMESTAMP ADD SWAP1 PUSH1 0x4 ADD PUSH2 0x2576 JUMP JUMPDEST PUSH1 0x0 PUSH1 0x40 MLOAD DUP1 DUP4 SUB DUP2 PUSH1 0x0 DUP8 DUP1 EXTCODESIZE ISZERO DUP1 ISZERO PUSH2 0xADB JUMPI PUSH1 0x0 DUP1 REVERT JUMPDEST POP GAS CALL ISZERO DUP1 ISZERO PUSH2 0xAEF JUMPI RETURNDATASIZE PUSH1 0x0 DUP1 RETURNDATACOPY RETURNDATASIZE PUSH1 0x0 REVERT JUMPDEST POP POP POP POP PUSH2 0xAFB PUSH2 0x39E JUMP JUMPDEST PUSH1 0x4 DUP1 SLOAD PUSH1 0x2 SLOAD PUSH1 0x40 MLOAD PUSH4 0x70A08231 PUSH1 0xE0 SHL DUP2 MSTORE PUSH1 0x1 PUSH1 0x1 PUSH1 0xA0 SHL SUB SWAP3 DUP4 AND SWAP4 PUSH4 0xA9059CBB SWAP4 SWAP1 SWAP3 AND SWAP2 DUP5 SWAP2 PUSH4 0x70A08231 SWAP2 PUSH2 0xB39 SWAP2 ADDRESS SWAP2 ADD PUSH2 0x22C1 JUMP JUMPDEST PUSH1 0x20 PUSH1 0x40 MLOAD DUP1 DUP4 SUB DUP2 DUP7 DUP1 EXTCODESIZE ISZERO DUP1 ISZERO PUSH2 0xB51 JUMPI PUSH1 0x0 DUP1 REVERT JUMPDEST POP GAS STATICCALL ISZERO DUP1 ISZERO PUSH2 0xB65 JUMPI RETURNDATASIZE PUSH1 0x0 DUP1 RETURNDATACOPY RETURNDATASIZE PUSH1 0x0 REVERT JUMPDEST POP POP POP POP PUSH1 0x40 MLOAD RETURNDATASIZE PUSH1 0x1F NOT PUSH1 0x1F DUP3 ADD AND DUP3 ADD DUP1 PUSH1 0x40 MSTORE POP DUP2 ADD SWAP1 PUSH2 0xB89 SWAP2 SWAP1 PUSH2 0x220C JUMP JUMPDEST PUSH1 0x40 MLOAD DUP4 PUSH4 0xFFFFFFFF AND PUSH1 0xE0 SHL DUP2 MSTORE PUSH1 0x4 ADD PUSH2 0xBA6 SWAP3 SWAP2 SWAP1 PUSH2 0x2341 JUMP JUMPDEST PUSH1 0x20 PUSH1 0x40 MLOAD DUP1 DUP4 SUB DUP2 PUSH1 0x0 DUP8 DUP1 EXTCODESIZE ISZERO DUP1 ISZERO PUSH2 0xBC0 JUMPI PUSH1 0x0 DUP1 REVERT JUMPDEST POP GAS CALL ISZERO DUP1 ISZERO PUSH2 0xBD4 JUMPI RETURNDATASIZE PUSH1 0x0 DUP1 RETURNDATACOPY RETURNDATASIZE PUSH1 0x0 REVERT JUMPDEST POP POP POP POP PUSH1 0x40 MLOAD RETURNDATASIZE PUSH1 0x1F NOT PUSH1 0x1F DUP3 ADD AND DUP3 ADD DUP1 PUSH1 0x40 MSTORE POP DUP2 ADD SWAP1 PUSH2 0xBF8 SWAP2 SWAP1 PUSH2 0x20F4 JUMP JUMPDEST POP POP POP JUMP JUMPDEST PUSH1 0x2 SLOAD PUSH1 0x1 PUSH1 0x1 PUSH1 0xA0 SHL SUB AND PUSH2 0xC11 PUSH2 0x1BCD JUMP JUMPDEST PUSH1 0x1 PUSH1 0x1 PUSH1 0xA0 SHL SUB AND EQ DUP1 PUSH2 0xC40 JUMPI POP PUSH1 0x1 SLOAD PUSH1 0x1 PUSH1 0x1 PUSH1 0xA0 SHL SUB AND PUSH2 0xC35 PUSH2 0x1BCD JUMP JUMPDEST PUSH1 0x1 PUSH1 0x1 PUSH1 0xA0 SHL SUB AND EQ JUMPDEST DUP1 PUSH2 0xC6A JUMPI POP PUSH2 0xC4E PUSH2 0x1324 JUMP JUMPDEST PUSH1 0x1 PUSH1 0x1 PUSH1 0xA0 SHL SUB AND PUSH2 0xC5F PUSH2 0x1BCD JUMP JUMPDEST PUSH1 0x1 PUSH1 0x1 PUSH1 0xA0 SHL SUB AND EQ JUMPDEST PUSH2 0xC86 JUMPI PUSH1 0x40 MLOAD PUSH3 0x461BCD PUSH1 0xE5 SHL DUP2 MSTORE PUSH1 0x4 ADD PUSH2 0x427 SWAP1 PUSH2 0x24D9 JUMP JUMPDEST DUP1 MLOAD DUP3 MLOAD EQ PUSH2 0xCA7 JUMPI PUSH1 0x40 MLOAD PUSH3 0x461BCD PUSH1 0xE5 SHL DUP2 MSTORE PUSH1 0x4 ADD PUSH2 0x427 SWAP1 PUSH2 0x2498 JUMP JUMPDEST PUSH1 0x0 JUMPDEST DUP3 MLOAD DUP2 LT ISZERO PUSH2 0xBF8 JUMPI PUSH2 0xCE3 DUP4 DUP3 DUP2 MLOAD DUP2 LT PUSH2 0xCC2 JUMPI INVALID JUMPDEST PUSH1 0x20 MUL PUSH1 0x20 ADD ADD MLOAD DUP4 DUP4 DUP2 MLOAD DUP2 LT PUSH2 0xCD6 JUMPI INVALID JUMPDEST PUSH1 0x20 MUL PUSH1 0x20 ADD ADD MLOAD PUSH2 0x1D01 JUMP JUMPDEST PUSH1 0x1 ADD PUSH2 0xCAA JUMP JUMPDEST PUSH1 0x2 SLOAD PUSH1 0x1 PUSH1 0x1 PUSH1 0xA0 SHL SUB AND PUSH2 0xCFF PUSH2 0x1BCD JUMP JUMPDEST PUSH1 0x1 PUSH1 0x1 PUSH1 0xA0 SHL SUB AND EQ DUP1 PUSH2 0xD2E JUMPI POP PUSH1 0x1 SLOAD PUSH1 0x1 PUSH1 0x1 PUSH1 0xA0 SHL SUB AND PUSH2 0xD23 PUSH2 0x1BCD JUMP JUMPDEST PUSH1 0x1 PUSH1 0x1 PUSH1 0xA0 SHL SUB AND EQ JUMPDEST DUP1 PUSH2 0xD58 JUMPI POP PUSH2 0xD3C PUSH2 0x1324 JUMP JUMPDEST PUSH1 0x1 PUSH1 0x1 PUSH1 0xA0 SHL SUB AND PUSH2 0xD4D PUSH2 0x1BCD JUMP JUMPDEST PUSH1 0x1 PUSH1 0x1 PUSH1 0xA0 SHL SUB AND EQ JUMPDEST PUSH2 0xD74 JUMPI PUSH1 0x40 MLOAD PUSH3 0x461BCD PUSH1 0xE5 SHL DUP2 MSTORE PUSH1 0x4 ADD PUSH2 0x427 SWAP1 PUSH2 0x24D9 JUMP JUMPDEST PUSH1 0x4 DUP1 SLOAD PUSH1 0x40 MLOAD PUSH4 0x70A08231 PUSH1 0xE0 SHL DUP2 MSTORE PUSH1 0x0 SWAP3 PUSH1 0x1 PUSH1 0x1 PUSH1 0xA0 SHL SUB SWAP1 SWAP3 AND SWAP2 PUSH4 0x70A08231 SWAP2 PUSH2 0xDA6 SWAP2 ADDRESS SWAP2 ADD PUSH2 0x22C1 JUMP JUMPDEST PUSH1 0x20 PUSH1 0x40 MLOAD DUP1 DUP4 SUB DUP2 DUP7 DUP1 EXTCODESIZE ISZERO DUP1 ISZERO PUSH2 0xDBE JUMPI PUSH1 0x0 DUP1 REVERT JUMPDEST POP GAS STATICCALL ISZERO DUP1 ISZERO PUSH2 0xDD2 JUMPI RETURNDATASIZE PUSH1 0x0 DUP1 RETURNDATACOPY RETURNDATASIZE PUSH1 0x0 REVERT JUMPDEST POP POP POP POP PUSH1 0x40 MLOAD RETURNDATASIZE PUSH1 0x1F NOT PUSH1 0x1F DUP3 ADD AND DUP3 ADD DUP1 PUSH1 0x40 MSTORE POP DUP2 ADD SWAP1 PUSH2 0xDF6 SWAP2 SWAP1 PUSH2 0x220C JUMP JUMPDEST SWAP1 POP DUP1 ISZERO PUSH2 0x5CA JUMPI PUSH1 0x4 DUP1 SLOAD PUSH1 0x2 SLOAD PUSH1 0x40 MLOAD PUSH4 0xA9059CBB PUSH1 0xE0 SHL DUP2 MSTORE PUSH1 0x1 PUSH1 0x1 PUSH1 0xA0 SHL SUB SWAP3 DUP4 AND SWAP4 PUSH4 0xA9059CBB SWAP4 PUSH2 0xE32 SWAP4 AND SWAP2 DUP7 SWAP2 ADD PUSH2 0x2341 JUMP JUMPDEST PUSH1 0x20 PUSH1 0x40 MLOAD DUP1 DUP4 SUB DUP2 PUSH1 0x0 DUP8 DUP1 EXTCODESIZE ISZERO DUP1 ISZERO PUSH2 0xE4C JUMPI PUSH1 0x0 DUP1 REVERT JUMPDEST POP GAS CALL ISZERO DUP1 ISZERO PUSH2 0xE60 JUMPI RETURNDATASIZE PUSH1 0x0 DUP1 RETURNDATACOPY RETURNDATASIZE PUSH1 0x0 REVERT JUMPDEST POP POP POP POP PUSH1 0x40 MLOAD RETURNDATASIZE PUSH1 0x1F NOT PUSH1 0x1F DUP3 ADD AND DUP3 ADD DUP1 PUSH1 0x40 MSTORE POP DUP2 ADD SWAP1 PUSH2 0xE84 SWAP2 SWAP1 PUSH2 0x20F4 JUMP JUMPDEST POP POP JUMP JUMPDEST PUSH1 0x4 SLOAD PUSH1 0x1 PUSH1 0x1 PUSH1 0xA0 SHL SUB AND DUP2 JUMP JUMPDEST PUSH1 0x2 SLOAD PUSH1 0x1 PUSH1 0x1 PUSH1 0xA0 SHL SUB AND PUSH2 0xEAB PUSH2 0x1BCD JUMP JUMPDEST PUSH1 0x1 PUSH1 0x1 PUSH1 0xA0 SHL SUB AND EQ DUP1 PUSH2 0xEDA JUMPI POP PUSH1 0x1 SLOAD PUSH1 0x1 PUSH1 0x1 PUSH1 0xA0 SHL SUB AND PUSH2 0xECF PUSH2 0x1BCD JUMP JUMPDEST PUSH1 0x1 PUSH1 0x1 PUSH1 0xA0 SHL SUB AND EQ JUMPDEST DUP1 PUSH2 0xF04 JUMPI POP PUSH2 0xEE8 PUSH2 0x1324 JUMP JUMPDEST PUSH1 0x1 PUSH1 0x1 PUSH1 0xA0 SHL SUB AND PUSH2 0xEF9 PUSH2 0x1BCD JUMP JUMPDEST PUSH1 0x1 PUSH1 0x1 PUSH1 0xA0 SHL SUB AND EQ JUMPDEST PUSH2 0xF20 JUMPI PUSH1 0x40 MLOAD PUSH3 0x461BCD PUSH1 0xE5 SHL DUP2 MSTORE PUSH1 0x4 ADD PUSH2 0x427 SWAP1 PUSH2 0x24D9 JUMP JUMPDEST PUSH2 0xF2A PUSH1 0x0 PUSH2 0x693 JUMP JUMPDEST JUMP JUMPDEST PUSH2 0xF34 PUSH2 0x1BCD JUMP JUMPDEST PUSH1 0x0 SLOAD PUSH1 0x1 PUSH1 0x1 PUSH1 0xA0 SHL SUB SWAP1 DUP2 AND SWAP2 AND EQ PUSH2 0xF61 JUMPI PUSH1 0x40 MLOAD PUSH3 0x461BCD PUSH1 0xE5 SHL DUP2 MSTORE PUSH1 0x4 ADD PUSH2 0x427 SWAP1 PUSH2 0x2463 JUMP JUMPDEST PUSH1 0x3 DUP1 SLOAD PUSH1 0x1 PUSH1 0x1 PUSH1 0xA0 SHL SUB NOT AND PUSH1 0x1 PUSH1 0x1 PUSH1 0xA0 SHL SUB SWAP3 SWAP1 SWAP3 AND SWAP2 SWAP1 SWAP2 OR SWAP1 SSTORE JUMP JUMPDEST PUSH1 0x3 SLOAD PUSH1 0x1 PUSH1 0x1 PUSH1 0xA0 SHL SUB AND SWAP1 JUMP JUMPDEST PUSH1 0x8 SLOAD PUSH1 0x1 PUSH1 0x1 PUSH1 0xA0 SHL SUB AND DUP2 JUMP JUMPDEST PUSH1 0x2 SLOAD PUSH1 0x1 PUSH1 0x1 PUSH1 0xA0 SHL SUB AND PUSH2 0xFB5 PUSH2 0x1BCD JUMP JUMPDEST PUSH1 0x1 PUSH1 0x1 PUSH1 0xA0 SHL SUB AND EQ DUP1 PUSH2 0xFE4 JUMPI POP PUSH1 0x1 SLOAD PUSH1 0x1 PUSH1 0x1 PUSH1 0xA0 SHL SUB AND PUSH2 0xFD9 PUSH2 0x1BCD JUMP JUMPDEST PUSH1 0x1 PUSH1 0x1 PUSH1 0xA0 SHL SUB AND EQ JUMPDEST DUP1 PUSH2 0x100E JUMPI POP PUSH2 0xFF2 PUSH2 0x1324 JUMP JUMPDEST PUSH1 0x1 PUSH1 0x1 PUSH1 0xA0 SHL SUB AND PUSH2 0x1003 PUSH2 0x1BCD JUMP JUMPDEST PUSH1 0x1 PUSH1 0x1 PUSH1 0xA0 SHL SUB AND EQ JUMPDEST PUSH2 0x102A JUMPI PUSH1 0x40 MLOAD PUSH3 0x461BCD PUSH1 0xE5 SHL DUP2 MSTORE PUSH1 0x4 ADD PUSH2 0x427 SWAP1 PUSH2 0x24D9 JUMP JUMPDEST PUSH1 0x0 PUSH2 0x1034 PUSH2 0x114E JUMP JUMPDEST SWAP1 POP DUP1 DUP3 GT ISZERO PUSH2 0x1042 JUMPI DUP1 SWAP2 POP JUMPDEST PUSH2 0x104B DUP3 PUSH2 0x693 JUMP JUMPDEST PUSH1 0x6 SLOAD PUSH1 0x40 MLOAD PUSH4 0xA9059CBB PUSH1 0xE0 SHL DUP2 MSTORE PUSH1 0x1 PUSH1 0x1 PUSH1 0xA0 SHL SUB SWAP1 SWAP2 AND SWAP1 PUSH4 0xA9059CBB SWAP1 PUSH2 0x107D SWAP1 DUP7 SWAP1 DUP7 SWAP1 PUSH1 0x4 ADD PUSH2 0x2341 JUMP JUMPDEST PUSH1 0x20 PUSH1 0x40 MLOAD DUP1 DUP4 SUB DUP2 PUSH1 0x0 DUP8 DUP1 EXTCODESIZE ISZERO DUP1 ISZERO PUSH2 0x1097 JUMPI PUSH1 0x0 DUP1 REVERT JUMPDEST POP GAS CALL ISZERO DUP1 ISZERO PUSH2 0x10AB JUMPI RETURNDATASIZE PUSH1 0x0 DUP1 RETURNDATACOPY RETURNDATASIZE PUSH1 0x0 REVERT JUMPDEST POP POP POP POP PUSH1 0x40 MLOAD RETURNDATASIZE PUSH1 0x1F NOT PUSH1 0x1F DUP3 ADD AND DUP3 ADD DUP1 PUSH1 0x40 MSTORE POP DUP2 ADD SWAP1 PUSH2 0x96B SWAP2 SWAP1 PUSH2 0x20F4 JUMP JUMPDEST PUSH2 0x10D7 PUSH2 0x1BCD JUMP JUMPDEST PUSH1 0x0 SLOAD PUSH1 0x1 PUSH1 0x1 PUSH1 0xA0 SHL SUB SWAP1 DUP2 AND SWAP2 AND EQ PUSH2 0x1104 JUMPI PUSH1 0x40 MLOAD PUSH3 0x461BCD PUSH1 0xE5 SHL DUP2 MSTORE PUSH1 0x4 ADD PUSH2 0x427 SWAP1 PUSH2 0x2463 JUMP JUMPDEST PUSH1 0x0 DUP1 SLOAD PUSH1 0x40 MLOAD PUSH1 0x1 PUSH1 0x1 PUSH1 0xA0 SHL SUB SWAP1 SWAP2 AND SWAP1 PUSH32 0x8BE0079C531659141344CD1FD0A4F28419497F9722A3DAAFE3B4186F6B6457E0 SWAP1 DUP4 SWAP1 LOG3 PUSH1 0x0 DUP1 SLOAD PUSH1 0x1 PUSH1 0x1 PUSH1 0xA0 SHL SUB NOT AND SWAP1 SSTORE JUMP JUMPDEST PUSH1 0x8 SLOAD PUSH1 0x40 MLOAD PUSH4 0x93F1A40B PUSH1 0xE0 SHL DUP2 MSTORE PUSH1 0x0 SWAP2 PUSH1 0x1 PUSH1 0x1 PUSH1 0xA0 SHL SUB AND SWAP1 PUSH4 0x93F1A40B SWAP1 PUSH2 0x1182 SWAP1 PUSH1 0x9 SWAP1 ADDRESS SWAP1 PUSH1 0x4 ADD PUSH2 0x23D0 JUMP JUMPDEST PUSH1 0x20 PUSH1 0x40 MLOAD DUP1 DUP4 SUB DUP2 DUP7 DUP1 EXTCODESIZE ISZERO DUP1 ISZERO PUSH2 0x119A JUMPI PUSH1 0x0 DUP1 REVERT JUMPDEST POP GAS STATICCALL ISZERO DUP1 ISZERO PUSH2 0x11AE JUMPI RETURNDATASIZE PUSH1 0x0 DUP1 RETURNDATACOPY RETURNDATASIZE PUSH1 0x0 REVERT JUMPDEST POP POP POP POP PUSH1 0x40 MLOAD RETURNDATASIZE PUSH1 0x1F NOT PUSH1 0x1F DUP3 ADD AND DUP3 ADD DUP1 PUSH1 0x40 MSTORE POP DUP2 ADD SWAP1 PUSH2 0x11D2 SWAP2 SWAP1 PUSH2 0x220C JUMP JUMPDEST SWAP1 POP SWAP1 JUMP JUMPDEST PUSH1 0x0 DUP2 PUSH2 0x11E6 JUMPI POP PUSH1 0x0 PUSH2 0x131E JUMP JUMPDEST PUSH1 0x3 SLOAD PUSH1 0x1 PUSH1 0x1 PUSH1 0xA0 SHL SUB AND PUSH2 0x11FA PUSH2 0x1E36 JUMP JUMPDEST PUSH1 0x40 MLOAD PUSH4 0x15A9F9FF PUSH1 0xE1 SHL DUP2 MSTORE PUSH1 0x1 PUSH1 0x1 PUSH1 0xA0 SHL SUB DUP4 AND SWAP1 PUSH4 0x2B53F3FE SWAP1 PUSH2 0x1228 SWAP1 ADDRESS SWAP1 DUP10 SWAP1 PUSH1 0x4 ADD PUSH2 0x2341 JUMP JUMPDEST PUSH1 0x0 PUSH1 0x40 MLOAD DUP1 DUP4 SUB DUP2 DUP7 DUP1 EXTCODESIZE ISZERO DUP1 ISZERO PUSH2 0x1240 JUMPI PUSH1 0x0 DUP1 REVERT JUMPDEST POP GAS STATICCALL ISZERO DUP1 ISZERO PUSH2 0x1254 JUMPI RETURNDATASIZE PUSH1 0x0 DUP1 RETURNDATACOPY RETURNDATASIZE PUSH1 0x0 REVERT JUMPDEST POP POP POP POP PUSH1 0x40 MLOAD RETURNDATASIZE PUSH1 0x0 DUP3 RETURNDATACOPY PUSH1 0x1F RETURNDATASIZE SWAP1 DUP2 ADD PUSH1 0x1F NOT AND DUP3 ADD PUSH1 0x40 MSTORE PUSH2 0x127C SWAP2 SWAP1 DUP2 ADD SWAP1 PUSH2 0x2114 JUMP JUMPDEST DUP1 MLOAD PUSH1 0x20 DUP3 ADD MLOAD PUSH1 0x40 MLOAD PUSH4 0xD06CA61F PUSH1 0xE0 SHL DUP2 MSTORE SWAP3 SWAP4 POP SWAP1 SWAP2 PUSH1 0x60 SWAP2 PUSH1 0x1 PUSH1 0x1 PUSH1 0xA0 SHL SUB DUP5 AND SWAP2 PUSH4 0xD06CA61F SWAP2 PUSH2 0x12B8 SWAP2 DUP11 SWAP2 SWAP1 PUSH1 0x4 ADD PUSH2 0x2519 JUMP JUMPDEST PUSH1 0x0 PUSH1 0x40 MLOAD DUP1 DUP4 SUB DUP2 DUP7 DUP1 EXTCODESIZE ISZERO DUP1 ISZERO PUSH2 0x12D0 JUMPI PUSH1 0x0 DUP1 REVERT JUMPDEST POP GAS STATICCALL ISZERO DUP1 ISZERO PUSH2 0x12E4 JUMPI RETURNDATASIZE PUSH1 0x0 DUP1 RETURNDATACOPY RETURNDATASIZE PUSH1 0x0 REVERT JUMPDEST POP POP POP POP PUSH1 0x40 MLOAD RETURNDATASIZE PUSH1 0x0 DUP3 RETURNDATACOPY PUSH1 0x1F RETURNDATASIZE SWAP1 DUP2 ADD PUSH1 0x1F NOT AND DUP3 ADD PUSH1 0x40 MSTORE PUSH2 0x130C SWAP2 SWAP1 DUP2 ADD SWAP1 PUSH2 0x2064 JUMP JUMPDEST SWAP1 POP PUSH2 0x1317 DUP2 PUSH2 0x1D94 JUMP JUMPDEST SWAP5 POP POP POP POP POP JUMPDEST SWAP3 SWAP2 POP POP JUMP JUMPDEST PUSH1 0x0 SLOAD PUSH1 0x1 PUSH1 0x1 PUSH1 0xA0 SHL SUB AND SWAP1 JUMP JUMPDEST PUSH1 0x1 SLOAD PUSH1 0x1 PUSH1 0x1 PUSH1 0xA0 SHL SUB AND SWAP1 JUMP JUMPDEST PUSH1 0x6 SLOAD PUSH1 0x1 PUSH1 0x1 PUSH1 0xA0 SHL SUB AND DUP2 JUMP JUMPDEST PUSH1 0x2 SLOAD PUSH1 0x1 PUSH1 0x1 PUSH1 0xA0 SHL SUB AND PUSH2 0x1365 PUSH2 0x1BCD JUMP JUMPDEST PUSH1 0x1 PUSH1 0x1 PUSH1 0xA0 SHL SUB AND EQ DUP1 PUSH2 0x1394 JUMPI POP PUSH1 0x1 SLOAD PUSH1 0x1 PUSH1 0x1 PUSH1 0xA0 SHL SUB AND PUSH2 0x1389 PUSH2 0x1BCD JUMP JUMPDEST PUSH1 0x1 PUSH1 0x1 PUSH1 0xA0 SHL SUB AND EQ JUMPDEST DUP1 PUSH2 0x13BE JUMPI POP PUSH2 0x13A2 PUSH2 0x1324 JUMP JUMPDEST PUSH1 0x1 PUSH1 0x1 PUSH1 0xA0 SHL SUB AND PUSH2 0x13B3 PUSH2 0x1BCD JUMP JUMPDEST PUSH1 0x1 PUSH1 0x1 PUSH1 0xA0 SHL SUB AND EQ JUMPDEST PUSH2 0x13DA JUMPI PUSH1 0x40 MLOAD PUSH3 0x461BCD PUSH1 0xE5 SHL DUP2 MSTORE PUSH1 0x4 ADD PUSH2 0x427 SWAP1 PUSH2 0x24D9 JUMP JUMPDEST PUSH1 0x6 SLOAD PUSH1 0x40 MLOAD PUSH4 0x70A08231 PUSH1 0xE0 SHL DUP2 MSTORE PUSH1 0x0 SWAP2 PUSH1 0x1 PUSH1 0x1 PUSH1 0xA0 SHL SUB AND SWAP1 PUSH4 0x70A08231 SWAP1 PUSH2 0x140B SWAP1 ADDRESS SWAP1 PUSH1 0x4 ADD PUSH2 0x22C1 JUMP JUMPDEST PUSH1 0x20 PUSH1 0x40 MLOAD DUP1 DUP4 SUB DUP2 DUP7 DUP1 EXTCODESIZE ISZERO DUP1 ISZERO PUSH2 0x1423 JUMPI PUSH1 0x0 DUP1 REVERT JUMPDEST POP GAS STATICCALL ISZERO DUP1 ISZERO PUSH2 0x1437 JUMPI RETURNDATASIZE PUSH1 0x0 DUP1 RETURNDATACOPY RETURNDATASIZE PUSH1 0x0 REVERT JUMPDEST POP POP POP POP PUSH1 0x40 MLOAD RETURNDATASIZE PUSH1 0x1F NOT PUSH1 0x1F DUP3 ADD AND DUP3 ADD DUP1 PUSH1 0x40 MSTORE POP DUP2 ADD SWAP1 PUSH2 0x145B SWAP2 SWAP1 PUSH2 0x220C JUMP JUMPDEST SWAP1 POP DUP1 DUP3 GT ISZERO PUSH2 0x1469 JUMPI DUP1 SWAP2 POP JUMPDEST PUSH1 0x8 SLOAD PUSH1 0x40 MLOAD PUSH4 0x1C57762B PUSH1 0xE3 SHL DUP2 MSTORE PUSH1 0x1 PUSH1 0x1 PUSH1 0xA0 SHL SUB SWAP1 SWAP2 AND SWAP1 PUSH4 0xE2BBB158 SWAP1 PUSH2 0x7E1 SWAP1 PUSH1 0x9 SWAP1 DUP7 SWAP1 PUSH1 0x4 ADD PUSH2 0x23E7 JUMP JUMPDEST PUSH2 0x14A4 PUSH2 0x1BCD JUMP JUMPDEST PUSH1 0x0 SLOAD PUSH1 0x1 PUSH1 0x1 PUSH1 0xA0 SHL SUB SWAP1 DUP2 AND SWAP2 AND EQ PUSH2 0x14D1 JUMPI PUSH1 0x40 MLOAD PUSH3 0x461BCD PUSH1 0xE5 SHL DUP2 MSTORE PUSH1 0x4 ADD PUSH2 0x427 SWAP1 PUSH2 0x2463 JUMP JUMPDEST PUSH1 0x1 DUP1 SLOAD PUSH1 0x1 PUSH1 0x1 PUSH1 0xA0 SHL SUB NOT AND PUSH1 0x1 PUSH1 0x1 PUSH1 0xA0 SHL SUB SWAP3 SWAP1 SWAP3 AND SWAP2 SWAP1 SWAP2 OR SWAP1 SSTORE JUMP JUMPDEST PUSH1 0x2 SLOAD PUSH1 0x1 PUSH1 0x1 PUSH1 0xA0 SHL SUB AND PUSH2 0x1507 PUSH2 0x1BCD JUMP JUMPDEST PUSH1 0x1 PUSH1 0x1 PUSH1 0xA0 SHL SUB AND EQ DUP1 PUSH2 0x1536 JUMPI POP PUSH1 0x1 SLOAD PUSH1 0x1 PUSH1 0x1 PUSH1 0xA0 SHL SUB AND PUSH2 0x152B PUSH2 0x1BCD JUMP JUMPDEST PUSH1 0x1 PUSH1 0x1 PUSH1 0xA0 SHL SUB AND EQ JUMPDEST DUP1 PUSH2 0x1560 JUMPI POP PUSH2 0x1544 PUSH2 0x1324 JUMP JUMPDEST PUSH1 0x1 PUSH1 0x1 PUSH1 0xA0 SHL SUB AND PUSH2 0x1555 PUSH2 0x1BCD JUMP JUMPDEST PUSH1 0x1 PUSH1 0x1 PUSH1 0xA0 SHL SUB AND EQ JUMPDEST PUSH2 0x157C JUMPI PUSH1 0x40 MLOAD PUSH3 0x461BCD PUSH1 0xE5 SHL DUP2 MSTORE PUSH1 0x4 ADD PUSH2 0x427 SWAP1 PUSH2 0x24D9 JUMP JUMPDEST PUSH1 0x3 SLOAD PUSH1 0x40 MLOAD PUSH4 0xAB332753 PUSH1 0xE0 SHL DUP2 MSTORE PUSH1 0x1 PUSH1 0x1 PUSH1 0xA0 SHL SUB SWAP1 SWAP2 AND SWAP1 DUP2 SWAP1 PUSH4 0xAB332753 SWAP1 PUSH2 0x15CA SWAP1 ADDRESS SWAP1 PUSH1 0x0 SWAP1 PUSH20 0x10ED43C718714EB63D5AA57B78B54704E256024E SWAP1 PUSH1 0xA SWAP1 PUSH1 0x4 ADD PUSH2 0x22D5 JUMP JUMPDEST PUSH1 0x0 PUSH1 0x40 MLOAD DUP1 DUP4 SUB DUP2 PUSH1 0x0 DUP8 DUP1 EXTCODESIZE ISZERO DUP1 ISZERO PUSH2 0x15E4 JUMPI PUSH1 0x0 DUP1 REVERT JUMPDEST POP GAS CALL ISZERO DUP1 ISZERO PUSH2 0x15F8 JUMPI RETURNDATASIZE PUSH1 0x0 DUP1 RETURNDATACOPY RETURNDATASIZE PUSH1 0x0 REVERT JUMPDEST POP POP POP POP POP JUMP JUMPDEST PUSH1 0x5 SLOAD PUSH1 0x1 PUSH1 0x1 PUSH1 0xA0 SHL SUB AND DUP2 JUMP JUMPDEST PUSH1 0x2 SLOAD PUSH1 0x1 PUSH1 0x1 PUSH1 0xA0 SHL SUB AND PUSH2 0x1622 PUSH2 0x1BCD JUMP JUMPDEST PUSH1 0x1 PUSH1 0x1 PUSH1 0xA0 SHL SUB AND EQ DUP1 PUSH2 0x1651 JUMPI POP PUSH1 0x1 SLOAD PUSH1 0x1 PUSH1 0x1 PUSH1 0xA0 SHL SUB AND PUSH2 0x1646 PUSH2 0x1BCD JUMP JUMPDEST PUSH1 0x1 PUSH1 0x1 PUSH1 0xA0 SHL SUB AND EQ JUMPDEST DUP1 PUSH2 0x167B JUMPI POP PUSH2 0x165F PUSH2 0x1324 JUMP JUMPDEST PUSH1 0x1 PUSH1 0x1 PUSH1 0xA0 SHL SUB AND PUSH2 0x1670 PUSH2 0x1BCD JUMP JUMPDEST PUSH1 0x1 PUSH1 0x1 PUSH1 0xA0 SHL SUB AND EQ JUMPDEST PUSH2 0x1697 JUMPI PUSH1 0x40 MLOAD PUSH3 0x461BCD PUSH1 0xE5 SHL DUP2 MSTORE PUSH1 0x4 ADD PUSH2 0x427 SWAP1 PUSH2 0x24D9 JUMP JUMPDEST PUSH1 0x40 MLOAD PUSH4 0x70A08231 PUSH1 0xE0 SHL DUP2 MSTORE DUP3 SWAP1 PUSH1 0x1 PUSH1 0x1 PUSH1 0xA0 SHL SUB DUP3 AND SWAP1 PUSH4 0xA9059CBB SWAP1 DUP5 SWAP1 DUP4 SWAP1 PUSH4 0x70A08231 SWAP1 PUSH2 0x16CF SWAP1 ADDRESS SWAP1 PUSH1 0x4 ADD PUSH2 0x22C1 JUMP JUMPDEST PUSH1 0x20 PUSH1 0x40 MLOAD DUP1 DUP4 SUB DUP2 DUP7 DUP1 EXTCODESIZE ISZERO DUP1 ISZERO PUSH2 0x16E7 JUMPI PUSH1 0x0 DUP1 REVERT JUMPDEST POP GAS STATICCALL ISZERO DUP1 ISZERO PUSH2 0x16FB JUMPI RETURNDATASIZE PUSH1 0x0 DUP1 RETURNDATACOPY RETURNDATASIZE PUSH1 0x0 REVERT JUMPDEST POP POP POP POP PUSH1 0x40 MLOAD RETURNDATASIZE PUSH1 0x1F NOT PUSH1 0x1F DUP3 ADD AND DUP3 ADD DUP1 PUSH1 0x40 MSTORE POP DUP2 ADD SWAP1 PUSH2 0x171F SWAP2 SWAP1 PUSH2 0x220C JUMP JUMPDEST PUSH1 0x40 MLOAD DUP4 PUSH4 0xFFFFFFFF AND PUSH1 0xE0 SHL DUP2 MSTORE PUSH1 0x4 ADD PUSH2 0x107D SWAP3 SWAP2 SWAP1 PUSH2 0x2341 JUMP JUMPDEST PUSH1 0x0 DUP1 PUSH2 0x1747 PUSH2 0x114E JUMP JUMPDEST PUSH1 0x4 DUP1 SLOAD PUSH1 0x40 MLOAD PUSH4 0x70A08231 PUSH1 0xE0 SHL DUP2 MSTORE SWAP3 SWAP4 POP PUSH1 0x0 SWAP3 PUSH1 0x1 PUSH1 0x1 PUSH1 0xA0 SHL SUB SWAP1 SWAP2 AND SWAP2 PUSH4 0x70A08231 SWAP2 PUSH2 0x177C SWAP2 ADDRESS SWAP2 ADD PUSH2 0x22C1 JUMP JUMPDEST PUSH1 0x20 PUSH1 0x40 MLOAD DUP1 DUP4 SUB DUP2 DUP7 DUP1 EXTCODESIZE ISZERO DUP1 ISZERO PUSH2 0x1794 JUMPI PUSH1 0x0 DUP1 REVERT JUMPDEST POP GAS STATICCALL ISZERO DUP1 ISZERO PUSH2 0x17A8 JUMPI RETURNDATASIZE PUSH1 0x0 DUP1 RETURNDATACOPY RETURNDATASIZE PUSH1 0x0 REVERT JUMPDEST POP POP POP POP PUSH1 0x40 MLOAD RETURNDATASIZE PUSH1 0x1F NOT PUSH1 0x1F DUP3 ADD AND DUP3 ADD DUP1 PUSH1 0x40 MSTORE POP DUP2 ADD SWAP1 PUSH2 0x17CC SWAP2 SWAP1 PUSH2 0x220C JUMP JUMPDEST SWAP1 POP DUP2 PUSH2 0x17DC JUMPI SWAP2 POP PUSH2 0x675 SWAP1 POP JUMP JUMPDEST PUSH1 0x7 SLOAD PUSH1 0x40 MLOAD PUSH4 0x262267D PUSH1 0xE6 SHL DUP2 MSTORE PUSH1 0x0 SWAP2 PUSH1 0x1 PUSH1 0x1 PUSH1 0xA0 SHL SUB AND SWAP1 PUSH4 0x98899F40 SWAP1 PUSH2 0x1812 SWAP1 ADDRESS SWAP1 DUP8 SWAP1 PUSH1 0x1 SWAP1 PUSH1 0x4 ADD PUSH2 0x235A JUMP JUMPDEST PUSH1 0x20 PUSH1 0x40 MLOAD DUP1 DUP4 SUB DUP2 DUP7 DUP1 EXTCODESIZE ISZERO DUP1 ISZERO PUSH2 0x182A JUMPI PUSH1 0x0 DUP1 REVERT JUMPDEST POP GAS STATICCALL ISZERO DUP1 ISZERO PUSH2 0x183E JUMPI RETURNDATASIZE PUSH1 0x0 DUP1 RETURNDATACOPY RETURNDATASIZE PUSH1 0x0 REVERT JUMPDEST POP POP POP POP PUSH1 0x40 MLOAD RETURNDATASIZE PUSH1 0x1F NOT PUSH1 0x1F DUP3 ADD AND DUP3 ADD DUP1 PUSH1 0x40 MSTORE POP DUP2 ADD SWAP1 PUSH2 0x1862 SWAP2 SWAP1 PUSH2 0x220C JUMP JUMPDEST SWAP1 POP PUSH2 0x186C PUSH2 0x5CD JUMP JUMPDEST ADD SWAP3 POP POP POP SWAP1 JUMP JUMPDEST PUSH1 0x2 SLOAD PUSH1 0x1 PUSH1 0x1 PUSH1 0xA0 SHL SUB AND PUSH2 0x1888 PUSH2 0x1BCD JUMP JUMPDEST PUSH1 0x1 PUSH1 0x1 PUSH1 0xA0 SHL SUB AND EQ DUP1 PUSH2 0x18B7 JUMPI POP PUSH1 0x1 SLOAD PUSH1 0x1 PUSH1 0x1 PUSH1 0xA0 SHL SUB AND PUSH2 0x18AC PUSH2 0x1BCD JUMP JUMPDEST PUSH1 0x1 PUSH1 0x1 PUSH1 0xA0 SHL SUB AND EQ JUMPDEST DUP1 PUSH2 0x18E1 JUMPI POP PUSH2 0x18C5 PUSH2 0x1324 JUMP JUMPDEST PUSH1 0x1 PUSH1 0x1 PUSH1 0xA0 SHL SUB AND PUSH2 0x18D6 PUSH2 0x1BCD JUMP JUMPDEST PUSH1 0x1 PUSH1 0x1 PUSH1 0xA0 SHL SUB AND EQ JUMPDEST PUSH2 0x18FD JUMPI PUSH1 0x40 MLOAD PUSH3 0x461BCD PUSH1 0xE5 SHL DUP2 MSTORE PUSH1 0x4 ADD PUSH2 0x427 SWAP1 PUSH2 0x24D9 JUMP JUMPDEST PUSH1 0x4 DUP1 SLOAD PUSH1 0x40 MLOAD PUSH4 0x70A08231 PUSH1 0xE0 SHL DUP2 MSTORE PUSH1 0x0 SWAP3 PUSH1 0x1 PUSH1 0x1 PUSH1 0xA0 SHL SUB SWAP1 SWAP3 AND SWAP2 PUSH4 0x70A08231 SWAP2 PUSH2 0x192F SWAP2 ADDRESS SWAP2 ADD PUSH2 0x22C1 JUMP JUMPDEST PUSH1 0x20 PUSH1 0x40 MLOAD DUP1 DUP4 SUB DUP2 DUP7 DUP1 EXTCODESIZE ISZERO DUP1 ISZERO PUSH2 0x1947 JUMPI PUSH1 0x0 DUP1 REVERT JUMPDEST POP GAS STATICCALL ISZERO DUP1 ISZERO PUSH2 0x195B JUMPI RETURNDATASIZE PUSH1 0x0 DUP1 RETURNDATACOPY RETURNDATASIZE PUSH1 0x0 REVERT JUMPDEST POP POP POP POP PUSH1 0x40 MLOAD RETURNDATASIZE PUSH1 0x1F NOT PUSH1 0x1F DUP3 ADD AND DUP3 ADD DUP1 PUSH1 0x40 MSTORE POP DUP2 ADD SWAP1 PUSH2 0x197F SWAP2 SWAP1 PUSH2 0x220C JUMP JUMPDEST SWAP1 POP DUP1 PUSH1 0x9 PUSH1 0x1 DUP2 SLOAD DUP2 LT PUSH2 0x1990 JUMPI INVALID JUMPDEST PUSH1 0x0 SWAP2 DUP3 MSTORE PUSH1 0x20 DUP3 KECCAK256 ADD SWAP2 SWAP1 SWAP2 SSTORE PUSH1 0x7 SLOAD PUSH1 0x40 MLOAD PUSH4 0x4D49E87D PUSH1 0xE0 SHL DUP2 MSTORE PUSH1 0x1 PUSH1 0x1 PUSH1 0xA0 SHL SUB SWAP1 SWAP2 AND SWAP2 PUSH4 0x4D49E87D SWAP2 PUSH2 0x19D5 SWAP2 PUSH1 0x9 SWAP2 PUSH2 0x2710 TIMESTAMP ADD SWAP1 PUSH1 0x4 ADD PUSH2 0x237E JUMP JUMPDEST PUSH1 0x0 PUSH1 0x40 MLOAD DUP1 DUP4 SUB DUP2 PUSH1 0x0 DUP8 DUP1 EXTCODESIZE ISZERO DUP1 ISZERO PUSH2 0x19EF JUMPI PUSH1 0x0 DUP1 REVERT JUMPDEST POP GAS CALL ISZERO DUP1 ISZERO PUSH2 0x1A03 JUMPI RETURNDATASIZE PUSH1 0x0 DUP1 RETURNDATACOPY RETURNDATASIZE PUSH1 0x0 REVERT JUMPDEST POP POP PUSH1 0x6 SLOAD PUSH1 0x40 MLOAD PUSH4 0x70A08231 PUSH1 0xE0 SHL DUP2 MSTORE PUSH1 0x0 SWAP4 POP PUSH1 0x1 PUSH1 0x1 PUSH1 0xA0 SHL SUB SWAP1 SWAP2 AND SWAP2 POP PUSH4 0x70A08231 SWAP1 PUSH2 0x1A3A SWAP1 ADDRESS SWAP1 PUSH1 0x4 ADD PUSH2 0x22C1 JUMP JUMPDEST PUSH1 0x20 PUSH1 0x40 MLOAD DUP1 DUP4 SUB DUP2 DUP7 DUP1 EXTCODESIZE ISZERO DUP1 ISZERO PUSH2 0x1A52 JUMPI PUSH1 0x0 DUP1 REVERT JUMPDEST POP GAS STATICCALL ISZERO DUP1 ISZERO PUSH2 0x1A66 JUMPI RETURNDATASIZE PUSH1 0x0 DUP1 RETURNDATACOPY RETURNDATASIZE PUSH1 0x0 REVERT JUMPDEST POP POP POP POP PUSH1 0x40 MLOAD RETURNDATASIZE PUSH1 0x1F NOT PUSH1 0x1F DUP3 ADD AND DUP3 ADD DUP1 PUSH1 0x40 MSTORE POP DUP2 ADD SWAP1 PUSH2 0x1A8A SWAP2 SWAP1 PUSH2 0x220C JUMP JUMPDEST SWAP1 POP PUSH2 0xE84 DUP2 PUSH2 0x1351 JUMP JUMPDEST PUSH2 0x1A9D PUSH2 0x1BCD JUMP JUMPDEST PUSH1 0x0 SLOAD PUSH1 0x1 PUSH1 0x1 PUSH1 0xA0 SHL SUB SWAP1 DUP2 AND SWAP2 AND EQ PUSH2 0x1ACA JUMPI PUSH1 0x40 MLOAD PUSH3 0x461BCD PUSH1 0xE5 SHL DUP2 MSTORE PUSH1 0x4 ADD PUSH2 0x427 SWAP1 PUSH2 0x2463 JUMP JUMPDEST PUSH1 0x2 DUP1 SLOAD PUSH1 0x1 PUSH1 0x1 PUSH1 0xA0 SHL SUB NOT AND PUSH1 0x1 PUSH1 0x1 PUSH1 0xA0 SHL SUB SWAP3 SWAP1 SWAP3 AND SWAP2 SWAP1 SWAP2 OR SWAP1 SSTORE JUMP JUMPDEST PUSH1 0x2 SLOAD PUSH1 0x1 PUSH1 0x1 PUSH1 0xA0 SHL SUB AND PUSH2 0x1B00 PUSH2 0x1BCD JUMP JUMPDEST PUSH1 0x1 PUSH1 0x1 PUSH1 0xA0 SHL SUB AND EQ DUP1 PUSH2 0x1B2F JUMPI POP PUSH1 0x1 SLOAD PUSH1 0x1 PUSH1 0x1 PUSH1 0xA0 SHL SUB AND PUSH2 0x1B24 PUSH2 0x1BCD JUMP JUMPDEST PUSH1 0x1 PUSH1 0x1 PUSH1 0xA0 SHL SUB AND EQ JUMPDEST DUP1 PUSH2 0x1B59 JUMPI POP PUSH2 0x1B3D PUSH2 0x1324 JUMP JUMPDEST PUSH1 0x1 PUSH1 0x1 PUSH1 0xA0 SHL SUB AND PUSH2 0x1B4E PUSH2 0x1BCD JUMP JUMPDEST PUSH1 0x1 PUSH1 0x1 PUSH1 0xA0 SHL SUB AND EQ JUMPDEST PUSH2 0x1B75 JUMPI PUSH1 0x40 MLOAD PUSH3 0x461BCD PUSH1 0xE5 SHL DUP2 MSTORE PUSH1 0x4 ADD PUSH2 0x427 SWAP1 PUSH2 0x24D9 JUMP JUMPDEST PUSH2 0xF2A PUSH2 0x25B PUSH2 0x173C JUMP JUMPDEST PUSH2 0x1B88 PUSH2 0x1BCD JUMP JUMPDEST PUSH1 0x0 SLOAD PUSH1 0x1 PUSH1 0x1 PUSH1 0xA0 SHL SUB SWAP1 DUP2 AND SWAP2 AND EQ PUSH2 0x1BB5 JUMPI PUSH1 0x40 MLOAD PUSH3 0x461BCD PUSH1 0xE5 SHL DUP2 MSTORE PUSH1 0x4 ADD PUSH2 0x427 SWAP1 PUSH2 0x2463 JUMP JUMPDEST PUSH2 0x5CA DUP2 PUSH2 0x1DB5 JUMP JUMPDEST PUSH1 0x2 SLOAD PUSH1 0x1 PUSH1 0x1 PUSH1 0xA0 SHL SUB AND SWAP1 JUMP JUMPDEST CALLER SWAP1 JUMP JUMPDEST PUSH1 0x3 SLOAD PUSH1 0x1 PUSH1 0x1 PUSH1 0xA0 SHL SUB AND PUSH2 0x1BE5 PUSH2 0x1E36 JUMP JUMPDEST PUSH1 0x40 MLOAD PUSH4 0x15A9F9FF PUSH1 0xE1 SHL DUP2 MSTORE PUSH1 0x1 PUSH1 0x1 PUSH1 0xA0 SHL SUB DUP4 AND SWAP1 PUSH4 0x2B53F3FE SWAP1 PUSH2 0x1C13 SWAP1 ADDRESS SWAP1 DUP9 SWAP1 PUSH1 0x4 ADD PUSH2 0x2341 JUMP JUMPDEST PUSH1 0x0 PUSH1 0x40 MLOAD DUP1 DUP4 SUB DUP2 DUP7 DUP1 EXTCODESIZE ISZERO DUP1 ISZERO PUSH2 0x1C2B JUMPI PUSH1 0x0 DUP1 REVERT JUMPDEST POP GAS STATICCALL ISZERO DUP1 ISZERO PUSH2 0x1C3F JUMPI RETURNDATASIZE PUSH1 0x0 DUP1 RETURNDATACOPY RETURNDATASIZE PUSH1 0x0 REVERT JUMPDEST POP POP POP POP PUSH1 0x40 MLOAD RETURNDATASIZE PUSH1 0x0 DUP3 RETURNDATACOPY PUSH1 0x1F RETURNDATASIZE SWAP1 DUP2 ADD PUSH1 0x1F NOT AND DUP3 ADD PUSH1 0x40 MSTORE PUSH2 0x1C67 SWAP2 SWAP1 DUP2 ADD SWAP1 PUSH2 0x2114 JUMP JUMPDEST DUP1 MLOAD PUSH1 0x20 DUP3 ADD MLOAD PUSH1 0x40 MLOAD PUSH4 0x38ED1739 PUSH1 0xE0 SHL DUP2 MSTORE SWAP3 SWAP4 POP SWAP1 SWAP2 PUSH1 0x1 PUSH1 0x1 PUSH1 0xA0 SHL SUB DUP4 AND SWAP2 PUSH4 0x38ED1739 SWAP2 PUSH2 0x1CAB SWAP2 DUP9 SWAP2 PUSH1 0x0 SWAP2 SWAP1 ADDRESS SWAP1 PUSH2 0x2710 TIMESTAMP ADD SWAP1 PUSH1 0x4 ADD PUSH2 0x253A JUMP JUMPDEST PUSH1 0x0 PUSH1 0x40 MLOAD DUP1 DUP4 SUB DUP2 PUSH1 0x0 DUP8 DUP1 EXTCODESIZE ISZERO DUP1 ISZERO PUSH2 0x1CC5 JUMPI PUSH1 0x0 DUP1 REVERT JUMPDEST POP GAS CALL ISZERO DUP1 ISZERO PUSH2 0x1CD9 JUMPI RETURNDATASIZE PUSH1 0x0 DUP1 RETURNDATACOPY RETURNDATASIZE PUSH1 0x0 REVERT JUMPDEST POP POP POP POP PUSH1 0x40 MLOAD RETURNDATASIZE PUSH1 0x0 DUP3 RETURNDATACOPY PUSH1 0x1F RETURNDATASIZE SWAP1 DUP2 ADD PUSH1 0x1F NOT AND DUP3 ADD PUSH1 0x40 MSTORE PUSH2 0x80F SWAP2 SWAP1 DUP2 ADD SWAP1 PUSH2 0x2064 JUMP JUMPDEST PUSH1 0x1 PUSH1 0x1 PUSH1 0xA0 SHL SUB DUP3 AND PUSH2 0x1D27 JUMPI PUSH1 0x40 MLOAD PUSH3 0x461BCD PUSH1 0xE5 SHL DUP2 MSTORE PUSH1 0x4 ADD PUSH2 0x427 SWAP1 PUSH2 0x243B JUMP JUMPDEST PUSH1 0x0 PUSH1 0x60 DUP4 PUSH1 0x1 PUSH1 0x1 PUSH1 0xA0 SHL SUB AND DUP4 PUSH1 0x40 MLOAD PUSH2 0x1D43 SWAP2 SWAP1 PUSH2 0x2288 JUMP JUMPDEST PUSH1 0x0 PUSH1 0x40 MLOAD DUP1 DUP4 SUB DUP2 PUSH1 0x0 DUP7 GAS CALL SWAP2 POP POP RETURNDATASIZE DUP1 PUSH1 0x0 DUP2 EQ PUSH2 0x1D80 JUMPI PUSH1 0x40 MLOAD SWAP2 POP PUSH1 0x1F NOT PUSH1 0x3F RETURNDATASIZE ADD AND DUP3 ADD PUSH1 0x40 MSTORE RETURNDATASIZE DUP3 MSTORE RETURNDATASIZE PUSH1 0x0 PUSH1 0x20 DUP5 ADD RETURNDATACOPY PUSH2 0x1D85 JUMP JUMPDEST PUSH1 0x60 SWAP2 POP JUMPDEST POP SWAP2 POP SWAP2 POP DUP2 PUSH2 0x96B JUMPI PUSH1 0x0 DUP1 REVERT JUMPDEST PUSH1 0x0 DUP2 PUSH1 0x1 DUP4 MLOAD SUB DUP2 MLOAD DUP2 LT PUSH2 0x1DA6 JUMPI INVALID JUMPDEST PUSH1 0x20 MUL PUSH1 0x20 ADD ADD MLOAD SWAP1 POP SWAP2 SWAP1 POP JUMP JUMPDEST PUSH1 0x1 PUSH1 0x1 PUSH1 0xA0 SHL SUB DUP2 AND PUSH2 0x1DDB JUMPI PUSH1 0x40 MLOAD PUSH3 0x461BCD PUSH1 0xE5 SHL DUP2 MSTORE PUSH1 0x4 ADD PUSH2 0x427 SWAP1 PUSH2 0x23F5 JUMP JUMPDEST PUSH1 0x0 DUP1 SLOAD PUSH1 0x40 MLOAD PUSH1 0x1 PUSH1 0x1 PUSH1 0xA0 SHL SUB DUP1 DUP6 AND SWAP4 SWAP3 AND SWAP2 PUSH32 0x8BE0079C531659141344CD1FD0A4F28419497F9722A3DAAFE3B4186F6B6457E0 SWAP2 LOG3 PUSH1 0x0 DUP1 SLOAD PUSH1 0x1 PUSH1 0x1 PUSH1 0xA0 SHL SUB NOT AND PUSH1 0x1 PUSH1 0x1 PUSH1 0xA0 SHL SUB SWAP3 SWAP1 SWAP3 AND SWAP2 SWAP1 SWAP2 OR SWAP1 SSTORE JUMP JUMPDEST PUSH1 0x40 DUP1 MLOAD DUP1 DUP3 ADD SWAP1 SWAP2 MSTORE PUSH1 0x0 DUP2 MSTORE PUSH1 0x60 PUSH1 0x20 DUP3 ADD MSTORE SWAP1 JUMP JUMPDEST DUP1 CALLDATALOAD PUSH2 0x131E DUP2 PUSH2 0x25DB JUMP JUMPDEST PUSH1 0x0 PUSH1 0x1F DUP4 DUP2 DUP5 ADD SLT PUSH2 0x1E6A JUMPI DUP2 DUP3 REVERT JUMPDEST DUP3 CALLDATALOAD PUSH2 0x1E7D PUSH2 0x1E78 DUP3 PUSH2 0x25BB JUMP JUMPDEST PUSH2 0x2594 JUMP JUMPDEST DUP2 DUP2 MSTORE SWAP3 POP PUSH1 0x20 DUP1 DUP5 ADD SWAP1 DUP6 DUP2 ADD PUSH1 0x0 JUMPDEST DUP5 DUP2 LT ISZERO PUSH2 0x1F10 JUMPI DUP2 CALLDATALOAD DUP9 ADD DUP10 PUSH1 0x3F DUP3 ADD SLT PUSH2 0x1EA9 JUMPI PUSH1 0x0 DUP1 REVERT JUMPDEST DUP4 DUP2 ADD CALLDATALOAD PUSH8 0xFFFFFFFFFFFFFFFF DUP2 GT ISZERO PUSH2 0x1EC2 JUMPI PUSH1 0x0 DUP1 REVERT JUMPDEST PUSH2 0x1ED3 DUP2 DUP10 ADD PUSH1 0x1F NOT AND DUP7 ADD PUSH2 0x2594 JUMP JUMPDEST DUP2 DUP2 MSTORE PUSH1 0x40 DUP13 DUP2 DUP5 DUP7 ADD ADD GT ISZERO PUSH2 0x1EE9 JUMPI PUSH1 0x0 DUP1 REVERT JUMPDEST DUP3 DUP2 DUP6 ADD DUP9 DUP5 ADD CALLDATACOPY POP PUSH1 0x0 SWAP2 DUP2 ADD DUP7 ADD SWAP2 SWAP1 SWAP2 MSTORE DUP6 MSTORE POP SWAP3 DUP3 ADD SWAP3 SWAP1 DUP3 ADD SWAP1 PUSH1 0x1 ADD PUSH2 0x1E8E JUMP JUMPDEST POP POP POP POP POP POP SWAP3 SWAP2 POP POP JUMP JUMPDEST PUSH1 0x0 PUSH1 0x20 DUP3 DUP5 SUB SLT ISZERO PUSH2 0x1F2D JUMPI DUP1 DUP2 REVERT JUMPDEST DUP2 CALLDATALOAD PUSH2 0x1F38 DUP2 PUSH2 0x25DB JUMP JUMPDEST SWAP4 SWAP3 POP POP POP JUMP JUMPDEST PUSH1 0x0 DUP1 PUSH1 0x40 DUP4 DUP6 SUB SLT ISZERO PUSH2 0x1F51 JUMPI DUP1 DUP2 REVERT JUMPDEST DUP3 CALLDATALOAD PUSH2 0x1F5C DUP2 PUSH2 0x25DB JUMP JUMPDEST SWAP2 POP PUSH1 0x20 DUP4 ADD CALLDATALOAD PUSH2 0x1F6C DUP2 PUSH2 0x25DB JUMP JUMPDEST DUP1 SWAP2 POP POP SWAP3 POP SWAP3 SWAP1 POP JUMP JUMPDEST PUSH1 0x0 DUP1 PUSH1 0x40 DUP4 DUP6 SUB SLT ISZERO PUSH2 0x1F89 JUMPI DUP2 DUP3 REVERT JUMPDEST DUP3 CALLDATALOAD PUSH2 0x1F94 DUP2 PUSH2 0x25DB JUMP JUMPDEST SWAP5 PUSH1 0x20 SWAP4 SWAP1 SWAP4 ADD CALLDATALOAD SWAP4 POP POP POP JUMP JUMPDEST PUSH1 0x0 DUP1 PUSH1 0x40 DUP4 DUP6 SUB SLT ISZERO PUSH2 0x1FB4 JUMPI DUP2 DUP3 REVERT JUMPDEST DUP3 CALLDATALOAD PUSH8 0xFFFFFFFFFFFFFFFF DUP1 DUP3 GT ISZERO PUSH2 0x1FCB JUMPI DUP4 DUP5 REVERT JUMPDEST DUP2 DUP6 ADD SWAP2 POP DUP6 PUSH1 0x1F DUP4 ADD SLT PUSH2 0x1FDE JUMPI DUP4 DUP5 REVERT JUMPDEST DUP2 CALLDATALOAD PUSH2 0x1FEC PUSH2 0x1E78 DUP3 PUSH2 0x25BB JUMP JUMPDEST DUP1 DUP3 DUP3 MSTORE PUSH1 0x20 DUP1 DUP4 ADD SWAP3 POP DUP1 DUP7 ADD DUP11 DUP3 DUP4 DUP8 MUL DUP10 ADD ADD GT ISZERO PUSH2 0x200C JUMPI DUP9 DUP10 REVERT JUMPDEST DUP9 SWAP7 POP JUMPDEST DUP5 DUP8 LT ISZERO PUSH2 0x2036 JUMPI PUSH2 0x2022 DUP12 DUP3 PUSH2 0x1E4E JUMP JUMPDEST DUP5 MSTORE PUSH1 0x1 SWAP7 SWAP1 SWAP7 ADD SWAP6 SWAP3 DUP2 ADD SWAP3 DUP2 ADD PUSH2 0x2010 JUMP JUMPDEST POP SWAP1 SWAP7 POP DUP8 ADD CALLDATALOAD SWAP4 POP POP POP DUP1 DUP3 GT ISZERO PUSH2 0x204D JUMPI DUP3 DUP4 REVERT JUMPDEST POP PUSH2 0x205A DUP6 DUP3 DUP7 ADD PUSH2 0x1E59 JUMP JUMPDEST SWAP2 POP POP SWAP3 POP SWAP3 SWAP1 POP JUMP JUMPDEST PUSH1 0x0 PUSH1 0x20 DUP1 DUP4 DUP6 SUB SLT ISZERO PUSH2 0x2076 JUMPI DUP2 DUP3 REVERT JUMPDEST DUP3 MLOAD PUSH8 0xFFFFFFFFFFFFFFFF DUP2 GT ISZERO PUSH2 0x208C JUMPI DUP3 DUP4 REVERT JUMPDEST DUP4 ADD PUSH1 0x1F DUP2 ADD DUP6 SGT PUSH2 0x209C JUMPI DUP3 DUP4 REVERT JUMPDEST DUP1 MLOAD PUSH2 0x20AA PUSH2 0x1E78 DUP3 PUSH2 0x25BB JUMP JUMPDEST DUP2 DUP2 MSTORE DUP4 DUP2 ADD SWAP1 DUP4 DUP6 ADD DUP6 DUP5 MUL DUP6 ADD DUP7 ADD DUP10 LT ISZERO PUSH2 0x20C6 JUMPI DUP7 DUP8 REVERT JUMPDEST DUP7 SWAP5 POP JUMPDEST DUP4 DUP6 LT ISZERO PUSH2 0x20E8 JUMPI DUP1 MLOAD DUP4 MSTORE PUSH1 0x1 SWAP5 SWAP1 SWAP5 ADD SWAP4 SWAP2 DUP6 ADD SWAP2 DUP6 ADD PUSH2 0x20CA JUMP JUMPDEST POP SWAP8 SWAP7 POP POP POP POP POP POP POP JUMP JUMPDEST PUSH1 0x0 PUSH1 0x20 DUP3 DUP5 SUB SLT ISZERO PUSH2 0x2105 JUMPI DUP1 DUP2 REVERT JUMPDEST DUP2 MLOAD DUP1 ISZERO ISZERO DUP2 EQ PUSH2 0x1F38 JUMPI DUP2 DUP3 REVERT JUMPDEST PUSH1 0x0 PUSH1 0x20 DUP1 DUP4 DUP6 SUB SLT ISZERO PUSH2 0x2126 JUMPI DUP2 DUP3 REVERT JUMPDEST DUP3 MLOAD PUSH8 0xFFFFFFFFFFFFFFFF DUP1 DUP3 GT ISZERO PUSH2 0x213D JUMPI DUP4 DUP5 REVERT JUMPDEST SWAP1 DUP5 ADD SWAP1 PUSH1 0x40 DUP3 DUP8 SUB SLT ISZERO PUSH2 0x2150 JUMPI DUP4 DUP5 REVERT JUMPDEST PUSH2 0x215A PUSH1 0x40 PUSH2 0x2594 JUMP JUMPDEST DUP3 MLOAD PUSH2 0x2165 DUP2 PUSH2 0x25DB JUMP JUMPDEST DUP2 MSTORE DUP3 DUP5 ADD MLOAD DUP3 DUP2 GT ISZERO PUSH2 0x2177 JUMPI DUP6 DUP7 REVERT JUMPDEST DUP1 DUP5 ADD SWAP4 POP POP DUP7 PUSH1 0x1F DUP5 ADD SLT PUSH2 0x218B JUMPI DUP5 DUP6 REVERT JUMPDEST DUP3 MLOAD SWAP2 POP PUSH2 0x219B PUSH2 0x1E78 DUP4 PUSH2 0x25BB JUMP JUMPDEST DUP3 DUP2 MSTORE DUP5 DUP2 ADD SWAP1 DUP5 DUP7 ADD DUP7 DUP6 MUL DUP7 ADD DUP8 ADD DUP11 LT ISZERO PUSH2 0x21B7 JUMPI DUP8 DUP9 REVERT JUMPDEST DUP8 SWAP6 POP JUMPDEST DUP5 DUP7 LT ISZERO PUSH2 0x21E2 JUMPI DUP1 MLOAD PUSH2 0x21CE DUP2 PUSH2 0x25DB JUMP JUMPDEST DUP4 MSTORE PUSH1 0x1 SWAP6 SWAP1 SWAP6 ADD SWAP5 SWAP2 DUP7 ADD SWAP2 DUP7 ADD PUSH2 0x21BB JUMP JUMPDEST POP SWAP5 DUP3 ADD SWAP5 SWAP1 SWAP5 MSTORE SWAP7 SWAP6 POP POP POP POP POP POP JUMP JUMPDEST PUSH1 0x0 PUSH1 0x20 DUP3 DUP5 SUB SLT ISZERO PUSH2 0x2205 JUMPI DUP1 DUP2 REVERT JUMPDEST POP CALLDATALOAD SWAP2 SWAP1 POP JUMP JUMPDEST PUSH1 0x0 PUSH1 0x20 DUP3 DUP5 SUB SLT ISZERO PUSH2 0x221D JUMPI DUP1 DUP2 REVERT JUMPDEST POP MLOAD SWAP2 SWAP1 POP JUMP JUMPDEST PUSH1 0x0 DUP1 PUSH1 0x40 DUP4 DUP6 SUB SLT ISZERO PUSH2 0x2236 JUMPI DUP2 DUP3 REVERT JUMPDEST POP POP DUP1 CALLDATALOAD SWAP3 PUSH1 0x20 SWAP1 SWAP2 ADD CALLDATALOAD SWAP2 POP JUMP JUMPDEST PUSH1 0x0 DUP2 MLOAD DUP1 DUP5 MSTORE PUSH1 0x20 DUP1 DUP6 ADD SWAP5 POP DUP1 DUP5 ADD DUP4 JUMPDEST DUP4 DUP2 LT ISZERO PUSH2 0x227D JUMPI DUP2 MLOAD PUSH1 0x1 PUSH1 0x1 PUSH1 0xA0 SHL SUB AND DUP8 MSTORE SWAP6 DUP3 ADD SWAP6 SWAP1 DUP3 ADD SWAP1 PUSH1 0x1 ADD PUSH2 0x2258 JUMP JUMPDEST POP SWAP5 SWAP6 SWAP5 POP POP POP POP POP JUMP JUMPDEST PUSH1 0x0 DUP3 MLOAD DUP2 JUMPDEST DUP2 DUP2 LT ISZERO PUSH2 0x22A8 JUMPI PUSH1 0x20 DUP2 DUP7 ADD DUP2 ADD MLOAD DUP6 DUP4 ADD MSTORE ADD PUSH2 0x228E JUMP JUMPDEST DUP2 DUP2 GT ISZERO PUSH2 0x22B6 JUMPI DUP3 DUP3 DUP6 ADD MSTORE JUMPDEST POP SWAP2 SWAP1 SWAP2 ADD SWAP3 SWAP2 POP POP JUMP JUMPDEST PUSH1 0x1 PUSH1 0x1 PUSH1 0xA0 SHL SUB SWAP2 SWAP1 SWAP2 AND DUP2 MSTORE PUSH1 0x20 ADD SWAP1 JUMP JUMPDEST PUSH1 0x0 PUSH1 0x80 DUP3 ADD PUSH1 0x1 DUP1 PUSH1 0xA0 SHL SUB DUP1 DUP9 AND DUP5 MSTORE PUSH1 0x20 DUP8 DUP2 DUP7 ADD MSTORE DUP2 DUP8 AND PUSH1 0x40 DUP7 ADD MSTORE PUSH1 0x80 PUSH1 0x60 DUP7 ADD MSTORE DUP3 DUP7 SLOAD DUP1 DUP6 MSTORE PUSH1 0xA0 DUP8 ADD SWAP2 POP DUP8 DUP7 MSTORE DUP3 DUP7 KECCAK256 SWAP5 POP DUP6 JUMPDEST DUP2 DUP2 LT ISZERO PUSH2 0x2331 JUMPI DUP6 SLOAD DUP6 AND DUP4 MSTORE PUSH1 0x1 SWAP6 DUP7 ADD SWAP6 SWAP3 DUP5 ADD SWAP3 ADD PUSH2 0x2313 JUMP JUMPDEST POP SWAP1 SWAP11 SWAP10 POP POP POP POP POP POP POP POP POP POP JUMP JUMPDEST PUSH1 0x1 PUSH1 0x1 PUSH1 0xA0 SHL SUB SWAP3 SWAP1 SWAP3 AND DUP3 MSTORE PUSH1 0x20 DUP3 ADD MSTORE PUSH1 0x40 ADD SWAP1 JUMP JUMPDEST PUSH1 0x1 PUSH1 0x1 PUSH1 0xA0 SHL SUB SWAP4 SWAP1 SWAP4 AND DUP4 MSTORE PUSH1 0x20 DUP4 ADD SWAP2 SWAP1 SWAP2 MSTORE PUSH1 0xFF AND PUSH1 0x40 DUP3 ADD MSTORE PUSH1 0x60 ADD SWAP1 JUMP JUMPDEST PUSH1 0x0 PUSH1 0x60 DUP3 ADD PUSH1 0x60 DUP4 MSTORE DUP1 DUP7 SLOAD DUP1 DUP4 MSTORE PUSH1 0x80 DUP6 ADD SWAP2 POP DUP8 DUP5 MSTORE PUSH1 0x20 SWAP3 POP DUP3 DUP5 KECCAK256 DUP5 JUMPDEST DUP3 DUP2 LT ISZERO PUSH2 0x23BC JUMPI DUP2 SLOAD DUP5 MSTORE SWAP3 DUP5 ADD SWAP3 PUSH1 0x1 SWAP2 DUP3 ADD SWAP2 ADD PUSH2 0x23A0 JUMP JUMPDEST POP POP POP SWAP1 DUP4 ADD SWAP5 SWAP1 SWAP5 MSTORE POP PUSH1 0x40 ADD MSTORE SWAP2 SWAP1 POP JUMP JUMPDEST SWAP2 DUP3 MSTORE PUSH1 0x1 PUSH1 0x1 PUSH1 0xA0 SHL SUB AND PUSH1 0x20 DUP3 ADD MSTORE PUSH1 0x40 ADD SWAP1 JUMP JUMPDEST SWAP2 DUP3 MSTORE PUSH1 0x20 DUP3 ADD MSTORE PUSH1 0x40 ADD SWAP1 JUMP JUMPDEST PUSH1 0x20 DUP1 DUP3 MSTORE PUSH1 0x26 SWAP1 DUP3 ADD MSTORE PUSH32 0x4F776E61626C653A206E6577206F776E657220697320746865207A65726F2061 PUSH1 0x40 DUP3 ADD MSTORE PUSH6 0x646472657373 PUSH1 0xD0 SHL PUSH1 0x60 DUP3 ADD MSTORE PUSH1 0x80 ADD SWAP1 JUMP JUMPDEST PUSH1 0x20 DUP1 DUP3 MSTORE PUSH1 0xE SWAP1 DUP3 ADD MSTORE PUSH14 0x1D185C99D95D0B5A5B9D985B1A59 PUSH1 0x92 SHL PUSH1 0x40 DUP3 ADD MSTORE PUSH1 0x60 ADD SWAP1 JUMP JUMPDEST PUSH1 0x20 DUP1 DUP3 MSTORE DUP2 DUP2 ADD MSTORE PUSH32 0x4F776E61626C653A2063616C6C6572206973206E6F7420746865206F776E6572 PUSH1 0x40 DUP3 ADD MSTORE PUSH1 0x60 ADD SWAP1 JUMP JUMPDEST PUSH1 0x20 DUP1 DUP3 MSTORE PUSH1 0x21 SWAP1 DUP3 ADD MSTORE PUSH32 0x546F7320616E64206461746173206C656E67746820696E636F6E73697374656E PUSH1 0x40 DUP3 ADD MSTORE PUSH1 0x1D PUSH1 0xFA SHL PUSH1 0x60 DUP3 ADD MSTORE PUSH1 0x80 ADD SWAP1 JUMP JUMPDEST PUSH1 0x20 DUP1 DUP3 MSTORE PUSH1 0x1F SWAP1 DUP3 ADD MSTORE PUSH32 0x53747261746567793A204F7065726174696F6E206E6F7420616C6C6F77656400 PUSH1 0x40 DUP3 ADD MSTORE PUSH1 0x60 ADD SWAP1 JUMP JUMPDEST SWAP1 DUP2 MSTORE PUSH1 0x20 ADD SWAP1 JUMP JUMPDEST PUSH1 0x0 DUP4 DUP3 MSTORE PUSH1 0x40 PUSH1 0x20 DUP4 ADD MSTORE PUSH2 0x2532 PUSH1 0x40 DUP4 ADD DUP5 PUSH2 0x2245 JUMP JUMPDEST SWAP5 SWAP4 POP POP POP POP JUMP JUMPDEST PUSH1 0x0 DUP7 DUP3 MSTORE DUP6 PUSH1 0x20 DUP4 ADD MSTORE PUSH1 0xA0 PUSH1 0x40 DUP4 ADD MSTORE PUSH2 0x2559 PUSH1 0xA0 DUP4 ADD DUP7 PUSH2 0x2245 JUMP JUMPDEST PUSH1 0x1 PUSH1 0x1 PUSH1 0xA0 SHL SUB SWAP5 SWAP1 SWAP5 AND PUSH1 0x60 DUP4 ADD MSTORE POP PUSH1 0x80 ADD MSTORE SWAP4 SWAP3 POP POP POP JUMP JUMPDEST SWAP4 DUP5 MSTORE PUSH1 0xFF SWAP3 SWAP1 SWAP3 AND PUSH1 0x20 DUP5 ADD MSTORE PUSH1 0x40 DUP4 ADD MSTORE PUSH1 0x60 DUP3 ADD MSTORE PUSH1 0x80 ADD SWAP1 JUMP JUMPDEST PUSH1 0x40 MLOAD DUP2 DUP2 ADD PUSH8 0xFFFFFFFFFFFFFFFF DUP2 GT DUP3 DUP3 LT OR ISZERO PUSH2 0x25B3 JUMPI PUSH1 0x0 DUP1 REVERT JUMPDEST PUSH1 0x40 MSTORE SWAP2 SWAP1 POP JUMP JUMPDEST PUSH1 0x0 PUSH8 0xFFFFFFFFFFFFFFFF DUP3 GT ISZERO PUSH2 0x25D1 JUMPI DUP1 DUP2 REVERT JUMPDEST POP PUSH1 0x20 SWAP1 DUP2 MUL ADD SWAP1 JUMP JUMPDEST PUSH1 0x1 PUSH1 0x1 PUSH1 0xA0 SHL SUB DUP2 AND DUP2 EQ PUSH2 0x5CA JUMPI PUSH1 0x0 DUP1 REVERT INVALID LOG2 PUSH5 0x6970667358 0x22 SLT KECCAK256 PUSH15 0xE350DD9B2C168ECA2A810C857ECFC9 GASLIMIT CODESIZE PUSH28 0xC34F9E7729118EA16BE4E6B4564736F6C634300060C003300000000 "
		},
		"gasEstimates": {
			"creation": {
				"codeDepositCost": "1953200",
				"executionCost": "infinite",
				"totalCost": "infinite"
			},
			"external": {
				"busd()": "1138",
				"convertRewards()": "infinite",
				"directExecuteCubes(address[],bytes[])": "infinite",
				"exit()": "infinite",
				"getAmountsOut(uint256,uint256)": "infinite",
				"getCronAddress()": "1182",
				"getPercent()": "341",
				"getPoolAddress()": "1180",
				"getRouteMapper()": "1115",
				"harvest()": "infinite",
				"invest()": "infinite",
				"nerve()": "1115",
				"nerveRouter()": "1161",
				"nerveStaking()": "1137",
				"nervelp()": "1115",
				"owner()": "1160",
				"renounceOwnership()": "24315",
				"returnBusd()": "infinite",
				"setCronAddress(address)": "22133",
				"setDefaultRoutes()": "infinite",
				"setPoolAddress(address)": "22088",
				"setRouteMapper(address)": "22156",
				"stake(uint256)": "infinite",
				"totalRewards()": "infinite",
				"totalTokens()": "infinite",
				"totalValue()": "infinite",
				"transferLpTokens(address,uint256)": "infinite",
				"transferOwnership(address)": "infinite",
				"transferPool(address,address)": "infinite",
				"unstake(uint256)": "infinite",
				"withdraw(uint256)": "infinite",
				"withdrawTokens(uint256)": "infinite"
			},
			"internal": {
				"_getLastItem(uint256[] memory)": "infinite",
				"executeCube(address,bytes memory)": "infinite",
				"swapWithDex(uint256,uint256)": "infinite"
			}
		},
		"methodIdentifiers": {
			"busd()": "3ca5b234",
			"convertRewards()": "05b015de",
			"directExecuteCubes(address[],bytes[])": "320cca5c",
			"exit()": "e9fad8ee",
			"getAmountsOut(uint256,uint256)": "8bbdbd3a",
			"getCronAddress()": "90811334",
			"getPercent()": "2a6dd8c9",
			"getPoolAddress()": "f586c6d9",
			"getRouteMapper()": "5fce3312",
			"harvest()": "4641257d",
			"invest()": "e8b5e51f",
			"nerve()": "cd4eb5db",
			"nerveRouter()": "1b6423cf",
			"nerveStaking()": "68eacb9b",
			"nervelp()": "91cbf004",
			"owner()": "8da5cb5b",
			"renounceOwnership()": "715018a6",
			"returnBusd()": "3630211a",
			"setCronAddress(address)": "b97af194",
			"setDefaultRoutes()": "babb4f38",
			"setPoolAddress(address)": "e9e15b4f",
			"setRouteMapper(address)": "479f69ef",
			"stake(uint256)": "a694fc3a",
			"totalRewards()": "0e15561a",
			"totalTokens()": "7e1c0c09",
			"totalValue()": "d4c3eea0",
			"transferLpTokens(address,uint256)": "6a4db2fb",
			"transferOwnership(address)": "f2fde38b",
			"transferPool(address,address)": "d34cc3b3",
			"unstake(uint256)": "2e17de78",
			"withdraw(uint256)": "2e1a7d4d",
			"withdrawTokens(uint256)": "315a095d"
		}
	},
	"abi": [
		{
			"inputs": [
				{
					"internalType": "address",
					"name": "_poolAddress",
					"type": "address"
				},
				{
					"internalType": "address",
					"name": "_routeMapper",
					"type": "address"
				}
			],
			"stateMutability": "nonpayable",
			"type": "constructor"
		},
		{
			"anonymous": false,
			"inputs": [
				{
					"indexed": true,
					"internalType": "address",
					"name": "previousOwner",
					"type": "address"
				},
				{
					"indexed": true,
					"internalType": "address",
					"name": "newOwner",
					"type": "address"
				}
			],
			"name": "OwnershipTransferred",
			"type": "event"
		},
		{
			"inputs": [],
			"name": "busd",
			"outputs": [
				{
					"internalType": "contract IBEP20",
					"name": "",
					"type": "address"
				}
			],
			"stateMutability": "view",
			"type": "function"
		},
		{
			"inputs": [],
			"name": "convertRewards",
			"outputs": [],
			"stateMutability": "nonpayable",
			"type": "function"
		},
		{
			"inputs": [
				{
					"internalType": "address[]",
					"name": "_protocolAddress",
					"type": "address[]"
				},
				{
					"internalType": "bytes[]",
					"name": "_abis",
					"type": "bytes[]"
				}
			],
			"name": "directExecuteCubes",
			"outputs": [],
			"stateMutability": "nonpayable",
			"type": "function"
		},
		{
			"inputs": [],
			"name": "exit",
			"outputs": [],
			"stateMutability": "nonpayable",
			"type": "function"
		},
		{
			"inputs": [
				{
					"internalType": "uint256",
					"name": "routeIndex",
					"type": "uint256"
				},
				{
					"internalType": "uint256",
					"name": "amount",
					"type": "uint256"
				}
			],
			"name": "getAmountsOut",
			"outputs": [
				{
					"internalType": "uint256",
					"name": "",
					"type": "uint256"
				}
			],
			"stateMutability": "view",
			"type": "function"
		},
		{
			"inputs": [],
			"name": "getCronAddress",
			"outputs": [
				{
					"internalType": "address",
					"name": "",
					"type": "address"
				}
			],
			"stateMutability": "view",
			"type": "function"
		},
		{
			"inputs": [],
			"name": "getPercent",
			"outputs": [
				{
					"internalType": "uint256",
					"name": "",
					"type": "uint256"
				}
			],
			"stateMutability": "pure",
			"type": "function"
		},
		{
			"inputs": [],
			"name": "getPoolAddress",
			"outputs": [
				{
					"internalType": "address",
					"name": "",
					"type": "address"
				}
			],
			"stateMutability": "view",
			"type": "function"
		},
		{
			"inputs": [],
			"name": "getRouteMapper",
			"outputs": [
				{
					"internalType": "address",
					"name": "",
					"type": "address"
				}
			],
			"stateMutability": "view",
			"type": "function"
		},
		{
			"inputs": [],
			"name": "harvest",
			"outputs": [],
			"stateMutability": "nonpayable",
			"type": "function"
		},
		{
			"inputs": [],
			"name": "invest",
			"outputs": [],
			"stateMutability": "nonpayable",
			"type": "function"
		},
		{
			"inputs": [],
			"name": "nerve",
			"outputs": [
				{
					"internalType": "contract IBEP20",
					"name": "",
					"type": "address"
				}
			],
			"stateMutability": "view",
			"type": "function"
		},
		{
			"inputs": [],
			"name": "nerveRouter",
			"outputs": [
				{
					"internalType": "contract INerveRouder",
					"name": "",
					"type": "address"
				}
			],
			"stateMutability": "view",
			"type": "function"
		},
		{
			"inputs": [],
			"name": "nerveStaking",
			"outputs": [
				{
					"internalType": "contract INerveStaking",
					"name": "",
					"type": "address"
				}
			],
			"stateMutability": "view",
			"type": "function"
		},
		{
			"inputs": [],
			"name": "nervelp",
			"outputs": [
				{
					"internalType": "contract IBEP20",
					"name": "",
					"type": "address"
				}
			],
			"stateMutability": "view",
			"type": "function"
		},
		{
			"inputs": [],
			"name": "owner",
			"outputs": [
				{
					"internalType": "address",
					"name": "",
					"type": "address"
				}
			],
			"stateMutability": "view",
			"type": "function"
		},
		{
			"inputs": [],
			"name": "renounceOwnership",
			"outputs": [],
			"stateMutability": "nonpayable",
			"type": "function"
		},
		{
			"inputs": [],
			"name": "returnBusd",
			"outputs": [],
			"stateMutability": "nonpayable",
			"type": "function"
		},
		{
			"inputs": [
				{
					"internalType": "address",
					"name": "_cronAddress",
					"type": "address"
				}
			],
			"name": "setCronAddress",
			"outputs": [],
			"stateMutability": "nonpayable",
			"type": "function"
		},
		{
			"inputs": [],
			"name": "setDefaultRoutes",
			"outputs": [],
			"stateMutability": "nonpayable",
			"type": "function"
		},
		{
			"inputs": [
				{
					"internalType": "address",
					"name": "_newPool",
					"type": "address"
				}
			],
			"name": "setPoolAddress",
			"outputs": [],
			"stateMutability": "nonpayable",
			"type": "function"
		},
		{
			"inputs": [
				{
					"internalType": "address",
					"name": "_address",
					"type": "address"
				}
			],
			"name": "setRouteMapper",
			"outputs": [],
			"stateMutability": "nonpayable",
			"type": "function"
		},
		{
			"inputs": [
				{
					"internalType": "uint256",
					"name": "amount",
					"type": "uint256"
				}
			],
			"name": "stake",
			"outputs": [],
			"stateMutability": "nonpayable",
			"type": "function"
		},
		{
			"inputs": [],
			"name": "totalRewards",
			"outputs": [
				{
					"internalType": "uint256",
					"name": "",
					"type": "uint256"
				}
			],
			"stateMutability": "view",
			"type": "function"
		},
		{
			"inputs": [],
			"name": "totalTokens",
			"outputs": [
				{
					"internalType": "uint256",
					"name": "",
					"type": "uint256"
				}
			],
			"stateMutability": "view",
			"type": "function"
		},
		{
			"inputs": [],
			"name": "totalValue",
			"outputs": [
				{
					"internalType": "uint256",
					"name": "",
					"type": "uint256"
				}
			],
			"stateMutability": "view",
			"type": "function"
		},
		{
			"inputs": [
				{
					"internalType": "address",
					"name": "_address",
					"type": "address"
				},
				{
					"internalType": "uint256",
					"name": "amount",
					"type": "uint256"
				}
			],
			"name": "transferLpTokens",
			"outputs": [],
			"stateMutability": "nonpayable",
			"type": "function"
		},
		{
			"inputs": [
				{
					"internalType": "address",
					"name": "newOwner",
					"type": "address"
				}
			],
			"name": "transferOwnership",
			"outputs": [],
			"stateMutability": "nonpayable",
			"type": "function"
		},
		{
			"inputs": [
				{
					"internalType": "address payable",
					"name": "_tokenAddress",
					"type": "address"
				},
				{
					"internalType": "address",
					"name": "_newStratAddres",
					"type": "address"
				}
			],
			"name": "transferPool",
			"outputs": [],
			"stateMutability": "nonpayable",
			"type": "function"
		},
		{
			"inputs": [
				{
					"internalType": "uint256",
					"name": "amount",
					"type": "uint256"
				}
			],
			"name": "unstake",
			"outputs": [],
			"stateMutability": "nonpayable",
			"type": "function"
		},
		{
			"inputs": [
				{
					"internalType": "uint256",
					"name": "amount",
					"type": "uint256"
				}
			],
			"name": "withdraw",
			"outputs": [],
			"stateMutability": "nonpayable",
			"type": "function"
		},
		{
			"inputs": [
				{
					"internalType": "uint256",
					"name": "amount",
					"type": "uint256"
				}
			],
			"name": "withdrawTokens",
			"outputs": [],
			"stateMutability": "nonpayable",
			"type": "function"
		}
	]
}