{
    "contractName": "Strategy",
    "abi": [
        {
            "inputs": [
                {
                    "internalType": "address",
                    "name": "_poolAddress",
                    "type": "address"
                }
            ],
            "stateMutability": "nonpayable",
            "type": "constructor"
        },
        {
            "anonymous": false,
            "inputs": [
                {
                    "indexed": true,
                    "internalType": "address",
                    "name": "previousOwner",
                    "type": "address"
                },
                {
                    "indexed": true,
                    "internalType": "address",
                    "name": "newOwner",
                    "type": "address"
                }
            ],
            "name": "OwnershipTransferred",
            "type": "event"
        },
        {
            "inputs": [
                {
                    "internalType": "uint256",
                    "name": "_pid",
                    "type": "uint256"
                },
                {
                    "internalType": "uint256",
                    "name": "_wantAmount",
                    "type": "uint256"
                }
            ],
            "name": "_withdrawFromAutoFarmV1",
            "outputs": [],
            "stateMutability": "nonpayable",
            "type": "function"
        },
        {
            "inputs": [
                {
                    "internalType": "uint256",
                    "name": "stakedTokens",
                    "type": "uint256"
                }
            ],
            "name": "_withdrawSwampFinance",
            "outputs": [],
            "stateMutability": "nonpayable",
            "type": "function"
        },
        {
            "inputs": [],
            "name": "alphaBnbLP2Token",
            "outputs": [
                {
                    "internalType": "contract IMdexERC20",
                    "name": "",
                    "type": "address"
                }
            ],
            "stateMutability": "view",
            "type": "function"
        },
        {
            "inputs": [],
            "name": "alphaToken",
            "outputs": [
                {
                    "internalType": "contract IBEP20",
                    "name": "",
                    "type": "address"
                }
            ],
            "stateMutability": "view",
            "type": "function"
        },
        {
            "inputs": [],
            "name": "autoFarmVault",
            "outputs": [
                {
                    "internalType": "contract IAutoFarm",
                    "name": "",
                    "type": "address"
                }
            ],
            "stateMutability": "view",
            "type": "function"
        },
        {
            "inputs": [],
            "name": "autoToken",
            "outputs": [
                {
                    "internalType": "contract IBEP20",
                    "name": "",
                    "type": "address"
                }
            ],
            "stateMutability": "view",
            "type": "function"
        },
        {
            "inputs": [],
            "name": "beefyVault",
            "outputs": [
                {
                    "internalType": "contract IBeefyVault",
                    "name": "",
                    "type": "address"
                }
            ],
            "stateMutability": "view",
            "type": "function"
        },
        {
            "inputs": [],
            "name": "bnb",
            "outputs": [
                {
                    "internalType": "contract IBEP20",
                    "name": "",
                    "type": "address"
                }
            ],
            "stateMutability": "view",
            "type": "function"
        },
        {
            "inputs": [],
            "name": "bunnyProxy",
            "outputs": [
                {
                    "internalType": "contract IBunnyProxy",
                    "name": "",
                    "type": "address"
                }
            ],
            "stateMutability": "view",
            "type": "function"
        },
        {
            "inputs": [],
            "name": "bunnyVault",
            "outputs": [
                {
                    "internalType": "contract IBunnyMaximizer",
                    "name": "",
                    "type": "address"
                }
            ],
            "stateMutability": "view",
            "type": "function"
        },
        {
            "inputs": [],
            "name": "busd",
            "outputs": [
                {
                    "internalType": "contract IBEP20",
                    "name": "",
                    "type": "address"
                }
            ],
            "stateMutability": "view",
            "type": "function"
        },
        {
            "inputs": [],
            "name": "cakeLpToken",
            "outputs": [
                {
                    "internalType": "contract IBEP20",
                    "name": "",
                    "type": "address"
                }
            ],
            "stateMutability": "view",
            "type": "function"
        },
        {
            "inputs": [],
            "name": "cakeToken",
            "outputs": [
                {
                    "internalType": "contract IBEP20",
                    "name": "",
                    "type": "address"
                }
            ],
            "stateMutability": "view",
            "type": "function"
        },
        {
            "inputs": [],
            "name": "convertRewards",
            "outputs": [],
            "stateMutability": "nonpayable",
            "type": "function"
        },
        {
            "inputs": [
                {
                    "internalType": "address[]",
                    "name": "_protocolAddress",
                    "type": "address[]"
                },
                {
                    "internalType": "bytes[]",
                    "name": "_abis",
                    "type": "bytes[]"
                }
            ],
            "name": "directExecuteCubes",
            "outputs": [],
            "stateMutability": "nonpayable",
            "type": "function"
        },
        {
            "inputs": [],
            "name": "ethToken",
            "outputs": [
                {
                    "internalType": "contract IBEP20",
                    "name": "",
                    "type": "address"
                }
            ],
            "stateMutability": "view",
            "type": "function"
        },
        {
            "inputs": [],
            "name": "exit",
            "outputs": [],
            "stateMutability": "nonpayable",
            "type": "function"
        },
        {
            "inputs": [],
            "name": "getAllowedslippage",
            "outputs": [
                {
                    "internalType": "uint256",
                    "name": "",
                    "type": "uint256"
                }
            ],
            "stateMutability": "view",
            "type": "function"
        },
        {
            "inputs": [],
            "name": "getCronAddress",
            "outputs": [
                {
                    "internalType": "address",
                    "name": "",
                    "type": "address"
                }
            ],
            "stateMutability": "view",
            "type": "function"
        },
        {
            "inputs": [],
            "name": "getpoolAddress",
            "outputs": [
                {
                    "internalType": "address",
                    "name": "",
                    "type": "address"
                }
            ],
            "stateMutability": "view",
            "type": "function"
        },
        {
            "inputs": [],
            "name": "harvest",
            "outputs": [],
            "stateMutability": "nonpayable",
            "type": "function"
        },
        {
            "inputs": [],
            "name": "invest",
            "outputs": [],
            "stateMutability": "nonpayable",
            "type": "function"
        },
        {
            "inputs": [
                {
                    "internalType": "uint256",
                    "name": "depositAmount",
                    "type": "uint256"
                }
            ],
            "name": "investInAutoFarm",
            "outputs": [],
            "stateMutability": "nonpayable",
            "type": "function"
        },
        {
            "inputs": [
                {
                    "internalType": "uint256",
                    "name": "depositAmount",
                    "type": "uint256"
                }
            ],
            "name": "investInBeefy",
            "outputs": [],
            "stateMutability": "nonpayable",
            "type": "function"
        },
        {
            "inputs": [
                {
                    "internalType": "uint256",
                    "name": "depositAmount",
                    "type": "uint256"
                }
            ],
            "name": "investInSwamp",
            "outputs": [],
            "stateMutability": "nonpayable",
            "type": "function"
        },
        {
            "inputs": [],
            "name": "mdexAutoLpToken",
            "outputs": [
                {
                    "internalType": "contract IBEP20",
                    "name": "",
                    "type": "address"
                }
            ],
            "stateMutability": "view",
            "type": "function"
        },
        {
            "inputs": [],
            "name": "mdexLpToken",
            "outputs": [
                {
                    "internalType": "contract IMdexERC20",
                    "name": "",
                    "type": "address"
                }
            ],
            "stateMutability": "view",
            "type": "function"
        },
        {
            "inputs": [],
            "name": "owner",
            "outputs": [
                {
                    "internalType": "address",
                    "name": "",
                    "type": "address"
                }
            ],
            "stateMutability": "view",
            "type": "function"
        },
        {
            "inputs": [],
            "name": "renounceOwnership",
            "outputs": [],
            "stateMutability": "nonpayable",
            "type": "function"
        },
        {
            "inputs": [
                {
                    "internalType": "address",
                    "name": "_cronAddress",
                    "type": "address"
                }
            ],
            "name": "setCronAddress",
            "outputs": [],
            "stateMutability": "nonpayable",
            "type": "function"
        },
        {
            "inputs": [
                {
                    "internalType": "address",
                    "name": "_newPool",
                    "type": "address"
                }
            ],
            "name": "setPoolAddress",
            "outputs": [],
            "stateMutability": "nonpayable",
            "type": "function"
        },
        {
            "inputs": [],
            "name": "swampFinance",
            "outputs": [
                {
                    "internalType": "contract ISwampFinance",
                    "name": "",
                    "type": "address"
                }
            ],
            "stateMutability": "view",
            "type": "function"
        },
        {
            "inputs": [],
            "name": "swampToken",
            "outputs": [
                {
                    "internalType": "contract IBEP20",
                    "name": "",
                    "type": "address"
                }
            ],
            "stateMutability": "view",
            "type": "function"
        },
        {
            "inputs": [],
            "name": "totalALPHAWBNBValue",
            "outputs": [
                {
                    "internalType": "uint256",
                    "name": "",
                    "type": "uint256"
                }
            ],
            "stateMutability": "view",
            "type": "function"
        },
        {
            "inputs": [],
            "name": "totalBUSDAutoValue",
            "outputs": [
                {
                    "internalType": "uint256",
                    "name": "",
                    "type": "uint256"
                }
            ],
            "stateMutability": "view",
            "type": "function"
        },
        {
            "inputs": [],
            "name": "totalETHUSDTValue",
            "outputs": [
                {
                    "internalType": "uint256",
                    "name": "",
                    "type": "uint256"
                }
            ],
            "stateMutability": "view",
            "type": "function"
        },
        {
            "inputs": [],
            "name": "totalRewards",
            "outputs": [
                {
                    "internalType": "uint256",
                    "name": "",
                    "type": "uint256"
                }
            ],
            "stateMutability": "view",
            "type": "function"
        },
        {
            "inputs": [],
            "name": "totalValue",
            "outputs": [
                {
                    "internalType": "uint256",
                    "name": "",
                    "type": "uint256"
                }
            ],
            "stateMutability": "view",
            "type": "function"
        },
        {
            "inputs": [],
            "name": "totalValueWithoutRewards",
            "outputs": [
                {
                    "internalType": "uint256",
                    "name": "",
                    "type": "uint256"
                }
            ],
            "stateMutability": "view",
            "type": "function"
        },
        {
            "inputs": [],
            "name": "totalcakeWBNBValue",
            "outputs": [
                {
                    "internalType": "uint256",
                    "name": "",
                    "type": "uint256"
                }
            ],
            "stateMutability": "view",
            "type": "function"
        },
        {
            "inputs": [
                {
                    "internalType": "address",
                    "name": "newOwner",
                    "type": "address"
                }
            ],
            "name": "transferOwnership",
            "outputs": [],
            "stateMutability": "nonpayable",
            "type": "function"
        },
        {
            "inputs": [
                {
                    "internalType": "address payable",
                    "name": "_tokenAddress",
                    "type": "address"
                }
            ],
            "name": "transferPool",
            "outputs": [],
            "stateMutability": "nonpayable",
            "type": "function"
        },
        {
            "inputs": [
                {
                    "internalType": "address payable",
                    "name": "_tokenAddress",
                    "type": "address"
                },
                {
                    "internalType": "address payable",
                    "name": "_oldStrategy",
                    "type": "address"
                }
            ],
            "name": "transferTokens",
            "outputs": [],
            "stateMutability": "payable",
            "type": "function"
        },
        {
            "inputs": [
                {
                    "internalType": "uint256",
                    "name": "newSlippage",
                    "type": "uint256"
                }
            ],
            "name": "updateSlippage",
            "outputs": [],
            "stateMutability": "nonpayable",
            "type": "function"
        },
        {
            "inputs": [],
            "name": "usdtToken",
            "outputs": [
                {
                    "internalType": "contract IBEP20",
                    "name": "",
                    "type": "address"
                }
            ],
            "stateMutability": "view",
            "type": "function"
        },
        {
            "inputs": [],
            "name": "wbnbToken",
            "outputs": [
                {
                    "internalType": "contract IBEP20",
                    "name": "",
                    "type": "address"
                }
            ],
            "stateMutability": "view",
            "type": "function"
        },
        {
            "inputs": [
                {
                    "internalType": "uint256",
                    "name": "amount",
                    "type": "uint256"
                }
            ],
            "name": "withDraw",
            "outputs": [],
            "stateMutability": "nonpayable",
            "type": "function"
        },
        {
            "inputs": [
                {
                    "internalType": "uint256",
                    "name": "tokenAmt",
                    "type": "uint256"
                }
            ],
            "name": "withdrawBeefFinance",
            "outputs": [],
            "stateMutability": "nonpayable",
            "type": "function"
        }
    ],
    "bytecode": "600280546001600160a01b03191673f479768a548095beb8bdd507e2608377b5df667d17815560c0604052600080516020620067398339815191526080908152732170ed0880ac9a755fd29b2688956bd959f933f860a05262000066916003919062001869565b5060408051808201909152732170ed0880ac9a755fd29b2688956bd959f933f88152600080516020620067398339815191526020820152620000ad90600490600262001869565b506040805160608101825273a1faa113cbe53436df28ff0aee54275c13b40975815260008051602062006719833981519152602082015260008051602062006739833981519152918101919091526200010b90600590600362001869565b50604080518082019091526000805160206200673983398151915281526000805160206200671983398151915260208201526200014d90600690600262001869565b50604080518082019091526000805160206200671983398151915281526000805160206200673983398151915260208201526200018f90600790600262001869565b50604080518082019091526000805160206200673983398151915281527355d398326f99059ff775485246999027b31979556020820152620001d690600890600262001869565b50604080518082019091527355d398326f99059ff775485246999027b319795581526000805160206200673983398151915260208201526200021d90600990600262001869565b5060408051808201909152600080516020620067398339815191528152730e09fabb73bd3ade0a17ecc321fd13a19e81ce8260208201526200026490600a90600262001869565b506040805160608101825260008051602062006739833981519152815260008051602062006719833981519152602082015273a184088a740c695e156f91f5cc086a06bb78b82791810191909152620002c290600b90600362001869565b506040805180820190915273a184088a740c695e156f91f5cc086a06bb78b82781526000805160206200673983398151915260208201526200030990600c90600262001869565b506040805160608101825260008051602062006739833981519152815260008051602062006719833981519152602082015273a1faa113cbe53436df28ff0aee54275c13b40975918101919091526200036790600d90600362001869565b5060408051808201909152730e09fabb73bd3ade0a17ecc321fd13a19e81ce828152600080516020620067398339815191526020820152620003ae90600e90600262001869565b506040805160808101825273c5a49b4cbe004b6fd55b30ba1de6ac360ff9765d81527355d398326f99059ff775485246999027b31979556020820152732170ed0880ac9a755fd29b2688956bd959f933f8918101919091526000805160206200673983398151915260608201526200042b90600f90600462001869565b506040805180820190915273a184088a740c695e156f91f5cc086a06bb78b82781526000805160206200673983398151915260208201526200047290601090600262001869565b5060408051808201909152600080516020620067198339815191528152600080516020620067398339815191526020820152620004b490601190600262001869565b5060408051808201909152730ed7e52944161450477ee417de9cd3a859b14fd08152600080516020620067398339815191526020820152620004fb90601290600262001869565b5060408051808201909152738fe32329c4dbe8d29b9c8874ef0f52ccd8c7d3f081526000805160206200673983398151915260208201526200054290601390600262001869565b506801158e460913d00000601455678ac7230489e8000060155568056bc75e2d63100000601655605f601755601880546001600160a01b03199081167381fa6f9f4599c5316cc53b782de7c01eff4f95511790915560198054821673dc2bbb0d33e0e7dea9f5b98f46edbac823586a0c179055601a8054821660008051602062006739833981519152179055601b805482167358f876857a02d6762e0101bb5c46a8c1ed44dc16179055601c8054821660008051602062006779833981519152179055601d805482167355d398326f99059ff775485246999027b3197955179055601e80548216732170ed0880ac9a755fd29b2688956bd959f933f8179055601f80548216730fb881c078434b1c0e4d0b64d8c64d12078b7ce21790556020805482167333adbf5f1ec364a4ea3a5ca8f310b597b8afdee3179055602180548216730e09fabb73bd3ade0a17ecc321fd13a19e81ce82179055602280548216730ed7e52944161450477ee417de9cd3a859b14fd0179055602380548216730895196562c7868c5be92459fae7f877ed45045217905560248054821673a184088a740c695e156f91f5cc086a06bb78b827179055602580548216738fe32329c4dbe8d29b9c8874ef0f52ccd8c7d3f017905560268054821673a1faa113cbe53436df28ff0aee54275c13b4097517905560278054821673fca433b1c071737f92b76234984aba10d04de57e17905560288054821673acf47cbeaab5c8a6ee99263cfe43995f89fb320617905560298054821660008051602062006719833981519152179055602a8054821673c5a49b4cbe004b6fd55b30ba1de6ac360ff9765d179055602b805490911660008051602062006759833981519152179055348015620007cb57600080fd5b506040516200679938038062006799833981016040819052620007ee91620018f4565b6000620007fa62001865565b600080546001600160a01b0319166001600160a01b0383169081178255604051929350917f8be0079c531659141344cd1fd0a4f28419497f9722a3daafe3b4186f6b6457e0908290a350601a5460405163095ea7b360e01b81526001600160a01b039091169063095ea7b3906200088e907381fa6f9f4599c5316cc53b782de7c01eff4f9551906000199060040162001946565b602060405180830381600087803b158015620008a957600080fd5b505af1158015620008be573d6000803e3d6000fd5b505050506040513d601f19601f82011682018060405250810190620008e4919062001924565b50601b5460405163095ea7b360e01b81526001600160a01b039091169063095ea7b3906200092f907381fa6f9f4599c5316cc53b782de7c01eff4f9551906000199060040162001946565b602060405180830381600087803b1580156200094a57600080fd5b505af11580156200095f573d6000803e3d6000fd5b505050506040513d601f19601f8201168201806040525081019062000985919062001924565b50601b5460405163095ea7b360e01b81526001600160a01b039091169063095ea7b390620009cb9060008051602062006759833981519152906000199060040162001946565b602060405180830381600087803b158015620009e657600080fd5b505af1158015620009fb573d6000803e3d6000fd5b505050506040513d601f19601f8201168201806040525081019062000a21919062001924565b50601a5460405163095ea7b360e01b81526001600160a01b039091169063095ea7b39062000a679060008051602062006759833981519152906000199060040162001946565b602060405180830381600087803b15801562000a8257600080fd5b505af115801562000a97573d6000803e3d6000fd5b505050506040513d601f19601f8201168201806040525081019062000abd919062001924565b50601a5460405163095ea7b360e01b81526001600160a01b039091169063095ea7b39062000b039060008051602062006779833981519152906000199060040162001946565b602060405180830381600087803b15801562000b1e57600080fd5b505af115801562000b33573d6000803e3d6000fd5b505050506040513d601f19601f8201168201806040525081019062000b59919062001924565b50601d5460405163095ea7b360e01b81526001600160a01b039091169063095ea7b39062000b9f9060008051602062006779833981519152906000199060040162001946565b602060405180830381600087803b15801562000bba57600080fd5b505af115801562000bcf573d6000803e3d6000fd5b505050506040513d601f19601f8201168201806040525081019062000bf5919062001924565b50601e5460405163095ea7b360e01b81526001600160a01b039091169063095ea7b39062000c3b9060008051602062006779833981519152906000199060040162001946565b602060405180830381600087803b15801562000c5657600080fd5b505af115801562000c6b573d6000803e3d6000fd5b505050506040513d601f19601f8201168201806040525081019062000c91919062001924565b50601f5460405163095ea7b360e01b81526001600160a01b039091169063095ea7b39062000cdc907333adbf5f1ec364a4ea3a5ca8f310b597b8afdee3906000199060040162001946565b602060405180830381600087803b15801562000cf757600080fd5b505af115801562000d0c573d6000803e3d6000fd5b505050506040513d601f19601f8201168201806040525081019062000d32919062001924565b50601f5460405163095ea7b360e01b81526001600160a01b039091169063095ea7b39062000d789060008051602062006779833981519152906000199060040162001946565b602060405180830381600087803b15801562000d9357600080fd5b505af115801562000da8573d6000803e3d6000fd5b505050506040513d601f19601f8201168201806040525081019062000dce919062001924565b50601f5460405163095ea7b360e01b81526001600160a01b039091169063095ea7b39062000e149060008051602062006759833981519152906000199060040162001946565b602060405180830381600087803b15801562000e2f57600080fd5b505af115801562000e44573d6000803e3d6000fd5b505050506040513d601f19601f8201168201806040525081019062000e6a919062001924565b5060245460405163095ea7b360e01b81526001600160a01b039091169063095ea7b39062000eb09060008051602062006759833981519152906000199060040162001946565b602060405180830381600087803b15801562000ecb57600080fd5b505af115801562000ee0573d6000803e3d6000fd5b505050506040513d601f19601f8201168201806040525081019062000f06919062001924565b5060215460405163095ea7b360e01b81526001600160a01b039091169063095ea7b39062000f4c9060008051602062006759833981519152906000199060040162001946565b602060405180830381600087803b15801562000f6757600080fd5b505af115801562000f7c573d6000803e3d6000fd5b505050506040513d601f19601f8201168201806040525081019062000fa2919062001924565b5060225460405163095ea7b360e01b81526001600160a01b039091169063095ea7b39062000fed90730895196562c7868c5be92459fae7f877ed450452906000199060040162001946565b602060405180830381600087803b1580156200100857600080fd5b505af11580156200101d573d6000803e3d6000fd5b505050506040513d601f19601f8201168201806040525081019062001043919062001924565b5060225460405163095ea7b360e01b81526001600160a01b039091169063095ea7b390620010899060008051602062006759833981519152906000199060040162001946565b602060405180830381600087803b158015620010a457600080fd5b505af1158015620010b9573d6000803e3d6000fd5b505050506040513d601f19601f82011682018060405250810190620010df919062001924565b5060245460405163095ea7b360e01b81526001600160a01b039091169063095ea7b390620011259060008051602062006779833981519152906000199060040162001946565b602060405180830381600087803b1580156200114057600080fd5b505af115801562001155573d6000803e3d6000fd5b505050506040513d601f19601f820116820180604052508101906200117b919062001924565b5060245460405163095ea7b360e01b81526001600160a01b039091169063095ea7b390620011c19060008051602062006759833981519152906000199060040162001946565b602060405180830381600087803b158015620011dc57600080fd5b505af1158015620011f1573d6000803e3d6000fd5b505050506040513d601f19601f8201168201806040525081019062001217919062001924565b5060295460405163095ea7b360e01b81526001600160a01b039091169063095ea7b3906200125d9060008051602062006759833981519152906000199060040162001946565b602060405180830381600087803b1580156200127857600080fd5b505af11580156200128d573d6000803e3d6000fd5b505050506040513d601f19601f82011682018060405250810190620012b3919062001924565b5060255460405163095ea7b360e01b81526001600160a01b039091169063095ea7b390620012fe90730895196562c7868c5be92459fae7f877ed450452906000199060040162001946565b602060405180830381600087803b1580156200131957600080fd5b505af11580156200132e573d6000803e3d6000fd5b505050506040513d601f19601f8201168201806040525081019062001354919062001924565b5060265460405163095ea7b360e01b81526001600160a01b039091169063095ea7b3906200139a9060008051602062006759833981519152906000199060040162001946565b602060405180830381600087803b158015620013b557600080fd5b505af1158015620013ca573d6000803e3d6000fd5b505050506040513d601f19601f82011682018060405250810190620013f0919062001924565b5060285460405163095ea7b360e01b81526001600160a01b039091169063095ea7b3906200143b9073fca433b1c071737f92b76234984aba10d04de57e906000199060040162001946565b602060405180830381600087803b1580156200145657600080fd5b505af11580156200146b573d6000803e3d6000fd5b505050506040513d601f19601f8201168201806040525081019062001491919062001924565b5060285460405163095ea7b360e01b81526001600160a01b039091169063095ea7b390620014d79060008051602062006759833981519152906000199060040162001946565b602060405180830381600087803b158015620014f257600080fd5b505af115801562001507573d6000803e3d6000fd5b505050506040513d601f19601f820116820180604052508101906200152d919062001924565b5060295460405163095ea7b360e01b81526001600160a01b039091169063095ea7b390620015789073fca433b1c071737f92b76234984aba10d04de57e906000199060040162001946565b602060405180830381600087803b1580156200159357600080fd5b505af1158015620015a8573d6000803e3d6000fd5b505050506040513d601f19601f82011682018060405250810190620015ce919062001924565b5060255460405163095ea7b360e01b81526001600160a01b039091169063095ea7b390620016149060008051602062006779833981519152906000199060040162001946565b602060405180830381600087803b1580156200162f57600080fd5b505af115801562001644573d6000803e3d6000fd5b505050506040513d601f19601f820116820180604052508101906200166a919062001924565b50602a5460405163095ea7b360e01b81526001600160a01b039091169063095ea7b390620016b09060008051602062006759833981519152906000199060040162001946565b602060405180830381600087803b158015620016cb57600080fd5b505af1158015620016e0573d6000803e3d6000fd5b505050506040513d601f19601f8201168201806040525081019062001706919062001924565b50601d5460405163095ea7b360e01b81526001600160a01b039091169063095ea7b3906200174c9060008051602062006759833981519152906000199060040162001946565b602060405180830381600087803b1580156200176757600080fd5b505af11580156200177c573d6000803e3d6000fd5b505050506040513d601f19601f82011682018060405250810190620017a2919062001924565b50601e5460405163095ea7b360e01b81526001600160a01b039091169063095ea7b390620017e89060008051602062006759833981519152906000199060040162001946565b602060405180830381600087803b1580156200180357600080fd5b505af115801562001818573d6000803e3d6000fd5b505050506040513d601f19601f820116820180604052508101906200183e919062001924565b50600180546001600160a01b0319166001600160a01b03929092169190911790556200195f565b3390565b828054828255906000526020600020908101928215620018c1579160200282015b82811115620018c157825182546001600160a01b0319166001600160a01b039091161782556020909201916001909101906200188a565b50620018cf929150620018d3565b5090565b5b80821115620018cf5780546001600160a01b0319168155600101620018d4565b60006020828403121562001906578081fd5b81516001600160a01b03811681146200191d578182fd5b9392505050565b60006020828403121562001936578081fd5b815180151581146200191d578182fd5b6001600160a01b03929092168252602082015260400190565b614daa806200196f6000396000f3fe6080604052600436106102935760003560e01c80638904bf2f1161015a578063ccf12a9c116100c1578063e8b5e51f1161007a578063e8b5e51f146106a6578063e9e15b4f146106bb578063e9fad8ee146106db578063ec66bb9a146106f0578063f2fde38b14610705578063f3d5bec91461072557610293565b8063ccf12a9c14610628578063d46552a31461063d578063d4c3eea014610652578063e395045c14610667578063e43bb6da1461067c578063e6803e791461069157610293565b8063a98ad46c11610113578063a98ad46c14610589578063b073c8d91461059e578063b85eef23146105be578063b97af194146105d3578063b98d3411146105f3578063bf477eae1461060857610293565b80638904bf2f146105005780638da5cb5b14610515578063908113341461052a57806390f7bb6e1461053f5780639cae1d421461055f578063a51a25621461057457610293565b806339844acd116101fe578063559982e7116101b7578063559982e71461046e578063640fe7801461048e5780636a092e79146104ae57806370b4c9e0146104c1578063715018a6146104d65780637bf1a627146104eb57610293565b806339844acd146103f05780633a59d74d146104055780633ca5b2341461041a5780634641257d1461042f57806349a876e4146104445780634f7bfa101461045957610293565b806314174f331161025057806314174f331461033b57806315b0d4961461035b5780632036dba31461037b57806320beddcd1461039b578063320cca5c146103bb5780633698c4a0146103db57610293565b806305b015de146102985780630a4a3cba146102af5780630e15561a146102da5780630f0d6569146102ef5780631063a9cf146103115780631288fc6614610326575b600080fd5b3480156102a457600080fd5b506102ad61073a565b005b3480156102bb57600080fd5b506102c46109f4565b6040516102d19190614cb2565b60405180910390f35b3480156102e657600080fd5b506102c4610dfa565b3480156102fb57600080fd5b506103046110a2565b6040516102d19190614990565b34801561031d57600080fd5b506103046110b1565b34801561033257600080fd5b506103046110c0565b34801561034757600080fd5b506102ad610356366004614870565b6110cf565b34801561036757600080fd5b506102ad610376366004614870565b611441565b34801561038757600080fd5b506102ad610396366004614870565b61147b565b3480156103a757600080fd5b506102ad6103b63660046148a0565b61189b565b3480156103c757600080fd5b506102ad6103d63660046146fe565b611d00565b3480156103e757600080fd5b50610304611dc4565b3480156103fc57600080fd5b506102c4611dd3565b34801561041157600080fd5b5061030461226e565b34801561042657600080fd5b5061030461227d565b34801561043b57600080fd5b506102ad61228c565b34801561045057600080fd5b506103046124fc565b34801561046557600080fd5b506102c461250b565b34801561047a57600080fd5b506102ad6104893660046146a3565b612511565b34801561049a57600080fd5b506102ad6104a9366004614870565b61266d565b6102ad6104bc3660046146c6565b612acd565b3480156104cd57600080fd5b50610304612c26565b3480156104e257600080fd5b506102ad612c35565b3480156104f757600080fd5b50610304612cb4565b34801561050c57600080fd5b50610304612cc3565b34801561052157600080fd5b50610304612cd2565b34801561053657600080fd5b50610304612ce1565b34801561054b57600080fd5b506102ad61055a366004614870565b612cf0565b34801561056b57600080fd5b5061030461320d565b34801561058057600080fd5b5061030461321c565b34801561059557600080fd5b5061030461322b565b3480156105aa57600080fd5b506102ad6105b9366004614870565b61323a565b3480156105ca57600080fd5b50610304613644565b3480156105df57600080fd5b506102ad6105ee3660046146a3565b613653565b3480156105ff57600080fd5b506103046136aa565b34801561061457600080fd5b506102ad610623366004614870565b6136b9565b34801561063457600080fd5b506102c4613a57565b34801561064957600080fd5b50610304613d99565b34801561065e57600080fd5b506102c4613da8565b34801561067357600080fd5b50610304613dc3565b34801561068857600080fd5b506102c4613dd2565b34801561069d57600080fd5b506102c4613df0565b3480156106b257600080fd5b506102ad61417d565b3480156106c757600080fd5b506102ad6106d63660046146a3565b614374565b3480156106e757600080fd5b506102ad6143cb565b3480156106fc57600080fd5b50610304614435565b34801561071157600080fd5b506102ad6107203660046146a3565b614444565b34801561073157600080fd5b50610304614482565b6001546001600160a01b031661074e614491565b6001600160a01b0316148061077d57506002546001600160a01b0316610772614491565b6001600160a01b0316145b6107a25760405162461bcd60e51b815260040161079990614c38565b60405180910390fd5b602a546040516370a0823160e01b81526000916001600160a01b0316906370a08231906107d3903090600401614990565b60206040518083038186803b1580156107eb57600080fd5b505afa1580156107ff573d6000803e3d6000fd5b505050506040513d601f19601f820116820180604052508101906108239190614888565b905061082e81614495565b156108c957602b546040516338ed173960e01b81526001600160a01b03909116906338ed173990610871908490600090600f903090612710420190600401614cdc565b600060405180830381600087803b15801561088b57600080fd5b505af115801561089f573d6000803e3d6000fd5b505050506040513d6000823e601f3d908101601f191682016040526108c791908101906147c0565b505b6024546040516370a0823160e01b81526000916001600160a01b0316906370a08231906108fa903090600401614990565b60206040518083038186803b15801561091257600080fd5b505afa158015610926573d6000803e3d6000fd5b505050506040513d601f19601f8201168201806040525081019061094a9190614888565b905061095581614495565b156109f057601c546040516338ed173960e01b81526001600160a01b03909116906338ed1739906109989084906000906010903090612710420190600401614cdc565b600060405180830381600087803b1580156109b257600080fd5b505af11580156109c6573d6000803e3d6000fd5b505050506040513d6000823e601f3d908101601f191682016040526109ee91908101906147c0565b505b5050565b602354604051631ee136bb60e21b815260009182916001600160a01b0390911690637b84daec90610a2c9060f3903090600401614a6a565b60206040518083038186803b158015610a4457600080fd5b505afa158015610a58573d6000803e3d6000fd5b505050506040513d601f19601f82011682018060405250810190610a7c9190614888565b905080610a8d576000915050610df7565b602254604080516318160ddd60e01b815290516000926001600160a01b0316916318160ddd916004808301926020929190829003018186803b158015610ad257600080fd5b505afa158015610ae6573d6000803e3d6000fd5b505050506040513d601f19601f82011682018060405250810190610b0a9190614888565b6021546040516370a0823160e01b81529192506000916001600160a01b03909116906370a0823190610b5490730ed7e52944161450477ee417de9cd3a859b14fd090600401614990565b60206040518083038186803b158015610b6c57600080fd5b505afa158015610b80573d6000803e3d6000fd5b505050506040513d601f19601f82011682018060405250810190610ba49190614888565b6029546040516370a0823160e01b81529192506000916001600160a01b03909116906370a0823190610bee90730ed7e52944161450477ee417de9cd3a859b14fd090600401614990565b60206040518083038186803b158015610c0657600080fd5b505afa158015610c1a573d6000803e3d6000fd5b505050506040513d601f19601f82011682018060405250810190610c3e9190614888565b905060008383860281610c4d57fe5b04905060008483870281610c5d57fe5b60408051600180825281830190925292909104925060609190602080830190803683375050604080516001808252818301909252929350606092915060208083019080368337019050509050610cb284614495565b15610d4157602b5460405163d06ca61f60e01b81526001600160a01b039091169063d06ca61f90610cea908790600e90600401614cbb565b60006040518083038186803b158015610d0257600080fd5b505afa158015610d16573d6000803e3d6000fd5b505050506040513d6000823e601f3d908101601f19168201604052610d3e91908101906147c0565b91505b610d4a83614495565b15610dd957602b5460405163d06ca61f60e01b81526001600160a01b039091169063d06ca61f90610d82908690601190600401614cbb565b60006040518083038186803b158015610d9a57600080fd5b505afa158015610dae573d6000803e3d6000fd5b505050506040513d6000823e601f3d908101601f19168201604052610dd691908101906147c0565b90505b610de28161449a565b610deb8361449a565b01985050505050505050505b90565b602054604051630c5df13d60e01b815260009182916001600160a01b0390911690630c5df13d90610e32906077903090600401614a6a565b60206040518083038186803b158015610e4a57600080fd5b505afa158015610e5e573d6000803e3d6000fd5b505050506040513d601f19601f82011682018060405250810190610e829190614888565b60235460405163c0660d1d60e01b81529192506000916001600160a01b039091169063c0660d1d90610ebb9060f3903090600401614a6a565b60206040518083038186803b158015610ed357600080fd5b505afa158015610ee7573d6000803e3d6000fd5b505050506040513d601f19601f82011682018060405250810190610f0b9190614888565b6040805160018082528183019092529192508291606091602080830190803683375050604080516001808252818301909252929350606092915060208083019080368337019050509050610f5e83614495565b15610fed57601c5460405163d06ca61f60e01b81526001600160a01b039091169063d06ca61f90610f96908690601090600401614cbb565b60006040518083038186803b158015610fae57600080fd5b505afa158015610fc2573d6000803e3d6000fd5b505050506040513d6000823e601f3d908101601f19168201604052610fea91908101906147c0565b90505b610ff685614495565b1561108557602b5460405163d06ca61f60e01b81526001600160a01b039091169063d06ca61f9061102e908890600f90600401614cbb565b60006040518083038186803b15801561104657600080fd5b505afa15801561105a573d6000803e3d6000fd5b505050506040513d6000823e601f3d908101601f1916820160405261108291908101906147c0565b91505b61108e8161449a565b6110978361449a565b019550505050505090565b6027546001600160a01b031681565b6025546001600160a01b031681565b6022546001600160a01b031681565b6001546001600160a01b03166110e3614491565b6001600160a01b0316148061111257506002546001600160a01b0316611107614491565b6001600160a01b0316145b61112e5760405162461bcd60e51b815260040161079990614c38565b6000611138613da8565b9050811580611145575080155b15611150575061143e565b8082111561115c578091505b6027546040516370a0823160e01b81526000916001600160a01b0316906370a082319061118d903090600401614990565b60206040518083038186803b1580156111a557600080fd5b505afa1580156111b9573d6000803e3d6000fd5b505050506040513d601f19601f820116820180604052508101906111dd9190614888565b9050600082848302816111ec57fe5b0490506111f88161266d565b602054604051631ee136bb60e21b8152600091859187916001600160a01b031690637b84daec90611230906077903090600401614a6a565b60206040518083038186803b15801561124857600080fd5b505afa15801561125c573d6000803e3d6000fd5b505050506040513d601f19601f820116820180604052508101906112809190614888565b028161128857fe5b04905061129481612cf0565b602354604051631ee136bb60e21b815260009186916001600160a01b0390911690637b84daec906112cc9060f3903090600401614a6a565b60206040518083038186803b1580156112e457600080fd5b505afa1580156112f8573d6000803e3d6000fd5b505050506040513d601f19601f8201168201806040525081019061131c9190614888565b87028161132557fe5b04905061133360f38261189b565b61133b61073a565b601a546001546040516370a0823160e01b81526001600160a01b039283169263a9059cbb92169083906370a0823190611378903090600401614990565b60206040518083038186803b15801561139057600080fd5b505afa1580156113a4573d6000803e3d6000fd5b505050506040513d601f19601f820116820180604052508101906113c89190614888565b6040518363ffffffff1660e01b81526004016113e5929190614a51565b602060405180830381600087803b1580156113ff57600080fd5b505af1158015611413573d6000803e3d6000fd5b505050506040513d601f19601f820116820180604052508101906114379190614850565b5050505050505b50565b611449614491565b6000546001600160a01b039081169116146114765760405162461bcd60e51b815260040161079990614b78565b601755565b6001546001600160a01b031661148f614491565b6001600160a01b031614806114be57506002546001600160a01b03166114b3614491565b6001600160a01b0316145b6114da5760405162461bcd60e51b815260040161079990614c38565b602b546040516338ed173960e01b815260028304916001600160a01b0316906338ed17399061151b908490600090600a903090426127100190600401614cdc565b600060405180830381600087803b15801561153557600080fd5b505af1158015611549573d6000803e3d6000fd5b505050506040513d6000823e601f3d908101601f1916820160405261157191908101906147c0565b50602b546040516338ed173960e01b81526001600160a01b03909116906338ed1739906115b09084906000906006903090612710420190600401614cdc565b600060405180830381600087803b1580156115ca57600080fd5b505af11580156115de573d6000803e3d6000fd5b505050506040513d6000823e601f3d908101601f1916820160405261160691908101906147c0565b506021546040516370a0823160e01b81526000916001600160a01b0316906370a0823190611638903090600401614990565b60206040518083038186803b15801561165057600080fd5b505afa158015611664573d6000803e3d6000fd5b505050506040513d601f19601f820116820180604052508101906116889190614888565b6029546040516370a0823160e01b81529192506000916001600160a01b03909116906370a08231906116be903090600401614990565b60206040518083038186803b1580156116d657600080fd5b505afa1580156116ea573d6000803e3d6000fd5b505050506040513d601f19601f8201168201806040525081019061170e9190614888565b602b5460405162e8e33760e81b81529192506001600160a01b03169063e8e337009061177990730e09fabb73bd3ade0a17ecc321fd13a19e81ce829073bb4cdb9cbd36b01bd1cbaebf2de08d9173bc095c908790879060009081903090612710420190600401614a08565b600060405180830381600087803b15801561179357600080fd5b505af11580156117a7573d6000803e3d6000fd5b50506022546040516370a0823160e01b8152600093506001600160a01b0390911691506370a08231906117de903090600401614990565b60206040518083038186803b1580156117f657600080fd5b505afa15801561180a573d6000803e3d6000fd5b505050506040513d601f19601f8201168201806040525081019061182e9190614888565b602354604051631c57762b60e31b81529192506001600160a01b03169063e2bbb158906118629060f3908590600401614a81565b600060405180830381600087803b15801561187c57600080fd5b505af1158015611890573d6000803e3d6000fd5b505050505050505050565b6001546001600160a01b03166118af614491565b6001600160a01b031614806118de57506002546001600160a01b03166118d3614491565b6001600160a01b0316145b6118fa5760405162461bcd60e51b815260040161079990614c38565b80611904576109f0565b602354604051630441a3e760e41b81526001600160a01b039091169063441a3e70906119369085908590600401614a81565b600060405180830381600087803b15801561195057600080fd5b505af1158015611964573d6000803e3d6000fd5b50506022546040516370a0823160e01b8152600093506001600160a01b0390911691506370a082319061199b903090600401614990565b60206040518083038186803b1580156119b357600080fd5b505afa1580156119c7573d6000803e3d6000fd5b505050506040513d601f19601f820116820180604052508101906119eb9190614888565b602b54604051635d5155ef60e11b81529192506001600160a01b03169063baa2abde90611a5590730e09fabb73bd3ade0a17ecc321fd13a19e81ce829073bb4cdb9cbd36b01bd1cbaebf2de08d9173bc095c908690600090819030906127104201906004016149c8565b6040805180830381600087803b158015611a6e57600080fd5b505af1158015611a82573d6000803e3d6000fd5b505050506040513d601f19601f82011682018060405250810190611aa691906148c1565b50506029546040516370a0823160e01b81526000916001600160a01b0316906370a0823190611ad9903090600401614990565b60206040518083038186803b158015611af157600080fd5b505afa158015611b05573d6000803e3d6000fd5b505050506040513d601f19601f82011682018060405250810190611b299190614888565b6021546040516370a0823160e01b81529192506000916001600160a01b03909116906370a0823190611b5f903090600401614990565b60206040518083038186803b158015611b7757600080fd5b505afa158015611b8b573d6000803e3d6000fd5b505050506040513d601f19601f82011682018060405250810190611baf9190614888565b9050611bba82614495565b15611c5557602b546040516338ed173960e01b81526001600160a01b03909116906338ed173990611bfd9085906000906011903090612710420190600401614cdc565b600060405180830381600087803b158015611c1757600080fd5b505af1158015611c2b573d6000803e3d6000fd5b505050506040513d6000823e601f3d908101601f19168201604052611c5391908101906147c0565b505b611c5e81614495565b15611cf957602b546040516338ed173960e01b81526001600160a01b03909116906338ed173990611ca1908490600090600e903090612710420190600401614cdc565b600060405180830381600087803b158015611cbb57600080fd5b505af1158015611ccf573d6000803e3d6000fd5b505050506040513d6000823e601f3d908101601f19168201604052611cf791908101906147c0565b505b5050505050565b6001546001600160a01b0316611d14614491565b6001600160a01b03161480611d4357506002546001600160a01b0316611d38614491565b6001600160a01b0316145b611d5f5760405162461bcd60e51b815260040161079990614c38565b8051825114611d805760405162461bcd60e51b815260040161079990614bad565b60005b82518110156109ee57611dbc838281518110611d9b57fe5b6020026020010151838381518110611daf57fe5b60200260200101516144bb565b600101611d83565b6023546001600160a01b031681565b600080670de0b6b3a7640000602760009054906101000a90046001600160a01b03166001600160a01b03166377c7b8fc6040518163ffffffff1660e01b815260040160206040518083038186803b158015611e2d57600080fd5b505afa158015611e41573d6000803e3d6000fd5b505050506040513d601f19601f82011682018060405250810190611e659190614888565b6027546040516370a0823160e01b81526001600160a01b03909116906370a0823190611e95903090600401614990565b60206040518083038186803b158015611ead57600080fd5b505afa158015611ec1573d6000803e3d6000fd5b505050506040513d601f19601f82011682018060405250810190611ee59190614888565b0281611eed57fe5b04905080611eff576000915050610df7565b602854604080516318160ddd60e01b815290516000926001600160a01b0316916318160ddd916004808301926020929190829003018186803b158015611f4457600080fd5b505afa158015611f58573d6000803e3d6000fd5b505050506040513d601f19601f82011682018060405250810190611f7c9190614888565b6026546040516370a0823160e01b81529192506000916001600160a01b03909116906370a0823190611fc69073acf47cbeaab5c8a6ee99263cfe43995f89fb320690600401614990565b60206040518083038186803b158015611fde57600080fd5b505afa158015611ff2573d6000803e3d6000fd5b505050506040513d601f19601f820116820180604052508101906120169190614888565b6029546040516370a0823160e01b81529192506000916001600160a01b03909116906370a08231906120609073acf47cbeaab5c8a6ee99263cfe43995f89fb320690600401614990565b60206040518083038186803b15801561207857600080fd5b505afa15801561208c573d6000803e3d6000fd5b505050506040513d601f19601f820116820180604052508101906120b09190614888565b9050600083838602816120bf57fe5b049050600084838702816120cf57fe5b6040805160018082528183019092529290910492506060919060208083019080368337505060408051600180825281830190925292935060609291506020808301908036833701905050905061212484614495565b156121b357602b5460405163d06ca61f60e01b81526001600160a01b039091169063d06ca61f9061215c908790600590600401614cbb565b60006040518083038186803b15801561217457600080fd5b505afa158015612188573d6000803e3d6000fd5b505050506040513d6000823e601f3d908101601f191682016040526121b091908101906147c0565b91505b6121bc83614495565b1561224b57602b5460405163d06ca61f60e01b81526001600160a01b039091169063d06ca61f906121f4908690600790600401614cbb565b60006040518083038186803b15801561220c57600080fd5b505afa158015612220573d6000803e3d6000fd5b505050506040513d6000823e601f3d908101601f1916820160405261224891908101906147c0565b90505b60006122568261449a565b61225f8461449a565b01995050505050505050505090565b601f546001600160a01b031681565b601a546001600160a01b031681565b6001546001600160a01b03166122a0614491565b6001600160a01b031614806122cf57506002546001600160a01b03166122c4614491565b6001600160a01b0316145b6122eb5760405162461bcd60e51b815260040161079990614c38565b60006122f5610dfa565b11156124fa57602054604051630c5df13d60e01b81526000916001600160a01b031690630c5df13d9061232f906077903090600401614a6a565b60206040518083038186803b15801561234757600080fd5b505afa15801561235b573d6000803e3d6000fd5b505050506040513d601f19601f8201168201806040525081019061237f9190614888565b905061238a81614495565b156123f657602054604051630441a3e760e41b81526001600160a01b039091169063441a3e70906123c390607790600090600401614a81565b600060405180830381600087803b1580156123dd57600080fd5b505af11580156123f1573d6000803e3d6000fd5b505050505b60235460405163c0660d1d60e01b81526000916001600160a01b03169063c0660d1d9061242a9060f3903090600401614a6a565b60206040518083038186803b15801561244257600080fd5b505afa158015612456573d6000803e3d6000fd5b505050506040513d601f19601f8201168201806040525081019061247a9190614888565b90508061248681614495565b156124f257602354604051630441a3e760e41b81526001600160a01b039091169063441a3e70906124bf9060f390600090600401614a81565b600060405180830381600087803b1580156124d957600080fd5b505af11580156124ed573d6000803e3d6000fd5b505050505b6109ee61073a565b565b601b546001600160a01b031681565b60175490565b6001546001600160a01b0316612525614491565b6001600160a01b0316148061255457506002546001600160a01b0316612549614491565b6001600160a01b0316145b6125705760405162461bcd60e51b815260040161079990614c38565b6001546040516370a0823160e01b815282916001600160a01b038084169263a9059cbb929091169083906370a08231906125ae903090600401614990565b60206040518083038186803b1580156125c657600080fd5b505afa1580156125da573d6000803e3d6000fd5b505050506040513d601f19601f820116820180604052508101906125fe9190614888565b6040518363ffffffff1660e01b815260040161261b929190614a51565b602060405180830381600087803b15801561263557600080fd5b505af1158015612649573d6000803e3d6000fd5b505050506040513d601f19601f820116820180604052508101906109ee9190614850565b6001546001600160a01b0316612681614491565b6001600160a01b031614806126b057506002546001600160a01b03166126a5614491565b6001600160a01b0316145b6126cc5760405162461bcd60e51b815260040161079990614c38565b806126d65761143e565b602754604051632e1a7d4d60e01b81526001600160a01b0390911690632e1a7d4d90612706908490600401614cb2565b600060405180830381600087803b15801561272057600080fd5b505af1158015612734573d6000803e3d6000fd5b50506028546040516370a0823160e01b8152600093506001600160a01b0390911691506370a082319061276b903090600401614990565b60206040518083038186803b15801561278357600080fd5b505afa158015612797573d6000803e3d6000fd5b505050506040513d601f19601f820116820180604052508101906127bb9190614888565b602b54604051635d5155ef60e11b81529192506001600160a01b03169063baa2abde906128259073a1faa113cbe53436df28ff0aee54275c13b409759073bb4cdb9cbd36b01bd1cbaebf2de08d9173bc095c908690600090819030906127104201906004016149c8565b6040805180830381600087803b15801561283e57600080fd5b505af1158015612852573d6000803e3d6000fd5b505050506040513d601f19601f8201168201806040525081019061287691906148c1565b50506026546040516370a0823160e01b81526000916001600160a01b0316906370a08231906128a9903090600401614990565b60206040518083038186803b1580156128c157600080fd5b505afa1580156128d5573d6000803e3d6000fd5b505050506040513d601f19601f820116820180604052508101906128f99190614888565b6029546040516370a0823160e01b81529192506000916001600160a01b03909116906370a082319061292f903090600401614990565b60206040518083038186803b15801561294757600080fd5b505afa15801561295b573d6000803e3d6000fd5b505050506040513d601f19601f8201168201806040525081019061297f9190614888565b905061298a82614495565b15612a2557602b546040516338ed173960e01b81526001600160a01b03909116906338ed1739906129cd9085906000906005903090612710420190600401614cdc565b600060405180830381600087803b1580156129e757600080fd5b505af11580156129fb573d6000803e3d6000fd5b505050506040513d6000823e601f3d908101601f19168201604052612a2391908101906147c0565b505b612a2e81614495565b15612ac757602b546040516338ed173960e01b81526001600160a01b03909116906338ed173990612a719084906000906011903090612710420190600401614cdc565b600060405180830381600087803b158015612a8b57600080fd5b505af1158015612a9f573d6000803e3d6000fd5b505050506040513d6000823e601f3d908101601f19168201604052611cf991908101906147c0565b50505050565b6001546001600160a01b0316612ae1614491565b6001600160a01b03161480612b1057506002546001600160a01b0316612b05614491565b6001600160a01b0316145b612b2c5760405162461bcd60e51b815260040161079990614c38565b6040516370a0823160e01b815282906001600160a01b038216906323b872dd908490309084906370a0823190612b66908590600401614990565b60206040518083038186803b158015612b7e57600080fd5b505afa158015612b92573d6000803e3d6000fd5b505050506040513d601f19601f82011682018060405250810190612bb69190614888565b6040518463ffffffff1660e01b8152600401612bd4939291906149a4565b602060405180830381600087803b158015612bee57600080fd5b505af1158015612c02573d6000803e3d6000fd5b505050506040513d601f19601f82011682018060405250810190612ac79190614850565b6026546001600160a01b031681565b612c3d614491565b6000546001600160a01b03908116911614612c6a5760405162461bcd60e51b815260040161079990614b78565b600080546040516001600160a01b03909116907f8be0079c531659141344cd1fd0a4f28419497f9722a3daafe3b4186f6b6457e0908390a3600080546001600160a01b0319169055565b601e546001600160a01b031681565b6021546001600160a01b031681565b6000546001600160a01b031690565b6002546001600160a01b031690565b6001546001600160a01b0316612d04614491565b6001600160a01b03161480612d3357506002546001600160a01b0316612d28614491565b6001600160a01b0316145b612d4f5760405162461bcd60e51b815260040161079990614c38565b80612d595761143e565b602054604051630441a3e760e41b81526001600160a01b039091169063441a3e7090612d8c906077908590600401614a81565b600060405180830381600087803b158015612da657600080fd5b505af1158015612dba573d6000803e3d6000fd5b5050602a546040516370a0823160e01b8152600093506001600160a01b0390911691506370a0823190612df1903090600401614990565b60206040518083038186803b158015612e0957600080fd5b505afa158015612e1d573d6000803e3d6000fd5b505050506040513d601f19601f82011682018060405250810190612e419190614888565b602b546040516338ed173960e01b81529192506001600160a01b0316906338ed173990612e80908490600090600f903090612710420190600401614cdc565b600060405180830381600087803b158015612e9a57600080fd5b505af1158015612eae573d6000803e3d6000fd5b505050506040513d6000823e601f3d908101601f19168201604052612ed691908101906147c0565b50601f546040516370a0823160e01b81526000916001600160a01b0316906370a0823190612f08903090600401614990565b60206040518083038186803b158015612f2057600080fd5b505afa158015612f34573d6000803e3d6000fd5b505050506040513d601f19601f82011682018060405250810190612f589190614888565b601c54604051635d5155ef60e11b81529192506001600160a01b03169063baa2abde90612fc2907355d398326f99059ff775485246999027b319795590732170ed0880ac9a755fd29b2688956bd959f933f8908690600090819030906127104201906004016149c8565b6040805180830381600087803b158015612fdb57600080fd5b505af1158015612fef573d6000803e3d6000fd5b505050506040513d601f19601f8201168201806040525081019061301391906148c1565b5050601e546040516370a0823160e01b81526000916001600160a01b0316906370a0823190613046903090600401614990565b60206040518083038186803b15801561305e57600080fd5b505afa158015613072573d6000803e3d6000fd5b505050506040513d601f19601f820116820180604052508101906130969190614888565b601d546040516370a0823160e01b81529192506000916001600160a01b03909116906370a08231906130cc903090600401614990565b60206040518083038186803b1580156130e457600080fd5b505afa1580156130f8573d6000803e3d6000fd5b505050506040513d601f19601f8201168201806040525081019061311c9190614888565b905061312781614495565b156131c257602b546040516338ed173960e01b81526001600160a01b03909116906338ed17399061316a9084906000906009903090612710420190600401614cdc565b600060405180830381600087803b15801561318457600080fd5b505af1158015613198573d6000803e3d6000fd5b505050506040513d6000823e601f3d908101601f191682016040526131c091908101906147c0565b505b6131cb82614495565b15611cf957602b546040516338ed173960e01b81526001600160a01b03909116906338ed173990611ca190859060009060049030906127104201908301614cdc565b6001546001600160a01b031690565b6018546001600160a01b031681565b601d546001600160a01b031681565b6001546001600160a01b031661324e614491565b6001600160a01b0316148061327d57506002546001600160a01b0316613272614491565b6001600160a01b0316145b6132995760405162461bcd60e51b815260040161079990614c38565b602b546040516338ed173960e01b815260028304916001600160a01b0316906338ed1739906132da9084906000906003903090426127100190600401614cdc565b600060405180830381600087803b1580156132f457600080fd5b505af1158015613308573d6000803e3d6000fd5b505050506040513d6000823e601f3d908101601f1916820160405261333091908101906147c0565b50602b546040516338ed173960e01b81526001600160a01b03909116906338ed17399061336f9084906000906008903090612710420190600401614cdc565b600060405180830381600087803b15801561338957600080fd5b505af115801561339d573d6000803e3d6000fd5b505050506040513d6000823e601f3d908101601f191682016040526133c591908101906147c0565b50601e546040516370a0823160e01b81526000916001600160a01b0316906370a08231906133f7903090600401614990565b60206040518083038186803b15801561340f57600080fd5b505afa158015613423573d6000803e3d6000fd5b505050506040513d601f19601f820116820180604052508101906134479190614888565b601d546040516370a0823160e01b81529192506000916001600160a01b03909116906370a082319061347d903090600401614990565b60206040518083038186803b15801561349557600080fd5b505afa1580156134a9573d6000803e3d6000fd5b505050506040513d601f19601f820116820180604052508101906134cd9190614888565b601c5460405162e8e33760e81b81529192506001600160a01b03169063e8e337009061353890732170ed0880ac9a755fd29b2688956bd959f933f8907355d398326f99059ff775485246999027b3197955908790879060009081903090612710420190600401614a08565b606060405180830381600087803b15801561355257600080fd5b505af1158015613566573d6000803e3d6000fd5b505050506040513d601f19601f8201168201806040525081019061358a91906148e4565b5050601f546040516370a0823160e01b8152600092506001600160a01b03909116906370a08231906135c0903090600401614990565b60206040518083038186803b1580156135d857600080fd5b505afa1580156135ec573d6000803e3d6000fd5b505050506040513d601f19601f820116820180604052508101906136109190614888565b602054604051631c57762b60e31b81529192506001600160a01b03169063e2bbb15890611862906077908590600401614a81565b6028546001600160a01b031681565b61365b614491565b6000546001600160a01b039081169116146136885760405162461bcd60e51b815260040161079990614b78565b600280546001600160a01b0319166001600160a01b0392909216919091179055565b6024546001600160a01b031681565b6001546001600160a01b03166136cd614491565b6001600160a01b031614806136fc57506002546001600160a01b03166136f1614491565b6001600160a01b0316145b6137185760405162461bcd60e51b815260040161079990614c38565b602b546040516338ed173960e01b815260028304916001600160a01b0316906338ed173990613759908490600090600d903090426103e80190600401614cdc565b600060405180830381600087803b15801561377357600080fd5b505af1158015613787573d6000803e3d6000fd5b505050506040513d6000823e601f3d908101601f191682016040526137af91908101906147c0565b50602b546040516338ed173960e01b81526001600160a01b03909116906338ed1739906137ee9084906000906006903090612710420190600401614cdc565b600060405180830381600087803b15801561380857600080fd5b505af115801561381c573d6000803e3d6000fd5b505050506040513d6000823e601f3d908101601f1916820160405261384491908101906147c0565b506029546040516370a0823160e01b81526000916001600160a01b0316906370a0823190613876903090600401614990565b60206040518083038186803b15801561388e57600080fd5b505afa1580156138a2573d6000803e3d6000fd5b505050506040513d601f19601f820116820180604052508101906138c69190614888565b6026546040516370a0823160e01b81529192506000916001600160a01b03909116906370a08231906138fc903090600401614990565b60206040518083038186803b15801561391457600080fd5b505afa158015613928573d6000803e3d6000fd5b505050506040513d601f19601f8201168201806040525081019061394c9190614888565b602b5460405162e8e33760e81b81529192506001600160a01b03169063e8e33700906139b79073a1faa113cbe53436df28ff0aee54275c13b409759073bb4cdb9cbd36b01bd1cbaebf2de08d9173bc095c908690889060009081903090612710420190600401614a08565b600060405180830381600087803b1580156139d157600080fd5b505af11580156139e5573d6000803e3d6000fd5b50505050602760009054906101000a90046001600160a01b03166001600160a01b031663de5f62686040518163ffffffff1660e01b8152600401600060405180830381600087803b158015613a3957600080fd5b505af1158015613a4d573d6000803e3d6000fd5b5050505050505050565b602354604051631ee136bb60e21b815260009182916001600160a01b0390911690637b84daec90613a9090610159903090600401614a6a565b60206040518083038186803b158015613aa857600080fd5b505afa158015613abc573d6000803e3d6000fd5b505050506040513d601f19601f82011682018060405250810190613ae09190614888565b905080613af1576000915050610df7565b602554604080516318160ddd60e01b815290516000926001600160a01b0316916318160ddd916004808301926020929190829003018186803b158015613b3657600080fd5b505afa158015613b4a573d6000803e3d6000fd5b505050506040513d601f19601f82011682018060405250810190613b6e9190614888565b6024546040516370a0823160e01b81529192506000916001600160a01b03909116906370a0823190613bb890738fe32329c4dbe8d29b9c8874ef0f52ccd8c7d3f090600401614990565b60206040518083038186803b158015613bd057600080fd5b505afa158015613be4573d6000803e3d6000fd5b505050506040513d601f19601f82011682018060405250810190613c089190614888565b601a546040516370a0823160e01b81529192506000916001600160a01b03909116906370a0823190613c5290738fe32329c4dbe8d29b9c8874ef0f52ccd8c7d3f090600401614990565b60206040518083038186803b158015613c6a57600080fd5b505afa158015613c7e573d6000803e3d6000fd5b505050506040513d601f19601f82011682018060405250810190613ca29190614888565b905060008382860281613cb157fe5b04905060008484870281613cc157fe5b6040805160018082528183019092529290910492506060919060208083019080368337019050509050613cf382614495565b15613d8257601c5460405163d06ca61f60e01b81526001600160a01b039091169063d06ca61f90613d2b908590600c90600401614cbb565b60006040518083038186803b158015613d4357600080fd5b505afa158015613d57573d6000803e3d6000fd5b505050506040513d6000823e601f3d908101601f19168201604052613d7f91908101906147c0565b90505b613d8b8161449a565b830197505050505050505090565b602a546001600160a01b031681565b600080613db3613dd2565b9050613dbd610dfa565b01905090565b6020546001600160a01b031681565b600080613ddd613df0565b9050613de7611dd3565b01613dbd6109f4565b602054604051631ee136bb60e21b815260009182916001600160a01b0390911690637b84daec90613e28906077903090600401614a6a565b60206040518083038186803b158015613e4057600080fd5b505afa158015613e54573d6000803e3d6000fd5b505050506040513d601f19601f82011682018060405250810190613e789190614888565b905080613e89576000915050610df7565b601f54604080516318160ddd60e01b815290516000926001600160a01b0316916318160ddd916004808301926020929190829003018186803b158015613ece57600080fd5b505afa158015613ee2573d6000803e3d6000fd5b505050506040513d601f19601f82011682018060405250810190613f069190614888565b601e546040516370a0823160e01b81529192506000916001600160a01b03909116906370a0823190613f5090730fb881c078434b1c0e4d0b64d8c64d12078b7ce290600401614990565b60206040518083038186803b158015613f6857600080fd5b505afa158015613f7c573d6000803e3d6000fd5b505050506040513d601f19601f82011682018060405250810190613fa09190614888565b601d546040516370a0823160e01b81529192506000916001600160a01b03909116906370a0823190613fea90730fb881c078434b1c0e4d0b64d8c64d12078b7ce290600401614990565b60206040518083038186803b15801561400257600080fd5b505afa158015614016573d6000803e3d6000fd5b505050506040513d601f19601f8201168201806040525081019061403a9190614888565b90506000838386028161404957fe5b0490506000848387028161405957fe5b604080516001808252818301909252929091049250606091906020808301908036833750506040805160018082528183019092529293506060929150602080830190803683370190505090506140ae84614495565b1561413c57601c5460405163d06ca61f60e01b81526001600160a01b039091169063d06ca61f906140e59087906004908101614cbb565b60006040518083038186803b1580156140fd57600080fd5b505afa158015614111573d6000803e3d6000fd5b505050506040513d6000823e601f3d908101601f1916820160405261413991908101906147c0565b91505b61414583614495565b15610dd957601c5460405163d06ca61f60e01b81526001600160a01b039091169063d06ca61f90610d82908690600990600401614cbb565b6001546001600160a01b0316614191614491565b6001600160a01b031614806141c057506002546001600160a01b03166141b5614491565b6001600160a01b0316145b6141dc5760405162461bcd60e51b815260040161079990614c38565b601a546040516370a0823160e01b81526000916001600160a01b0316906370a082319061420d903090600401614990565b60206040518083038186803b15801561422557600080fd5b505afa158015614239573d6000803e3d6000fd5b505050506040513d601f19601f8201168201806040525081019061425d9190614888565b90506103e881116142805760405162461bcd60e51b815260040161079990614ad5565b60038104600061428e613da8565b90506142998261323a565b6000816142a4613da8565b03905060648360175402816142b557fe5b0481116142d45760405162461bcd60e51b815260040161079990614bee565b6142dc613da8565b91506142e78361147b565b816142f0613da8565b039050606483601754028161430157fe5b0481116143205760405162461bcd60e51b815260040161079990614b0a565b614328613da8565b9150614333836136b9565b8161433c613da8565b039050606483601754028161434d57fe5b04811161436c5760405162461bcd60e51b815260040161079990614c6f565b612ac761073a565b61437c614491565b6000546001600160a01b039081169116146143a95760405162461bcd60e51b815260040161079990614b78565b600180546001600160a01b0319166001600160a01b0392909216919091179055565b6001546001600160a01b03166143df614491565b6001600160a01b0316148061440e57506002546001600160a01b0316614403614491565b6001600160a01b0316145b61442a5760405162461bcd60e51b815260040161079990614c38565b6124fa610356613da8565b6019546001600160a01b031681565b61444c614491565b6000546001600160a01b039081169116146144795760405162461bcd60e51b815260040161079990614b78565b61143e8161454e565b6029546001600160a01b031681565b3390565b151590565b6000816001835103815181106144ac57fe5b60200260200101519050919050565b6001600160a01b0382166144e15760405162461bcd60e51b815260040161079990614b50565b60006060836001600160a01b0316836040516144fd9190614957565b6000604051808303816000865af19150503d806000811461453a576040519150601f19603f3d011682016040523d82523d6000602084013e61453f565b606091505b509150915081612ac757600080fd5b6001600160a01b0381166145745760405162461bcd60e51b815260040161079990614a8f565b600080546040516001600160a01b03808516939216917f8be0079c531659141344cd1fd0a4f28419497f9722a3daafe3b4186f6b6457e091a3600080546001600160a01b0319166001600160a01b0392909216919091179055565b80356145da81614d5f565b92915050565b6000601f83818401126145f1578182fd5b82356146046145ff82614d3f565b614d18565b818152925060208084019085810160005b84811015614697578135880189603f82011261463057600080fd5b8381013567ffffffffffffffff81111561464957600080fd5b61465a818901601f19168601614d18565b81815260408c8184860101111561467057600080fd5b82818501888401375060009181018601919091528552509282019290820190600101614615565b50505050505092915050565b6000602082840312156146b4578081fd5b81356146bf81614d5f565b9392505050565b600080604083850312156146d8578081fd5b82356146e381614d5f565b915060208301356146f381614d5f565b809150509250929050565b60008060408385031215614710578182fd5b823567ffffffffffffffff80821115614727578384fd5b818501915085601f83011261473a578384fd5b81356147486145ff82614d3f565b80828252602080830192508086018a828387028901011115614768578889fd5b8896505b848710156147925761477e8b826145cf565b84526001969096019592810192810161476c565b5090965087013593505050808211156147a9578283fd5b506147b6858286016145e0565b9150509250929050565b600060208083850312156147d2578182fd5b825167ffffffffffffffff8111156147e8578283fd5b8301601f810185136147f8578283fd5b80516148066145ff82614d3f565b8181528381019083850185840285018601891015614822578687fd5b8694505b83851015614844578051835260019490940193918501918501614826565b50979650505050505050565b600060208284031215614861578081fd5b815180151581146146bf578182fd5b600060208284031215614881578081fd5b5035919050565b600060208284031215614899578081fd5b5051919050565b600080604083850312156148b2578182fd5b50508035926020909101359150565b600080604083850312156148d3578182fd5b505080516020909101519092909150565b6000806000606084860312156148f8578081fd5b8351925060208401519150604084015190509250925092565b6000815480845260208085019450838352808320835b8381101561494c5781546001600160a01b031687529582019560019182019101614927565b509495945050505050565b60008251815b81811015614977576020818601810151858301520161495d565b818111156149855782828501525b509190910192915050565b6001600160a01b0391909116815260200190565b6001600160a01b039384168152919092166020820152604081019190915260600190565b6001600160a01b039788168152958716602087015260408601949094526060850192909252608084015290921660a082015260c081019190915260e00190565b6001600160a01b039889168152968816602088015260408701959095526060860193909352608085019190915260a084015290921660c082015260e08101919091526101000190565b6001600160a01b03929092168252602082015260400190565b9182526001600160a01b0316602082015260400190565b918252602082015260400190565b60208082526026908201527f4f776e61626c653a206e6577206f776e657220697320746865207a65726f206160408201526564647265737360d01b606082015260800190565b6020808252818101527f4d696e696d756d2042616c616e63652073686f756c64206265203e2031303030604082015260600190565b60208082526026908201527f546865206c6f737320696e206175746f6661726d20696e7665737420697320746040820152656f6f2062696760d01b606082015260800190565b6020808252600e908201526d1d185c99d95d0b5a5b9d985b1a5960921b604082015260600190565b6020808252818101527f4f776e61626c653a2063616c6c6572206973206e6f7420746865206f776e6572604082015260600190565b60208082526021908201527f546f7320616e64206461746173206c656e67746820696e636f6e73697374656e6040820152601d60fa1b606082015260800190565b6020808252602a908201527f546865206c6f737320696e207377616d7046696e616e636520696e7665737420604082015269697320746f6f2062696760b01b606082015260800190565b6020808252601f908201527f53747261746567793a204f7065726174696f6e206e6f7420616c6c6f77656400604082015260600190565b60208082526023908201527f546865206c6f737320696e20626565667920696e7665737420697320746f6f2060408201526262696760e81b606082015260800190565b90815260200190565b600083825260406020830152614cd46040830184614911565b949350505050565b600086825285602083015260a06040830152614cfb60a0830186614911565b6001600160a01b0394909416606083015250608001529392505050565b60405181810167ffffffffffffffff81118282101715614d3757600080fd5b604052919050565b600067ffffffffffffffff821115614d55578081fd5b5060209081020190565b6001600160a01b038116811461143e57600080fdfea2646970667358221220effbcca9d6b9491435798e87ae376680abb0ae6882f0eae5a2a74ad030b3f13c64736f6c634300060c0033000000000000000000000000bb4cdb9cbd36b01bd1cbaebf2de08d9173bc095c000000000000000000000000e9e7cea3dedca5984780bafc599bd69add087d5600000000000000000000000010ed43c718714eb63d5aa57b78b54704e256024e0000000000000000000000007dae51bd3e3376b8c7c4900e9107f12be3af1ba8",
    "sourcePath": "c:/Users/lenovo/Desktop/Workspace/Don-Key.finance-SmartContracts/No_reservior_contract/Strategy/TwentyStrategyV2.sol",
    "compiler": {
        "name": "solc",
        "version": "0.6.12+commit.27d51765"
    },
    "functionHashes": {
        "_withdrawFromAutoFarmV1(uint256,uint256)": "20beddcd",
        "_withdrawSwampFinance(uint256)": "90f7bb6e",
        "alphaBnbLP2Token()": "b85eef23",
        "alphaToken()": "70b4c9e0",
        "autoFarmVault()": "3698c4a0",
        "autoToken()": "b98d3411",
        "beefyVault()": "0f0d6569",
        "bnb()": "49a876e4",
        "bunnyProxy()": "ec66bb9a",
        "bunnyVault()": "a51a2562",
        "busd()": "3ca5b234",
        "cakeLpToken()": "1288fc66",
        "cakeToken()": "8904bf2f",
        "convertRewards()": "05b015de",
        "directExecuteCubes(address[],bytes[])": "320cca5c",
        "ethToken()": "7bf1a627",
        "exit()": "e9fad8ee",
        "getAllowedslippage()": "4f7bfa10",
        "getCronAddress()": "90811334",
        "getpoolAddress()": "9cae1d42",
        "harvest()": "4641257d",
        "invest()": "e8b5e51f",
        "investInAutoFarm(uint256)": "2036dba3",
        "investInBeefy(uint256)": "bf477eae",
        "investInSwamp(uint256)": "b073c8d9",
        "mdexAutoLpToken()": "1063a9cf",
        "mdexLpToken()": "3a59d74d",
        "owner()": "8da5cb5b",
        "renounceOwnership()": "715018a6",
        "setCronAddress(address)": "b97af194",
        "setPoolAddress(address)": "e9e15b4f",
        "swampFinance()": "e395045c",
        "swampToken()": "d46552a3",
        "totalALPHAWBNBValue()": "39844acd",
        "totalBUSDAutoValue()": "ccf12a9c",
        "totalETHUSDTValue()": "e6803e79",
        "totalRewards()": "0e15561a",
        "totalValue()": "d4c3eea0",
        "totalValueWithoutRewards()": "e43bb6da",
        "totalcakeWBNBValue()": "0a4a3cba",
        "transferOwnership(address)": "f2fde38b",
        "transferPool(address)": "559982e7",
        "transferTokens(address,address)": "6a092e79",
        "updateSlippage(uint256)": "15b0d496",
        "usdtToken()": "a98ad46c",
        "wbnbToken()": "f3d5bec9",
        "withDraw(uint256)": "14174f33",
        "withdrawBeefFinance(uint256)": "640fe780"
    },
    "gasEstimates": {
        "creation": {
            "codeDepositCost": "3976400",
            "executionCost": "infinite",
            "totalCost": "infinite"
        },
        "external": {
            "_withdrawFromAutoFarmV1(uint256,uint256)": "infinite",
            "_withdrawSwampFinance(uint256)": "infinite",
            "alphaBnbLP2Token()": "1159",
            "alphaToken()": "1181",
            "autoFarmVault()": "1226",
            "autoToken()": "1203",
            "beefyVault()": "1183",
            "bnb()": "1204",
            "bunnyProxy()": "1180",
            "bunnyVault()": "1226",
            "busd()": "1160",
            "cakeLpToken()": "1227",
            "cakeToken()": "1116",
            "convertRewards()": "infinite",
            "directExecuteCubes(address[],bytes[])": "infinite",
            "ethToken()": "1225",
            "exit()": "infinite",
            "getAllowedslippage()": "1184",
            "getCronAddress()": "1160",
            "getpoolAddress()": "1204",
            "harvest()": "infinite",
            "invest()": "infinite",
            "investInAutoFarm(uint256)": "infinite",
            "investInBeefy(uint256)": "infinite",
            "investInSwamp(uint256)": "infinite",
            "mdexAutoLpToken()": "1205",
            "mdexLpToken()": "1138",
            "owner()": "1138",
            "renounceOwnership()": "24337",
            "setCronAddress(address)": "22155",
            "setPoolAddress(address)": "22110",
            "swampFinance()": "1181",
            "swampToken()": "1137",
            "totalALPHAWBNBValue()": "infinite",
            "totalBUSDAutoValue()": "infinite",
            "totalETHUSDTValue()": "infinite",
            "totalRewards()": "infinite",
            "totalValue()": "infinite",
            "totalValueWithoutRewards()": "infinite",
            "totalcakeWBNBValue()": "infinite",
            "transferOwnership(address)": "infinite",
            "transferPool(address)": "infinite",
            "transferTokens(address,address)": "infinite",
            "updateSlippage(uint256)": "21171",
            "usdtToken()": "1115",
            "wbnbToken()": "1224",
            "withDraw(uint256)": "infinite",
            "withdrawBeefFinance(uint256)": "infinite"
        },
        "internal": {
            "_getLastItem(uint256[] memory)": "infinite",
            "_isAcceptable(uint256)": "18",
            "executeCube(address,bytes memory)": "infinite"
        }
    }
}